{
  "abi": [
    {
      "inputs": [
        {
          "internalType": "uint256",
          "name": "_baseRate",
          "type": "uint256"
        },
        {
          "internalType": "uint256",
          "name": "_slope1",
          "type": "uint256"
        },
        {
          "internalType": "uint256",
          "name": "_slope2",
          "type": "uint256"
        },
        {
          "internalType": "uint256",
          "name": "_optimalUsageRatio",
          "type": "uint256"
        },
        {
          "internalType": "uint256",
          "name": "_maxExcessUsageRatio",
          "type": "uint256"
        },
        {
          "internalType": "uint256",
          "name": "_secsPerYear",
          "type": "uint256"
        }
      ],
      "stateMutability": "nonpayable",
      "type": "constructor"
    },
    {
      "inputs": [],
      "name": "MAX_EXCESS_USAGE_RATIO",
      "outputs": [
        {
          "internalType": "uint256",
          "name": "",
          "type": "uint256"
        }
      ],
      "stateMutability": "view",
      "type": "function"
    },
    {
      "inputs": [],
      "name": "OPTIMAL_USAGE_RATIO",
      "outputs": [
        {
          "internalType": "uint256",
          "name": "",
          "type": "uint256"
        }
      ],
      "stateMutability": "view",
      "type": "function"
    },
    {
      "inputs": [],
      "name": "baseRate",
      "outputs": [
        {
          "internalType": "uint256",
          "name": "",
          "type": "uint256"
        }
      ],
      "stateMutability": "view",
      "type": "function"
    },
    {
      "inputs": [
        {
          "internalType": "uint256",
          "name": "liquidity",
          "type": "uint256"
        },
        {
          "internalType": "uint256",
          "name": "totalDebt",
          "type": "uint256"
        }
      ],
      "name": "getBorrowRatePerSecond",
      "outputs": [
        {
          "internalType": "uint256",
          "name": "",
          "type": "uint256"
        }
      ],
      "stateMutability": "view",
      "type": "function"
    },
    {
      "inputs": [],
      "name": "slope1",
      "outputs": [
        {
          "internalType": "uint256",
          "name": "",
          "type": "uint256"
        }
      ],
      "stateMutability": "view",
      "type": "function"
    },
    {
      "inputs": [],
      "name": "slope2",
      "outputs": [
        {
          "internalType": "uint256",
          "name": "",
          "type": "uint256"
        }
      ],
      "stateMutability": "view",
      "type": "function"
    }
  ],
  "bytecode": {
    "object": "0x61014060405234801561001157600080fd5b5060405161056a38038061056a83398101604081905261003091610052565b60809590955260a09390935260c09190915260e052610100526101205261009c565b60008060008060008060c0878903121561006b57600080fd5b865195506020870151945060408701519350606087015192506080870151915060a087015190509295509295509295565b60805160a05160c05160e051610100516101205161043c61012e6000396000818161018b0152610244015260008181610106015261031401526000818160a5015281816101600152818161028a015261033801526000818161012d01526101b801526000818160df015281816101e20152610268015260008181606c0152818161020301526102b4015261043c6000f3fe608060405234801561001057600080fd5b50600436106100625760003560e01c80631f68f20a1461006757806354c365c6146100a05780635592f328146100c7578063a62b75a8146100da578063a9c622f814610101578063d0134cb714610128575b600080fd5b61008e7f000000000000000000000000000000000000000000000000000000000000000081565b60405190815260200160405180910390f35b61008e7f000000000000000000000000000000000000000000000000000000000000000081565b61008e6100d53660046103a8565b61014f565b61008e7f000000000000000000000000000000000000000000000000000000000000000081565b61008e7f000000000000000000000000000000000000000000000000000000000000000081565b61008e7f000000000000000000000000000000000000000000000000000000000000000081565b60008061015c84846102de565b90507f000000000000000000000000000000000000000000000000000000000000000081111561023f576102377f00000000000000000000000000000000000000000000000000000000000000006101dd6101b68461030d565b7f00000000000000000000000000000000000000000000000000000000000000009061035d565b6102277f00000000000000000000000000000000000000000000000000000000000000007f00000000000000000000000000000000000000000000000000000000000000006103e0565b61023191906103e0565b90610379565b9150506102d8565b6102377f00000000000000000000000000000000000000000000000000000000000000006102ae7f0000000000000000000000000000000000000000000000000000000000000000847f000000000000000000000000000000000000000000000000000000000000000061038a565b610231907f00000000000000000000000000000000000000000000000000000000000000006103e0565b92915050565b6000806102eb83856103e0565b90508015610302576102fd8382610379565b610305565b60005b949350505050565b60006102d87f00000000000000000000000000000000000000000000000000000000000000006102317f0000000000000000000000000000000000000000000000000000000000000000856103f3565b60006103728383670de0b6b3a764000061038a565b9392505050565b600061037283670de0b6b3a7640000845b60008260001904841183021582026103a157600080fd5b5091020490565b600080604083850312156103bb57600080fd5b50508035926020909101359150565b634e487b7160e01b600052601160045260246000fd5b808201808211156102d8576102d86103ca565b818103818111156102d8576102d86103ca56fea264697066735822122052664772e003ecf3ff1798ab9c7f532381aa2ab8ecbf38fabd6dd5e58f94b98864736f6c63430008110033",
    "linkReferences": {}
  },
  "methodIdentifiers": {
    "MAX_EXCESS_USAGE_RATIO()": "a9c622f8",
    "OPTIMAL_USAGE_RATIO()": "54c365c6",
    "baseRate()": "1f68f20a",
    "getBorrowRatePerSecond(uint256,uint256)": "5592f328",
    "slope1()": "a62b75a8",
    "slope2()": "d0134cb7"
  },
  "id": 50
}