{
  "abi": [
    {
      "type": "constructor",
      "inputs": [],
      "stateMutability": "nonpayable"
    },
    {
      "type": "function",
      "name": "admin",
      "inputs": [],
      "outputs": [
        {
          "name": "",
          "type": "address",
          "internalType": "address"
        }
      ],
      "stateMutability": "view"
    },
    {
      "type": "function",
      "name": "getPrice",
      "inputs": [
        {
          "name": "token",
          "type": "address",
          "internalType": "address"
        },
        {
          "name": "account",
          "type": "address",
          "internalType": "address"
        }
      ],
      "outputs": [
        {
          "name": "",
          "type": "uint256",
          "internalType": "uint256"
        }
      ],
      "stateMutability": "nonpayable"
    },
    {
      "type": "function",
      "name": "oracle",
      "inputs": [
        {
          "name": "",
          "type": "address",
          "internalType": "address"
        }
      ],
      "outputs": [
        {
          "name": "",
          "type": "address",
          "internalType": "contract IOracle"
        }
      ],
      "stateMutability": "view"
    },
    {
      "type": "function",
      "name": "setOracle",
      "inputs": [
        {
          "name": "token",
          "type": "address",
          "internalType": "address"
        },
        {
          "name": "_oracle",
          "type": "address",
          "internalType": "contract IOracle"
        }
      ],
      "outputs": [],
      "stateMutability": "nonpayable"
    },
    {
      "type": "function",
      "name": "transferOwnership",
      "inputs": [
        {
          "name": "newAdmin",
          "type": "address",
          "internalType": "address"
        }
      ],
      "outputs": [],
      "stateMutability": "nonpayable"
    },
    {
      "type": "event",
      "name": "OwnershipTransferred",
      "inputs": [
        {
          "name": "previousAdmin",
          "type": "address",
          "indexed": true,
          "internalType": "address"
        },
        {
          "name": "newAdmin",
          "type": "address",
          "indexed": true,
          "internalType": "address"
        }
      ],
      "anonymous": false
    },
    {
      "type": "event",
      "name": "UpdateOracle",
      "inputs": [
        {
          "name": "token",
          "type": "address",
          "indexed": true,
          "internalType": "address"
        },
        {
          "name": "feed",
          "type": "address",
          "indexed": true,
          "internalType": "address"
        }
      ],
      "anonymous": false
    },
    {
      "type": "error",
      "name": "AdminOnly",
      "inputs": []
    },
    {
      "type": "error",
      "name": "PriceUnavailable",
      "inputs": []
    },
    {
      "type": "error",
      "name": "ZeroAddress",
      "inputs": []
    }
  ],
  "bytecode": {
    "object": "0x6080604052348015600f57600080fd5b503380602e5760405163d92e233d60e01b815260040160405180910390fd5b600080546001600160a01b039092166001600160a01b03199092169190911790556103b38061005e6000396000f3fe608060405234801561001057600080fd5b50600436106100575760003560e01c80635c38eb3a1461005c578063ac41865a14610071578063eb37d34914610097578063f2fde38b146100d8578063f851a440146100eb575b600080fd5b61006f61006a36600461030e565b6100fe565b005b61008461007f36600461030e565b610180565b6040519081526020015b60405180910390f35b6100c06100a5366004610347565b6001602052600090815260409020546001600160a01b031681565b6040516001600160a01b03909116815260200161008e565b61006f6100e6366004610347565b610249565b6000546100c0906001600160a01b031681565b6000546001600160a01b0316331461012957604051633057182d60e21b815260040160405180910390fd5b6001600160a01b0382811660008181526001602052604080822080546001600160a01b0319169486169485179055517fb1d1442dba579887e297ac433e5716c847abf2dc052ee9de4869b7b1b8f6206d9190a35050565b6001600160a01b038281166000908152600160205260408120549091166101ba5760405163cb08be8160e01b815260040160405180910390fd5b6001600160a01b0383811660008181526001602052604090819020549051635620c32d60e11b8152600481019290925284831660248301529091169063ac41865a906044016020604051808303816000875af115801561021e573d6000803e3d6000fd5b505050506040513d601f19601f820116820180604052508101906102429190610364565b9392505050565b6000546001600160a01b0316331461027457604051633057182d60e21b815260040160405180910390fd5b6001600160a01b03811661029b5760405163d92e233d60e01b815260040160405180910390fd5b600080546040516001600160a01b03808516939216917f8be0079c531659141344cd1fd0a4f28419497f9722a3daafe3b4186f6b6457e091a3600080546001600160a01b0319166001600160a01b0392909216919091179055565b6001600160a01b038116811461030b57600080fd5b50565b6000806040838503121561032157600080fd5b823561032c816102f6565b9150602083013561033c816102f6565b809150509250929050565b60006020828403121561035957600080fd5b8135610242816102f6565b60006020828403121561037657600080fd5b505191905056fea26469706673582212201dc5106fcccadffda741b4b3b5ed8547e9194847671f65a8e0ca7210b5547de464736f6c63430008190033",
    "linkReferences": {}
  },
  "methodIdentifiers": {
    "admin()": "f851a440",
    "getPrice(address,address)": "ac41865a",
    "oracle(address)": "eb37d349",
    "setOracle(address,address)": "5c38eb3a",
    "transferOwnership(address)": "f2fde38b"
  },
  "id": 25
}