{
  "abi": [
    {
      "inputs": [],
      "stateMutability": "nonpayable",
      "type": "constructor"
    },
    {
      "inputs": [],
      "name": "AdminOnly",
      "type": "error"
    },
    {
      "inputs": [],
      "name": "PriceUnavailable",
      "type": "error"
    },
    {
      "inputs": [],
      "name": "ZeroAddress",
      "type": "error"
    },
    {
      "anonymous": false,
      "inputs": [
        {
          "indexed": true,
          "internalType": "address",
          "name": "previousAdmin",
          "type": "address"
        },
        {
          "indexed": true,
          "internalType": "address",
          "name": "newAdmin",
          "type": "address"
        }
      ],
      "name": "OwnershipTransferred",
      "type": "event"
    },
    {
      "anonymous": false,
      "inputs": [
        {
          "indexed": true,
          "internalType": "address",
          "name": "token",
          "type": "address"
        },
        {
          "indexed": true,
          "internalType": "address",
          "name": "feed",
          "type": "address"
        }
      ],
      "name": "UpdateOracle",
      "type": "event"
    },
    {
      "inputs": [],
      "name": "admin",
      "outputs": [
        {
          "internalType": "address",
          "name": "",
          "type": "address"
        }
      ],
      "stateMutability": "view",
      "type": "function"
    },
    {
      "inputs": [
        {
          "internalType": "address",
          "name": "token",
          "type": "address"
        }
      ],
      "name": "getPrice",
      "outputs": [
        {
          "internalType": "uint256",
          "name": "",
          "type": "uint256"
        }
      ],
      "stateMutability": "nonpayable",
      "type": "function"
    },
    {
      "inputs": [
        {
          "internalType": "address",
          "name": "",
          "type": "address"
        }
      ],
      "name": "oracle",
      "outputs": [
        {
          "internalType": "contract IOracle",
          "name": "",
          "type": "address"
        }
      ],
      "stateMutability": "view",
      "type": "function"
    },
    {
      "inputs": [
        {
          "internalType": "address",
          "name": "token",
          "type": "address"
        },
        {
          "internalType": "contract IOracle",
          "name": "_oracle",
          "type": "address"
        }
      ],
      "name": "setOracle",
      "outputs": [],
      "stateMutability": "nonpayable",
      "type": "function"
    },
    {
      "inputs": [
        {
          "internalType": "address",
          "name": "newAdmin",
          "type": "address"
        }
      ],
      "name": "transferOwnership",
      "outputs": [],
      "stateMutability": "nonpayable",
      "type": "function"
    }
  ],
  "bytecode": {
    "object": "0x608060405234801561001057600080fd5b5033806100305760405163d92e233d60e01b815260040160405180910390fd5b600080546001600160a01b039092166001600160a01b03199092169190911790556103b1806100606000396000f3fe608060405234801561001057600080fd5b50600436106100575760003560e01c806341976e091461005c5780635c38eb3a14610082578063eb37d34914610097578063f2fde38b146100d8578063f851a440146100eb575b600080fd5b61006f61006a366004610305565b6100fe565b6040519081526020015b60405180910390f35b610095610090366004610329565b6101be565b005b6100c06100a5366004610305565b6001602052600090815260409020546001600160a01b031681565b6040516001600160a01b039091168152602001610079565b6100956100e6366004610305565b610240565b6000546100c0906001600160a01b031681565b6001600160a01b038181166000908152600160205260408120549091166101385760405163cb08be8160e01b815260040160405180910390fd5b6001600160a01b03828116600081815260016020526040908190205490516341976e0960e01b81526004810192909252909116906341976e09906024016020604051808303816000875af1158015610194573d6000803e3d6000fd5b505050506040513d601f19601f820116820180604052508101906101b89190610362565b92915050565b6000546001600160a01b031633146101e957604051633057182d60e21b815260040160405180910390fd5b6001600160a01b0382811660008181526001602052604080822080546001600160a01b0319169486169485179055517fb1d1442dba579887e297ac433e5716c847abf2dc052ee9de4869b7b1b8f6206d9190a35050565b6000546001600160a01b0316331461026b57604051633057182d60e21b815260040160405180910390fd5b6001600160a01b0381166102925760405163d92e233d60e01b815260040160405180910390fd5b600080546040516001600160a01b03808516939216917f8be0079c531659141344cd1fd0a4f28419497f9722a3daafe3b4186f6b6457e091a3600080546001600160a01b0319166001600160a01b0392909216919091179055565b6001600160a01b038116811461030257600080fd5b50565b60006020828403121561031757600080fd5b8135610322816102ed565b9392505050565b6000806040838503121561033c57600080fd5b8235610347816102ed565b91506020830135610357816102ed565b809150509250929050565b60006020828403121561037457600080fd5b505191905056fea2646970667358221220722f46270a16dcbbabe18debd90599de7bd533e4c988af2396c1ff7af0f5610864736f6c63430008110033",
    "linkReferences": {}
  },
  "methodIdentifiers": {
    "admin()": "f851a440",
    "getPrice(address)": "41976e09",
    "oracle(address)": "eb37d349",
    "setOracle(address,address)": "5c38eb3a",
    "transferOwnership(address)": "f2fde38b"
  },
  "id": 33
}