{
  "abi": [
    {
      "inputs": [
        {
          "internalType": "contract AggregatorV3Interface",
          "name": "_ethUsdPriceFeed",
          "type": "address"
        },
        {
          "internalType": "contract AggregatorV3Interface",
          "name": "_sequencer",
          "type": "address"
        }
      ],
      "stateMutability": "nonpayable",
      "type": "constructor"
    },
    {
      "inputs": [],
      "name": "AdminOnly",
      "type": "error"
    },
    {
      "inputs": [],
      "name": "IncorrectDecimals",
      "type": "error"
    },
    {
      "inputs": [],
      "name": "L2SequencerUnavailable",
      "type": "error"
    },
    {
      "inputs": [
        {
          "internalType": "address",
          "name": "token",
          "type": "address"
        },
        {
          "internalType": "address",
          "name": "feed",
          "type": "address"
        }
      ],
      "name": "NegativePrice",
      "type": "error"
    },
    {
      "inputs": [
        {
          "internalType": "address",
          "name": "token",
          "type": "address"
        },
        {
          "internalType": "address",
          "name": "feed",
          "type": "address"
        }
      ],
      "name": "StalePrice",
      "type": "error"
    },
    {
      "inputs": [],
      "name": "ZeroAddress",
      "type": "error"
    },
    {
      "anonymous": false,
      "inputs": [
        {
          "indexed": true,
          "internalType": "address",
          "name": "previousAdmin",
          "type": "address"
        },
        {
          "indexed": true,
          "internalType": "address",
          "name": "newAdmin",
          "type": "address"
        }
      ],
      "name": "OwnershipTransferred",
      "type": "event"
    },
    {
      "anonymous": false,
      "inputs": [
        {
          "indexed": true,
          "internalType": "address",
          "name": "token",
          "type": "address"
        },
        {
          "indexed": true,
          "internalType": "address",
          "name": "feed",
          "type": "address"
        }
      ],
      "name": "UpdateFeed",
      "type": "event"
    },
    {
      "inputs": [],
      "name": "GRACE_PERIOD_TIME",
      "outputs": [
        {
          "internalType": "uint256",
          "name": "",
          "type": "uint256"
        }
      ],
      "stateMutability": "view",
      "type": "function"
    },
    {
      "inputs": [],
      "name": "admin",
      "outputs": [
        {
          "internalType": "address",
          "name": "",
          "type": "address"
        }
      ],
      "stateMutability": "view",
      "type": "function"
    },
    {
      "inputs": [],
      "name": "ethUsdPriceFeed",
      "outputs": [
        {
          "internalType": "contract AggregatorV3Interface",
          "name": "",
          "type": "address"
        }
      ],
      "stateMutability": "view",
      "type": "function"
    },
    {
      "inputs": [
        {
          "internalType": "address",
          "name": "",
          "type": "address"
        }
      ],
      "name": "feed",
      "outputs": [
        {
          "internalType": "contract AggregatorV3Interface",
          "name": "",
          "type": "address"
        }
      ],
      "stateMutability": "view",
      "type": "function"
    },
    {
      "inputs": [
        {
          "internalType": "address",
          "name": "token",
          "type": "address"
        }
      ],
      "name": "getPrice",
      "outputs": [
        {
          "internalType": "uint256",
          "name": "",
          "type": "uint256"
        }
      ],
      "stateMutability": "view",
      "type": "function"
    },
    {
      "inputs": [
        {
          "internalType": "address",
          "name": "",
          "type": "address"
        }
      ],
      "name": "heartBeatOf",
      "outputs": [
        {
          "internalType": "uint256",
          "name": "",
          "type": "uint256"
        }
      ],
      "stateMutability": "view",
      "type": "function"
    },
    {
      "inputs": [],
      "name": "sequencer",
      "outputs": [
        {
          "internalType": "contract AggregatorV3Interface",
          "name": "",
          "type": "address"
        }
      ],
      "stateMutability": "view",
      "type": "function"
    },
    {
      "inputs": [
        {
          "internalType": "address",
          "name": "token",
          "type": "address"
        },
        {
          "internalType": "contract AggregatorV3Interface",
          "name": "_feed",
          "type": "address"
        },
        {
          "internalType": "uint256",
          "name": "heartBeat",
          "type": "uint256"
        }
      ],
      "name": "setFeed",
      "outputs": [],
      "stateMutability": "nonpayable",
      "type": "function"
    },
    {
      "inputs": [
        {
          "internalType": "address",
          "name": "newAdmin",
          "type": "address"
        }
      ],
      "name": "transferOwnership",
      "outputs": [],
      "stateMutability": "nonpayable",
      "type": "function"
    }
  ],
  "bytecode": {
    "object": "0x60c060405234801561001057600080fd5b506040516109c33803806109c383398101604081905261002f91610097565b81338061004f5760405163d92e233d60e01b815260040160405180910390fd5b600080546001600160a01b0319166001600160a01b039283161790559081166080521660a052506100ca565b80516001600160a01b038116811461009257600080fd5b919050565b600080604083850312156100aa57600080fd5b6100b38361007b565b91506100c16020840161007b565b90509250929050565b60805160a0516108b961010a6000396000818161010201526103ad01526000818160c3015281816105dc0152818161069601526106e901526108b96000f3fe608060405234801561001057600080fd5b50600436106100935760003560e01c80638879a182116100665780638879a18214610139578063c6a5877a14610159578063ed2f860314610182578063f2fde38b1461018b578063f851a4401461019e57600080fd5b806341976e091461009857806342f6fb29146100be5780635c1bba38146100fd57806384c8a3db14610124575b600080fd5b6100ab6100a6366004610734565b6101b1565b6040519081526020015b60405180910390f35b6100e57f000000000000000000000000000000000000000000000000000000000000000081565b6040516001600160a01b0390911681526020016100b5565b6100e57f000000000000000000000000000000000000000000000000000000000000000081565b610137610132366004610758565b6101e7565b005b6100ab610147366004610734565b60026020526000908152604090205481565b6100e5610167366004610734565b6001602052600090815260409020546001600160a01b031681565b6100ab610e1081565b610137610199366004610734565b6102f9565b6000546100e5906001600160a01b031681565b60006101bb6103a6565b6101d85760405163bbc1ae1f60e01b815260040160405180910390fd5b6101e182610467565b92915050565b6000546001600160a01b0316331461021257604051633057182d60e21b815260040160405180910390fd5b816001600160a01b031663313ce5676040518163ffffffff1660e01b8152600401602060405180830381865afa158015610250573d6000803e3d6000fd5b505050506040513d601f19601f820116820180604052508101906102749190610799565b6008146102945760405163436093a560e01b815260040160405180910390fd5b6001600160a01b03838116600081815260016020908152604080832080546001600160a01b03191695881695861790556002909152808220859055517f54b35d1859a801615e58c9f7b68f2ba5b83700942717965c02e846661a074c119190a3505050565b6000546001600160a01b0316331461032457604051633057182d60e21b815260040160405180910390fd5b6001600160a01b03811661034b5760405163d92e233d60e01b815260040160405180910390fd5b600080546040516001600160a01b03808516939216917f8be0079c531659141344cd1fd0a4f28419497f9722a3daafe3b4186f6b6457e091a3600080546001600160a01b0319166001600160a01b0392909216919091179055565b60008060007f00000000000000000000000000000000000000000000000000000000000000006001600160a01b031663feaf968c6040518163ffffffff1660e01b815260040160a060405180830381865afa158015610409573d6000803e3d6000fd5b505050506040513d601f19601f8201168201806040525081019061042d91906107d1565b50509250925050610e1081426104439190610837565b1115806104505750816001145b1561045e5760009250505090565b60019250505090565b6001600160a01b03808216600090815260016020526040808220548151633fabe5a360e21b81529151929384938493929091169163feaf968c9160048083019260a09291908290030181865afa1580156104c5573d6000803e3d6000fd5b505050506040513d601f19601f820116820180604052508101906104e991906107d1565b506001600160a01b038816600090815260026020526040902054929550935090915061051790508242610837565b10610561576001600160a01b03848116600081815260016020526040908190205490516376b51f2b60e01b8152600481019290925290911660248201526044015b60405180910390fd5b600082136105a9576001600160a01b0384811660008181526001602052604090819020549051630f84b2d360e31b815260048101929092529091166024820152604401610558565b6105b16105d5565b6105c383670de0b6b3a764000061084a565b6105cd9190610861565b949350505050565b60008060007f00000000000000000000000000000000000000000000000000000000000000006001600160a01b031663feaf968c6040518163ffffffff1660e01b815260040160a060405180830381865afa158015610638573d6000803e3d6000fd5b505050506040513d601f19601f8201168201806040525081019061065c91906107d1565b509350509250506201518081426106739190610837565b106106c3576040516376b51f2b60e01b8152600060048201526001600160a01b037f0000000000000000000000000000000000000000000000000000000000000000166024820152604401610558565b6000821361071657604051630f84b2d360e31b8152600060048201526001600160a01b037f0000000000000000000000000000000000000000000000000000000000000000166024820152604401610558565b50919050565b6001600160a01b038116811461073157600080fd5b50565b60006020828403121561074657600080fd5b81356107518161071c565b9392505050565b60008060006060848603121561076d57600080fd5b83356107788161071c565b925060208401356107888161071c565b929592945050506040919091013590565b6000602082840312156107ab57600080fd5b5051919050565b805169ffffffffffffffffffff811681146107cc57600080fd5b919050565b600080600080600060a086880312156107e957600080fd5b6107f2866107b2565b9450602086015193506040860151925060608601519150610815608087016107b2565b90509295509295909350565b634e487b7160e01b600052601160045260246000fd5b818103818111156101e1576101e1610821565b80820281158282048414176101e1576101e1610821565b60008261087e57634e487b7160e01b600052601260045260246000fd5b50049056fea26469706673582212207d52aac2e65e8d91fbb3156e102ab5d6338b284161d19d43feec93fdd207520364736f6c63430008110033",
    "linkReferences": {}
  },
  "methodIdentifiers": {
    "GRACE_PERIOD_TIME()": "ed2f8603",
    "admin()": "f851a440",
    "ethUsdPriceFeed()": "42f6fb29",
    "feed(address)": "c6a5877a",
    "getPrice(address)": "41976e09",
    "heartBeatOf(address)": "8879a182",
    "sequencer()": "5c1bba38",
    "setFeed(address,address,uint256)": "84c8a3db",
    "transferOwnership(address)": "f2fde38b"
  },
  "id": 30
}