{
  "abi": [
    {
      "inputs": [
        {
          "internalType": "contract AggregatorV3Interface",
          "name": "_ethUsdPriceFeed",
          "type": "address"
        }
      ],
      "stateMutability": "nonpayable",
      "type": "constructor"
    },
    {
      "inputs": [],
      "name": "AdminOnly",
      "type": "error"
    },
    {
      "inputs": [],
      "name": "IncorrectDecimals",
      "type": "error"
    },
    {
      "inputs": [
        {
          "internalType": "address",
          "name": "token",
          "type": "address"
        },
        {
          "internalType": "address",
          "name": "feed",
          "type": "address"
        }
      ],
      "name": "NegativePrice",
      "type": "error"
    },
    {
      "inputs": [
        {
          "internalType": "address",
          "name": "token",
          "type": "address"
        },
        {
          "internalType": "address",
          "name": "feed",
          "type": "address"
        }
      ],
      "name": "StalePrice",
      "type": "error"
    },
    {
      "inputs": [],
      "name": "ZeroAddress",
      "type": "error"
    },
    {
      "anonymous": false,
      "inputs": [
        {
          "indexed": true,
          "internalType": "address",
          "name": "previousAdmin",
          "type": "address"
        },
        {
          "indexed": true,
          "internalType": "address",
          "name": "newAdmin",
          "type": "address"
        }
      ],
      "name": "OwnershipTransferred",
      "type": "event"
    },
    {
      "anonymous": false,
      "inputs": [
        {
          "indexed": true,
          "internalType": "address",
          "name": "token",
          "type": "address"
        },
        {
          "indexed": true,
          "internalType": "address",
          "name": "feed",
          "type": "address"
        }
      ],
      "name": "UpdateFeed",
      "type": "event"
    },
    {
      "inputs": [],
      "name": "admin",
      "outputs": [
        {
          "internalType": "address",
          "name": "",
          "type": "address"
        }
      ],
      "stateMutability": "view",
      "type": "function"
    },
    {
      "inputs": [],
      "name": "ethUsdPriceFeed",
      "outputs": [
        {
          "internalType": "contract AggregatorV3Interface",
          "name": "",
          "type": "address"
        }
      ],
      "stateMutability": "view",
      "type": "function"
    },
    {
      "inputs": [
        {
          "internalType": "address",
          "name": "",
          "type": "address"
        }
      ],
      "name": "feed",
      "outputs": [
        {
          "internalType": "contract AggregatorV3Interface",
          "name": "",
          "type": "address"
        }
      ],
      "stateMutability": "view",
      "type": "function"
    },
    {
      "inputs": [
        {
          "internalType": "address",
          "name": "token",
          "type": "address"
        }
      ],
      "name": "getPrice",
      "outputs": [
        {
          "internalType": "uint256",
          "name": "",
          "type": "uint256"
        }
      ],
      "stateMutability": "view",
      "type": "function"
    },
    {
      "inputs": [
        {
          "internalType": "address",
          "name": "",
          "type": "address"
        }
      ],
      "name": "heartBeatOf",
      "outputs": [
        {
          "internalType": "uint256",
          "name": "",
          "type": "uint256"
        }
      ],
      "stateMutability": "view",
      "type": "function"
    },
    {
      "inputs": [
        {
          "internalType": "address",
          "name": "token",
          "type": "address"
        },
        {
          "internalType": "contract AggregatorV3Interface",
          "name": "_feed",
          "type": "address"
        },
        {
          "internalType": "uint256",
          "name": "heartBeat",
          "type": "uint256"
        }
      ],
      "name": "setFeed",
      "outputs": [],
      "stateMutability": "nonpayable",
      "type": "function"
    },
    {
      "inputs": [
        {
          "internalType": "address",
          "name": "newAdmin",
          "type": "address"
        }
      ],
      "name": "transferOwnership",
      "outputs": [],
      "stateMutability": "nonpayable",
      "type": "function"
    }
  ],
  "bytecode": {
    "object": "0x60a060405234801561001057600080fd5b5060405161085438038061085483398101604081905261002f91610073565b338061004e5760405163d92e233d60e01b815260040160405180910390fd5b600080546001600160a01b0319166001600160a01b03928316179055166080526100a3565b60006020828403121561008557600080fd5b81516001600160a01b038116811461009c57600080fd5b9392505050565b6080516107826100d26000396000818160ad0152818161049f0152818161055901526105ac01526107826000f3fe608060405234801561001057600080fd5b506004361061007d5760003560e01c80638879a1821161005b5780638879a182146100fc578063c6a5877a1461011c578063f2fde38b14610145578063f851a4401461015857600080fd5b806341976e091461008257806342f6fb29146100a857806384c8a3db146100e7575b600080fd5b6100956100903660046105f7565b61016b565b6040519081526020015b60405180910390f35b6100cf7f000000000000000000000000000000000000000000000000000000000000000081565b6040516001600160a01b03909116815260200161009f565b6100fa6100f536600461061b565b6102d9565b005b61009561010a3660046105f7565b60026020526000908152604090205481565b6100cf61012a3660046105f7565b6001602052600090815260409020546001600160a01b031681565b6100fa6101533660046105f7565b6103eb565b6000546100cf906001600160a01b031681565b6001600160a01b03808216600090815260016020526040808220548151633fabe5a360e21b81529151929384938493929091169163feaf968c9160048083019260a09291908290030181865afa1580156101c9573d6000803e3d6000fd5b505050506040513d601f19601f820116820180604052508101906101ed919061067b565b506001600160a01b038816600090815260026020526040902054929550935090915061021b905082426106e1565b10610265576001600160a01b03848116600081815260016020526040908190205490516376b51f2b60e01b8152600481019290925290911660248201526044015b60405180910390fd5b600082136102ad576001600160a01b0384811660008181526001602052604090819020549051630f84b2d360e31b81526004810192909252909116602482015260440161025c565b6102b5610498565b6102c783670de0b6b3a76400006106fa565b6102d19190610711565b949350505050565b6000546001600160a01b0316331461030457604051633057182d60e21b815260040160405180910390fd5b816001600160a01b031663313ce5676040518163ffffffff1660e01b8152600401602060405180830381865afa158015610342573d6000803e3d6000fd5b505050506040513d601f19601f820116820180604052508101906103669190610733565b6008146103865760405163436093a560e01b815260040160405180910390fd5b6001600160a01b03838116600081815260016020908152604080832080546001600160a01b03191695881695861790556002909152808220859055517f54b35d1859a801615e58c9f7b68f2ba5b83700942717965c02e846661a074c119190a3505050565b6000546001600160a01b0316331461041657604051633057182d60e21b815260040160405180910390fd5b6001600160a01b03811661043d5760405163d92e233d60e01b815260040160405180910390fd5b600080546040516001600160a01b03808516939216917f8be0079c531659141344cd1fd0a4f28419497f9722a3daafe3b4186f6b6457e091a3600080546001600160a01b0319166001600160a01b0392909216919091179055565b60008060007f00000000000000000000000000000000000000000000000000000000000000006001600160a01b031663feaf968c6040518163ffffffff1660e01b815260040160a060405180830381865afa1580156104fb573d6000803e3d6000fd5b505050506040513d601f19601f8201168201806040525081019061051f919061067b565b5093505092505062015180814261053691906106e1565b10610586576040516376b51f2b60e01b8152600060048201526001600160a01b037f000000000000000000000000000000000000000000000000000000000000000016602482015260440161025c565b600082136105d957604051630f84b2d360e31b8152600060048201526001600160a01b037f000000000000000000000000000000000000000000000000000000000000000016602482015260440161025c565b50919050565b6001600160a01b03811681146105f457600080fd5b50565b60006020828403121561060957600080fd5b8135610614816105df565b9392505050565b60008060006060848603121561063057600080fd5b833561063b816105df565b9250602084013561064b816105df565b929592945050506040919091013590565b805169ffffffffffffffffffff8116811461067657600080fd5b919050565b600080600080600060a0868803121561069357600080fd5b61069c8661065c565b94506020860151935060408601519250606086015191506106bf6080870161065c565b90509295509295909350565b634e487b7160e01b600052601160045260246000fd5b818103818111156106f4576106f46106cb565b92915050565b80820281158282048414176106f4576106f46106cb565b60008261072e57634e487b7160e01b600052601260045260246000fd5b500490565b60006020828403121561074557600080fd5b505191905056fea26469706673582212202f8fb8ce71e09d35ff16098a68a13d4304366ef11acf41853debd012b357f3ff64736f6c63430008110033",
    "linkReferences": {}
  },
  "methodIdentifiers": {
    "admin()": "f851a440",
    "ethUsdPriceFeed()": "42f6fb29",
    "feed(address)": "c6a5877a",
    "getPrice(address)": "41976e09",
    "heartBeatOf(address)": "8879a182",
    "setFeed(address,address,uint256)": "84c8a3db",
    "transferOwnership(address)": "f2fde38b"
  },
  "id": 31
}