{
  "abi": [
    {
      "inputs": [
        {
          "internalType": "address",
          "name": "",
          "type": "address"
        }
      ],
      "name": "getPrice",
      "outputs": [
        {
          "internalType": "uint256",
          "name": "",
          "type": "uint256"
        }
      ],
      "stateMutability": "pure",
      "type": "function"
    }
  ],
  "bytecode": {
    "object": "0x608060405234801561001057600080fd5b5060bb8061001f6000396000f3fe6080604052348015600f57600080fd5b506004361060285760003560e01c806341976e0914602d575b600080fd5b604560383660046057565b50670de0b6b3a764000090565b60405190815260200160405180910390f35b600060208284031215606857600080fd5b81356001600160a01b0381168114607e57600080fd5b939250505056fea2646970667358221220d5f9a3cb202af19cabeb872fad94abfe8679fa864f0547f10b3bcf50662c21fc64736f6c63430008110033",
    "linkReferences": {}
  },
  "methodIdentifiers": {
    "getPrice(address)": "41976e09"
  },
  "id": 39
}