{
  "abi": [
    {
      "inputs": [
        {
          "internalType": "address",
          "name": "_beacon",
          "type": "address"
        },
        {
          "internalType": "address",
          "name": "_admin",
          "type": "address"
        }
      ],
      "stateMutability": "nonpayable",
      "type": "constructor"
    },
    {
      "inputs": [],
      "name": "AdminOnly",
      "type": "error"
    },
    {
      "inputs": [],
      "name": "ZeroAddress",
      "type": "error"
    },
    {
      "anonymous": false,
      "inputs": [
        {
          "indexed": false,
          "internalType": "address",
          "name": "previousAdmin",
          "type": "address"
        },
        {
          "indexed": false,
          "internalType": "address",
          "name": "newAdmin",
          "type": "address"
        }
      ],
      "name": "AdminChanged",
      "type": "event"
    },
    {
      "anonymous": false,
      "inputs": [
        {
          "indexed": true,
          "internalType": "address",
          "name": "beacon",
          "type": "address"
        }
      ],
      "name": "BeaconUpgraded",
      "type": "event"
    },
    {
      "stateMutability": "payable",
      "type": "fallback"
    },
    {
      "inputs": [
        {
          "internalType": "address",
          "name": "newAdmin",
          "type": "address"
        }
      ],
      "name": "changeAdmin",
      "outputs": [],
      "stateMutability": "nonpayable",
      "type": "function"
    },
    {
      "inputs": [
        {
          "internalType": "address",
          "name": "beacon",
          "type": "address"
        }
      ],
      "name": "changeBeacon",
      "outputs": [],
      "stateMutability": "nonpayable",
      "type": "function"
    },
    {
      "inputs": [],
      "name": "getAdmin",
      "outputs": [
        {
          "internalType": "address",
          "name": "",
          "type": "address"
        }
      ],
      "stateMutability": "view",
      "type": "function"
    },
    {
      "inputs": [],
      "name": "getBeacon",
      "outputs": [
        {
          "internalType": "address",
          "name": "",
          "type": "address"
        }
      ],
      "stateMutability": "view",
      "type": "function"
    },
    {
      "inputs": [],
      "name": "getImplementation",
      "outputs": [
        {
          "internalType": "address",
          "name": "",
          "type": "address"
        }
      ],
      "stateMutability": "nonpayable",
      "type": "function"
    },
    {
      "stateMutability": "payable",
      "type": "receive"
    }
  ],
  "bytecode": {
    "object": "0x608060405234801561001057600080fd5b506040516106d33803806106d383398101604081905261002f916101d1565b61003881610048565b610041826100ec565b505061022b565b6001600160a01b03811661006f5760405163d92e233d60e01b815260040160405180910390fd5b7f7e644d79422f17c01e4894b5f4f588d331ebfa28653d42ae832dc59e38c9798f610098610178565b604080516001600160a01b03928316815291841660208301520160405180910390a16100e96100d660016000805160206106b3833981519152610204565b60001b826101ad60201b61028d1760201c565b50565b6001600160a01b0381166101135760405163d92e233d60e01b815260040160405180910390fd5b6101416100d660017fa3f0ad74e5423aebfd80d3ef4346578335a9a72aeaee59ff6cb3582b35133d51610204565b6040516001600160a01b038216907f1cf3b03a6cf19fa2baba4df148e9dcabedea7f8a5c07840e207e5c089be95d3e90600090a250565b60006101a861019660016000805160206106b3833981519152610204565b60001b6101b160201b6102911760201c565b905090565b9055565b5490565b80516001600160a01b03811681146101cc57600080fd5b919050565b600080604083850312156101e457600080fd5b6101ed836101b5565b91506101fb602084016101b5565b90509250929050565b8181038181111561022557634e487b7160e01b600052601160045260246000fd5b92915050565b6104798061023a6000396000f3fe60806040526004361061004e5760003560e01c80632d6b3a6b146100705780636e9960c3146100a15780638f283970146100b6578063aaf10f42146100d6578063d14823f8146100eb57610065565b366100655761006361005e61010b565b61017d565b005b61006361005e61010b565b34801561007c57600080fd5b506100856101a2565b6040516001600160a01b03909116815260200160405180910390f35b3480156100ad57600080fd5b506100856101d6565b3480156100c257600080fd5b506100636100d13660046103db565b610206565b3480156100e257600080fd5b5061008561010b565b3480156100f757600080fd5b506100636101063660046103db565b61024b565b60006101156101a2565b6001600160a01b0316635c60da1b6040518163ffffffff1660e01b81526004016020604051808303816000875af1158015610154573d6000803e3d6000fd5b505050506040513d601f19601f8201168201806040525081019061017891906103ff565b905090565b60405136600082376000803683855af43d806000843e81801561019e578184f35b8184fd5b60006101786101d260017fa3f0ad74e5423aebfd80d3ef4346578335a9a72aeaee59ff6cb3582b35133d5161041c565b5490565b60006101786101d260017fb53127684a568b3173ae13b9f8a6016e243e63b6e8ee1178d6a717850b5d610461041c565b61020e6101d6565b6001600160a01b0316336001600160a01b03161461023f57604051633057182d60e21b815260040160405180910390fd5b61024881610295565b50565b6102536101d6565b6001600160a01b0316336001600160a01b03161461028457604051633057182d60e21b815260040160405180910390fd5b6102488161033a565b9055565b5490565b6001600160a01b0381166102bc5760405163d92e233d60e01b815260040160405180910390fd5b7f7e644d79422f17c01e4894b5f4f588d331ebfa28653d42ae832dc59e38c9798f6102e56101d6565b604080516001600160a01b03928316815291841660208301520160405180910390a161024861033560017fb53127684a568b3173ae13b9f8a6016e243e63b6e8ee1178d6a717850b5d610461041c565b829055565b6001600160a01b0381166103615760405163d92e233d60e01b815260040160405180910390fd5b61038f61033560017fa3f0ad74e5423aebfd80d3ef4346578335a9a72aeaee59ff6cb3582b35133d5161041c565b6040516001600160a01b038216907f1cf3b03a6cf19fa2baba4df148e9dcabedea7f8a5c07840e207e5c089be95d3e90600090a250565b6001600160a01b038116811461024857600080fd5b6000602082840312156103ed57600080fd5b81356103f8816103c6565b9392505050565b60006020828403121561041157600080fd5b81516103f8816103c6565b8181038181111561043d57634e487b7160e01b600052601160045260246000fd5b9291505056fea2646970667358221220a18134c737354ec0b73658ad986ceb0a573d8242627579f3a951b475f41ff6ae64736f6c63430008110033b53127684a568b3173ae13b9f8a6016e243e63b6e8ee1178d6a717850b5d6104",
    "linkReferences": {}
  },
  "methodIdentifiers": {
    "changeAdmin(address)": "8f283970",
    "changeBeacon(address)": "d14823f8",
    "getAdmin()": "6e9960c3",
    "getBeacon()": "2d6b3a6b",
    "getImplementation()": "aaf10f42"
  },
  "id": 66
}