{
    "abi": [
        {
            "type": "function",
            "name": "accountFactory",
            "inputs": [],
            "outputs": [
                {
                    "name": "",
                    "type": "address",
                    "internalType": "contract IAccountFactory"
                }
            ],
            "stateMutability": "view"
        },
        {
            "type": "function",
            "name": "admin",
            "inputs": [],
            "outputs": [
                {
                    "name": "",
                    "type": "address",
                    "internalType": "address"
                }
            ],
            "stateMutability": "view"
        },
        {
            "type": "function",
            "name": "approve",
            "inputs": [
                {
                    "name": "account",
                    "type": "address",
                    "internalType": "address"
                },
                {
                    "name": "token",
                    "type": "address",
                    "internalType": "address"
                },
                {
                    "name": "spender",
                    "type": "address",
                    "internalType": "address"
                },
                {
                    "name": "amt",
                    "type": "uint256",
                    "internalType": "uint256"
                }
            ],
            "outputs": [],
            "stateMutability": "nonpayable"
        },
        {
            "type": "function",
            "name": "assetCap",
            "inputs": [],
            "outputs": [
                {
                    "name": "",
                    "type": "uint256",
                    "internalType": "uint256"
                }
            ],
            "stateMutability": "view"
        },
        {
            "type": "function",
            "name": "borrow",
            "inputs": [
                {
                    "name": "account",
                    "type": "address",
                    "internalType": "address"
                },
                {
                    "name": "token",
                    "type": "address",
                    "internalType": "address"
                },
                {
                    "name": "amt",
                    "type": "uint256",
                    "internalType": "uint256"
                }
            ],
            "outputs": [],
            "stateMutability": "nonpayable"
        },
        {
            "type": "function",
            "name": "closeAccount",
            "inputs": [
                {
                    "name": "_account",
                    "type": "address",
                    "internalType": "address"
                }
            ],
            "outputs": [],
            "stateMutability": "nonpayable"
        },
        {
            "type": "function",
            "name": "controller",
            "inputs": [],
            "outputs": [
                {
                    "name": "",
                    "type": "address",
                    "internalType": "contract IControllerFacade"
                }
            ],
            "stateMutability": "view"
        },
        {
            "type": "function",
            "name": "deposit",
            "inputs": [
                {
                    "name": "account",
                    "type": "address",
                    "internalType": "address"
                },
                {
                    "name": "token",
                    "type": "address",
                    "internalType": "address"
                },
                {
                    "name": "amt",
                    "type": "uint256",
                    "internalType": "uint256"
                }
            ],
            "outputs": [],
            "stateMutability": "nonpayable"
        },
        {
            "type": "function",
            "name": "depositEth",
            "inputs": [
                {
                    "name": "account",
                    "type": "address",
                    "internalType": "address"
                }
            ],
            "outputs": [],
            "stateMutability": "payable"
        },
        {
            "type": "function",
            "name": "exec",
            "inputs": [
                {
                    "name": "account",
                    "type": "address",
                    "internalType": "address"
                },
                {
                    "name": "target",
                    "type": "address[]",
                    "internalType": "address[]"
                },
                {
                    "name": "amt",
                    "type": "uint256",
                    "internalType": "uint256"
                },
                {
                    "name": "data",
                    "type": "bytes[]",
                    "internalType": "bytes[]"
                }
            ],
            "outputs": [],
            "stateMutability": "nonpayable"
        },
        {
            "type": "function",
            "name": "getInactiveAccountsOf",
            "inputs": [
                {
                    "name": "user",
                    "type": "address",
                    "internalType": "address"
                }
            ],
            "outputs": [
                {
                    "name": "",
                    "type": "address[]",
                    "internalType": "address[]"
                }
            ],
            "stateMutability": "view"
        },
        {
            "type": "function",
            "name": "inactiveAccountsOf",
            "inputs": [
                {
                    "name": "",
                    "type": "address",
                    "internalType": "address"
                },
                {
                    "name": "",
                    "type": "uint256",
                    "internalType": "uint256"
                }
            ],
            "outputs": [
                {
                    "name": "",
                    "type": "address",
                    "internalType": "address"
                }
            ],
            "stateMutability": "view"
        },
        {
            "type": "function",
            "name": "init",
            "inputs": [
                {
                    "name": "_registry",
                    "type": "address",
                    "internalType": "contract IRegistry"
                }
            ],
            "outputs": [],
            "stateMutability": "nonpayable"
        },
        {
            "type": "function",
            "name": "initDep",
            "inputs": [],
            "outputs": [],
            "stateMutability": "nonpayable"
        },
        {
            "type": "function",
            "name": "isCollateralAllowed",
            "inputs": [
                {
                    "name": "",
                    "type": "address",
                    "internalType": "address"
                }
            ],
            "outputs": [
                {
                    "name": "",
                    "type": "bool",
                    "internalType": "bool"
                }
            ],
            "stateMutability": "view"
        },
        {
            "type": "function",
            "name": "isValidSignature",
            "inputs": [
                {
                    "name": "signer",
                    "type": "address",
                    "internalType": "address"
                },
                {
                    "name": "hash",
                    "type": "bytes32",
                    "internalType": "bytes32"
                },
                {
                    "name": "signature",
                    "type": "bytes",
                    "internalType": "bytes"
                }
            ],
            "outputs": [
                {
                    "name": "",
                    "type": "bytes32",
                    "internalType": "bytes32"
                }
            ],
            "stateMutability": "view"
        },
        {
            "type": "function",
            "name": "liquidate",
            "inputs": [
                {
                    "name": "account",
                    "type": "address",
                    "internalType": "address"
                }
            ],
            "outputs": [],
            "stateMutability": "nonpayable"
        },
        {
            "type": "function",
            "name": "openAccount",
            "inputs": [
                {
                    "name": "owner",
                    "type": "address",
                    "internalType": "address"
                }
            ],
            "outputs": [
                {
                    "name": "",
                    "type": "address",
                    "internalType": "address"
                }
            ],
            "stateMutability": "nonpayable"
        },
        {
            "type": "function",
            "name": "paused",
            "inputs": [],
            "outputs": [
                {
                    "name": "",
                    "type": "bool",
                    "internalType": "bool"
                }
            ],
            "stateMutability": "view"
        },
        {
            "type": "function",
            "name": "registry",
            "inputs": [],
            "outputs": [
                {
                    "name": "",
                    "type": "address",
                    "internalType": "contract IRegistry"
                }
            ],
            "stateMutability": "view"
        },
        {
            "type": "function",
            "name": "repay",
            "inputs": [
                {
                    "name": "account",
                    "type": "address",
                    "internalType": "address"
                },
                {
                    "name": "token",
                    "type": "address",
                    "internalType": "address"
                },
                {
                    "name": "amt",
                    "type": "uint256",
                    "internalType": "uint256"
                }
            ],
            "outputs": [],
            "stateMutability": "nonpayable"
        },
        {
            "type": "function",
            "name": "riskEngine",
            "inputs": [],
            "outputs": [
                {
                    "name": "",
                    "type": "address",
                    "internalType": "contract IRiskEngine"
                }
            ],
            "stateMutability": "view"
        },
        {
            "type": "function",
            "name": "setAssetCap",
            "inputs": [
                {
                    "name": "cap",
                    "type": "uint256",
                    "internalType": "uint256"
                }
            ],
            "outputs": [],
            "stateMutability": "nonpayable"
        },
        {
            "type": "function",
            "name": "settle",
            "inputs": [
                {
                    "name": "account",
                    "type": "address",
                    "internalType": "address"
                }
            ],
            "outputs": [],
            "stateMutability": "nonpayable"
        },
        {
            "type": "function",
            "name": "toggleCollateralStatus",
            "inputs": [
                {
                    "name": "token",
                    "type": "address",
                    "internalType": "address"
                }
            ],
            "outputs": [],
            "stateMutability": "nonpayable"
        },
        {
            "type": "function",
            "name": "togglePause",
            "inputs": [],
            "outputs": [],
            "stateMutability": "nonpayable"
        },
        {
            "type": "function",
            "name": "transferOwnership",
            "inputs": [
                {
                    "name": "newAdmin",
                    "type": "address",
                    "internalType": "address"
                }
            ],
            "outputs": [],
            "stateMutability": "nonpayable"
        },
        {
            "type": "function",
            "name": "withdraw",
            "inputs": [
                {
                    "name": "account",
                    "type": "address",
                    "internalType": "address"
                },
                {
                    "name": "token",
                    "type": "address",
                    "internalType": "address"
                },
                {
                    "name": "amt",
                    "type": "uint256",
                    "internalType": "uint256"
                }
            ],
            "outputs": [],
            "stateMutability": "nonpayable"
        },
        {
            "type": "function",
            "name": "withdrawEth",
            "inputs": [
                {
                    "name": "account",
                    "type": "address",
                    "internalType": "address"
                },
                {
                    "name": "amt",
                    "type": "uint256",
                    "internalType": "uint256"
                }
            ],
            "outputs": [],
            "stateMutability": "nonpayable"
        },
        {
            "type": "event",
            "name": "AccountAssigned",
            "inputs": [
                {
                    "name": "account",
                    "type": "address",
                    "indexed": true,
                    "internalType": "address"
                },
                {
                    "name": "owner",
                    "type": "address",
                    "indexed": true,
                    "internalType": "address"
                }
            ],
            "anonymous": false
        },
        {
            "type": "event",
            "name": "AccountClosed",
            "inputs": [
                {
                    "name": "account",
                    "type": "address",
                    "indexed": true,
                    "internalType": "address"
                },
                {
                    "name": "owner",
                    "type": "address",
                    "indexed": true,
                    "internalType": "address"
                }
            ],
            "anonymous": false
        },
        {
            "type": "event",
            "name": "AccountLiquidated",
            "inputs": [
                {
                    "name": "account",
                    "type": "address",
                    "indexed": true,
                    "internalType": "address"
                },
                {
                    "name": "owner",
                    "type": "address",
                    "indexed": true,
                    "internalType": "address"
                }
            ],
            "anonymous": false
        },
        {
            "type": "event",
            "name": "Borrow",
            "inputs": [
                {
                    "name": "account",
                    "type": "address",
                    "indexed": true,
                    "internalType": "address"
                },
                {
                    "name": "owner",
                    "type": "address",
                    "indexed": true,
                    "internalType": "address"
                },
                {
                    "name": "token",
                    "type": "address",
                    "indexed": true,
                    "internalType": "address"
                },
                {
                    "name": "amt",
                    "type": "uint256",
                    "indexed": false,
                    "internalType": "uint256"
                }
            ],
            "anonymous": false
        },
        {
            "type": "event",
            "name": "OwnershipTransferred",
            "inputs": [
                {
                    "name": "previousAdmin",
                    "type": "address",
                    "indexed": true,
                    "internalType": "address"
                },
                {
                    "name": "newAdmin",
                    "type": "address",
                    "indexed": true,
                    "internalType": "address"
                }
            ],
            "anonymous": false
        },
        {
            "type": "event",
            "name": "PauseToggled",
            "inputs": [
                {
                    "name": "admin",
                    "type": "address",
                    "indexed": true,
                    "internalType": "address"
                },
                {
                    "name": "pause",
                    "type": "bool",
                    "indexed": false,
                    "internalType": "bool"
                }
            ],
            "anonymous": false
        },
        {
            "type": "event",
            "name": "Repay",
            "inputs": [
                {
                    "name": "account",
                    "type": "address",
                    "indexed": true,
                    "internalType": "address"
                },
                {
                    "name": "owner",
                    "type": "address",
                    "indexed": true,
                    "internalType": "address"
                },
                {
                    "name": "token",
                    "type": "address",
                    "indexed": true,
                    "internalType": "address"
                },
                {
                    "name": "amt",
                    "type": "uint256",
                    "indexed": false,
                    "internalType": "uint256"
                }
            ],
            "anonymous": false
        },
        {
            "type": "error",
            "name": "AccountDeactivationFailure",
            "inputs": []
        },
        {
            "type": "error",
            "name": "AccountInteractionFailure",
            "inputs": [
                {
                    "name": "",
                    "type": "address",
                    "internalType": "address"
                },
                {
                    "name": "",
                    "type": "address",
                    "internalType": "address"
                },
                {
                    "name": "",
                    "type": "uint256",
                    "internalType": "uint256"
                },
                {
                    "name": "",
                    "type": "bytes",
                    "internalType": "bytes"
                }
            ]
        },
        {
            "type": "error",
            "name": "AccountNotLiquidatable",
            "inputs": []
        },
        {
            "type": "error",
            "name": "AccountOwnerOnly",
            "inputs": []
        },
        {
            "type": "error",
            "name": "AdminOnly",
            "inputs": []
        },
        {
            "type": "error",
            "name": "CollateralTypeRestricted",
            "inputs": []
        },
        {
            "type": "error",
            "name": "ContractAlreadyInitialized",
            "inputs": []
        },
        {
            "type": "error",
            "name": "ContractPaused",
            "inputs": []
        },
        {
            "type": "error",
            "name": "EthTransferFailure",
            "inputs": []
        },
        {
            "type": "error",
            "name": "FunctionCallRestricted",
            "inputs": []
        },
        {
            "type": "error",
            "name": "MaxAssetCap",
            "inputs": []
        },
        {
            "type": "error",
            "name": "OutstandingDebt",
            "inputs": []
        },
        {
            "type": "error",
            "name": "RiskThresholdBreached",
            "inputs": []
        },
        {
            "type": "error",
            "name": "TokenNotContract",
            "inputs": []
        },
        {
            "type": "error",
            "name": "VTokenUnavailable",
            "inputs": []
        },
        {
            "type": "error",
            "name": "ZeroAddress",
            "inputs": []
        }
    ],
    "bytecode": {
        "object": "0x6080604052348015600f57600080fd5b506141688061001f6000396000f3fe6080604052600436106101c25760003560e01c80638c36c34c116100f7578063cb06732011610095578063f19a4b1211610064578063f19a4b1214610515578063f2fde38b14610535578063f77c479114610555578063f851a4401461057557600080fd5b8063cb06732014610485578063d9caed12146104b5578063dd336b94146104d5578063e76810e6146104f557600080fd5b8063b13ec794116100d1578063b13ec7941461040e578063bf4c30b41461042e578063c167997114610443578063c4ae31681461047057600080fd5b80638c36c34c146103bb57806392b888ae146103db578063ad9d4ba3146103fb57600080fd5b80635224372c11610164578063687cd9c11161013e578063687cd9c11461033b5780636a256b291461035b5780637b1039991461037b5780638340f5491461039b57600080fd5b80635224372c146102ca57806359eba454146102ea5780635c975abb1461030a57600080fd5b80631da649cf116101a05780631da649cf14610246578063238a4d1e146102665780632f86556814610294578063376c9cf8146102b457600080fd5b80630272f3a3146101c757806319ab453c146102045780631b9a91a414610226575b600080fd5b3480156101d357600080fd5b506101e76101e2366004613973565b610595565b6040516001600160a01b0390911681526020015b60405180910390f35b34801561021057600080fd5b5061022461021f366004613973565b6108fc565b005b34801561023257600080fd5b50610224610241366004613990565b61096a565b34801561025257600080fd5b506102246102613660046139bc565b610ae5565b34801561027257600080fd5b50610286610281366004613a6c565b610bbd565b6040519081526020016101fb565b3480156102a057600080fd5b506102246102af366004613973565b610c9c565b3480156102c057600080fd5b5061028660095481565b3480156102d657600080fd5b506102246102e53660046139bc565b610e11565b3480156102f657600080fd5b50610224610305366004613b08565b611321565b34801561031657600080fd5b5060015461032b90600160a01b900460ff1681565b60405190151581526020016101fb565b34801561034757600080fd5b506005546101e7906001600160a01b031681565b34801561036757600080fd5b50610224610376366004613973565b611404565b34801561038757600080fd5b506002546101e7906001600160a01b031681565b3480156103a757600080fd5b506102246103b63660046139bc565b61156a565b3480156103c757600080fd5b506102246103d6366004613b59565b61188c565b3480156103e757600080fd5b506003546101e7906001600160a01b031681565b610224610409366004613973565b6118c8565b34801561041a57600080fd5b506101e7610429366004613990565b6119d1565b34801561043a57600080fd5b50610224611a09565b34801561044f57600080fd5b5061046361045e366004613973565b611cb8565b6040516101fb9190613b72565b34801561047c57600080fd5b50610224611d2e565b34801561049157600080fd5b5061032b6104a0366004613973565b60086020526000908152604090205460ff1681565b3480156104c157600080fd5b506102246104d03660046139bc565b611dbf565b3480156104e157600080fd5b506102246104f0366004613973565b611fb2565b34801561050157600080fd5b50610224610510366004613c0b565b6122fd565b34801561052157600080fd5b50610224610530366004613973565b6127a9565b34801561054157600080fd5b50610224610550366004613973565b6127fd565b34801561056157600080fd5b506004546101e7906001600160a01b031681565b34801561058157600080fd5b506001546101e7906001600160a01b031681565b600080546001146105c15760405162461bcd60e51b81526004016105b890613c97565b60405180910390fd5b6002600055600154600160a01b900460ff16156105f15760405163ab35696f60e01b815260040160405180910390fd5b6001600160a01b0382166106185760405163d92e233d60e01b815260040160405180910390fd5b6001600160a01b03821660009081526007602052604081205480820361076e576005546040516313db266360e31b81523060048201526001600160a01b0390911690639ed93318906024016020604051808303816000875af1158015610682573d6000803e3d6000fd5b505050506040513d601f19601f820116820180604052508101906106a69190613cbb565b60405163066ad14f60e21b81523060048201529092506001600160a01b038316906319ab453c90602401600060405180830381600087803b1580156106ea57600080fd5b505af11580156106fe573d6000803e3d6000fd5b50506002546040516349b51b1760e01b81526001600160a01b038681166004830152888116602483015290911692506349b51b179150604401600060405180830381600087803b15801561075157600080fd5b505af1158015610765573d6000803e3d6000fd5b50505050610865565b6001600160a01b0384166000908152600760205260409020610791600183613cee565b815481106107a1576107a1613d01565b60009182526020808320909101546001600160a01b038781168452600790925260409092208054919092169350806107db576107db613d17565b600082815260209020600019908201810180546001600160a01b03191690550190556002546040516382d6ea0960e01b81526001600160a01b0384811660048301528681166024830152909116906382d6ea0990604401600060405180830381600087803b15801561084c57600080fd5b505af1158015610860573d6000803e3d6000fd5b505050505b816001600160a01b0316630f15f4c06040518163ffffffff1660e01b8152600401600060405180830381600087803b1580156108a057600080fd5b505af11580156108b4573d6000803e3d6000fd5b50506040516001600160a01b038088169350851691507fcfd71536d6c3b37f5bc42183ef1a719dec158fef9256a3cea977aa1fcf50737790600090a350600160005592915050565b600154600160a81b900460ff161561092757604051631ee1e30360e21b815260040160405180910390fd5b60016000819055805460ff60a81b1916600160a81b179055610948336128ab565b600280546001600160a01b0319166001600160a01b0392909216919091179055565b60005460011461098c5760405162461bcd60e51b81526004016105b890613c97565b600260008190555460405160016207cc7d60e11b031981526001600160a01b0380851660048301528492339291169063fff0670690602401602060405180830381865afa1580156109e1573d6000803e3d6000fd5b505050506040513d601f19601f82011682018060405250810190610a059190613cbb565b6001600160a01b031614610a2c57604051631a51c33160e21b815260040160405180910390fd5b6003546040516313bc24d960e31b81526001600160a01b038581166004830152600060248301526044820185905290911690639de126c8906064016020604051808303816000875af1158015610a86573d6000803e3d6000fd5b505050506040513d601f19601f82011682018060405250810190610aaa9190613d42565b610ac75760405163017a815760e41b815260040160405180910390fd5b610adb6001600160a01b03841633846128b7565b5050600160005550565b600054600114610b075760405162461bcd60e51b81526004016105b890613c97565b600260008190555460405160016207cc7d60e11b031981526001600160a01b0380861660048301528592339291169063fff0670690602401602060405180830381865afa158015610b5c573d6000803e3d6000fd5b505050506040513d601f19601f82011682018060405250810190610b809190613cbb565b6001600160a01b031614610ba757604051631a51c33160e21b815260040160405180910390fd5b610bb2848484612963565b505060016000555050565b60025460405160016207cc7d60e11b031981526001600160a01b038581166004830152600092839291169063fff0670690602401602060405180830381865afa158015610c0e573d6000803e3d6000fd5b505050506040513d601f19601f82011682018060405250810190610c329190613cbb565b9050600080610c418686612cd7565b5090925090506000816003811115610c5b57610c5b613d5d565b148015610c795750826001600160a01b0316826001600160a01b0316145b15610c915750630b135d3f60e11b9250610c95915050565b5050505b9392505050565b600054600114610cbe5760405162461bcd60e51b81526004016105b890613c97565b6002600055600354604051631b240c3160e11b81526001600160a01b038381166004830152909116906336481862906024016020604051808303816000875af1158015610d0f573d6000803e3d6000fd5b505050506040513d601f19601f82011682018060405250810190610d339190613d42565b15610d5057604051627616e960e61b815260040160405180910390fd5b610d5981612d24565b60025460405160016207cc7d60e11b031981526001600160a01b0383811660048301529091169063fff0670690602401602060405180830381865afa158015610da6573d6000803e3d6000fd5b505050506040513d601f19601f82011682018060405250810190610dca9190613cbb565b6001600160a01b0316816001600160a01b03167fde3f3279fe7da87a1ff3ffdc0b779506483f91465cfb3b447d86800078431ee360405160405180910390a3506001600055565b600054600114610e335760405162461bcd60e51b81526004016105b890613c97565b6002600055600154600160a01b900460ff1615610e635760405163ab35696f60e01b815260040160405180910390fd5b60025460405160016207cc7d60e11b031981526001600160a01b0380861660048301528592339291169063fff0670690602401602060405180830381865afa158015610eb3573d6000803e3d6000fd5b505050506040513d601f19601f82011682018060405250810190610ed79190613cbb565b6001600160a01b031614610efe57604051631a51c33160e21b815260040160405180910390fd5b60025460405163a94ea6ed60e01b81526001600160a01b038581166004830152600092169063a94ea6ed90602401602060405180830381865afa158015610f49573d6000803e3d6000fd5b505050506040513d601f19601f82011682018060405250810190610f6d9190613cbb565b6001600160a01b031603610f94576040516312258fc760e11b815260040160405180910390fd5b60405163a567fb4760e01b81526001600160a01b03848116600483015285169063a567fb47906024016020604051808303816000875af1158015610fdc573d6000803e3d6000fd5b505050506040513d601f19601f820116820180604052508101906110009190613d42565b15156000036110ee57600954846001600160a01b03166367e4ac2c6040518163ffffffff1660e01b8152600401600060405180830381865afa15801561104a573d6000803e3d6000fd5b505050506040513d6000823e601f3d908101601f191682016040526110729190810190613dfc565b51111561109257604051632329e14960e11b815260040160405180910390fd5b60405163298410e560e01b81526001600160a01b03848116600483015285169063298410e590602401600060405180830381600087803b1580156110d557600080fd5b505af11580156110e9573d6000803e3d6000fd5b505050505b60025460405163a94ea6ed60e01b81526001600160a01b0385811660048301529091169063a94ea6ed90602401602060405180830381865afa158015611138573d6000803e3d6000fd5b505050506040513d601f19601f8201168201806040525081019061115c9190613cbb565b6040516306ab22cf60e41b81526001600160a01b038681166004830152602482018590529190911690636ab22cf0906044016020604051808303816000875af11580156111ad573d6000803e3d6000fd5b505050506040513d601f19601f820116820180604052508101906111d19190613d42565b156112325760405163e30cbfa560e01b81526001600160a01b03848116600483015285169063e30cbfa590602401600060405180830381600087803b15801561121957600080fd5b505af115801561122d573d6000803e3d6000fd5b505050505b600354604051631b240c3160e11b81526001600160a01b038681166004830152909116906336481862906024016020604051808303816000875af115801561127e573d6000803e3d6000fd5b505050506040513d601f19601f820116820180604052508101906112a29190613d42565b6112bf5760405163017a815760e41b815260040160405180910390fd5b826001600160a01b0316336001600160a01b0316856001600160a01b03167f7752d0a9575185e5b5829ca2b99ad3129496a322603ef76773ee2ae2625018868560405161130e91815260200190565b60405180910390a4505060016000555050565b6000546001146113435760405162461bcd60e51b81526004016105b890613c97565b600260008190555460405160016207cc7d60e11b031981526001600160a01b0380871660048301528692339291169063fff0670690602401602060405180830381865afa158015611398573d6000803e3d6000fd5b505050506040513d601f19601f820116820180604052508101906113bc9190613cbb565b6001600160a01b0316146113e357604051631a51c33160e21b815260040160405180910390fd5b6113f86001600160a01b038616858585613099565b50506001600055505050565b6000546001146114265760405162461bcd60e51b81526004016105b890613c97565b600260008190555460405160016207cc7d60e11b031981526001600160a01b0380841660048301528392339291169063fff0670690602401602060405180830381865afa15801561147b573d6000803e3d6000fd5b505050506040513d601f19601f8201168201806040525081019061149f9190613cbb565b6001600160a01b0316146114c657604051631a51c33160e21b815260040160405180910390fd5b6000826001600160a01b031663eae93e7e6040518163ffffffff1660e01b8152600401600060405180830381865afa158015611506573d6000803e3d6000fd5b505050506040513d6000823e601f3d908101601f1916820160405261152e9190810190613dfc565b905060005b8151811015610bb2576115628483838151811061155257611552613d01565b6020026020010151600019612963565b600101611533565b60005460011461158c5760405162461bcd60e51b81526004016105b890613c97565b6002600055600154600160a01b900460ff16156115bc5760405163ab35696f60e01b815260040160405180910390fd5b60025460405160016207cc7d60e11b031981526001600160a01b0380861660048301528592339291169063fff0670690602401602060405180830381865afa15801561160c573d6000803e3d6000fd5b505050506040513d601f19601f820116820180604052508101906116309190613cbb565b6001600160a01b03161461165757604051631a51c33160e21b815260040160405180910390fd5b6001600160a01b03831660009081526008602052604090205460ff1661169057604051632125696360e21b815260040160405180910390fd5b60405163a567fb4760e01b81526001600160a01b03848116600483015285169063a567fb47906024016020604051808303816000875af11580156116d8573d6000803e3d6000fd5b505050506040513d601f19601f820116820180604052508101906116fc9190613d42565b15156000036117ea57600954846001600160a01b03166367e4ac2c6040518163ffffffff1660e01b8152600401600060405180830381865afa158015611746573d6000803e3d6000fd5b505050506040513d6000823e601f3d908101601f1916820160405261176e9190810190613dfc565b51111561178e57604051632329e14960e11b815260040160405180910390fd5b60405163298410e560e01b81526001600160a01b03848116600483015285169063298410e590602401600060405180830381600087803b1580156117d157600080fd5b505af11580156117e5573d6000803e3d6000fd5b505050505b6117ff6001600160a01b0384163386856131c0565b600354604051631b240c3160e11b81526001600160a01b038681166004830152909116906336481862906024016020604051808303816000875af115801561184b573d6000803e3d6000fd5b505050506040513d601f19601f8201168201806040525081019061186f9190613d42565b610bb25760405163017a815760e41b815260040160405180910390fd5b6001546001600160a01b031633146118b757604051633057182d60e21b815260040160405180910390fd5b6118c2600182613cee565b60095550565b6000546001146118ea5760405162461bcd60e51b81526004016105b890613c97565b6002600055600154600160a01b900460ff161561191a5760405163ab35696f60e01b815260040160405180910390fd5b60025460405160016207cc7d60e11b031981526001600160a01b0380841660048301528392339291169063fff0670690602401602060405180830381865afa15801561196a573d6000803e3d6000fd5b505050506040513d601f19601f8201168201806040525081019061198e9190613cbb565b6001600160a01b0316146119b557604051631a51c33160e21b815260040160405180910390fd5b6119c86001600160a01b038316346132fb565b50506001600055565b600760205281600052604060002081815481106119ed57600080fd5b6000918252602090912001546001600160a01b03169150829050565b6001546001600160a01b03163314611a3457604051633057182d60e21b815260040160405180910390fd5b60025460405163bf40fac160e01b815260206004820152600b60248201526a5249534b5f454e47494e4560a81b60448201526001600160a01b039091169063bf40fac190606401602060405180830381865afa158015611a98573d6000803e3d6000fd5b505050506040513d601f19601f82011682018060405250810190611abc9190613cbb565b600380546001600160a01b0319166001600160a01b0392831617905560025460405163bf40fac160e01b815260206004820152600a60248201526921a7a72a2927a62622a960b11b604482015291169063bf40fac190606401602060405180830381865afa158015611b32573d6000803e3d6000fd5b505050506040513d601f19601f82011682018060405250810190611b569190613cbb565b600480546001600160a01b039283166001600160a01b031990911617815560025460405163bf40fac160e01b815292169163bf40fac191611bbb91016020808252600f908201526e4143434f554e545f464143544f525960881b604082015260600190565b602060405180830381865afa158015611bd8573d6000803e3d6000fd5b505050506040513d601f19601f82011682018060405250810190611bfc9190613cbb565b600580546001600160a01b0319166001600160a01b0392831617905560025460405163bf40fac160e01b815260206004820152600a6024820152692a3930b1b5aa37b5b2b760b11b604482015291169063bf40fac190606401602060405180830381865afa158015611c72573d6000803e3d6000fd5b505050506040513d601f19601f82011682018060405250810190611c969190613cbb565b600680546001600160a01b0319166001600160a01b0392909216919091179055565b6001600160a01b038116600090815260076020908152604091829020805483518184028101840190945280845260609392830182828015611d2257602002820191906000526020600020905b81546001600160a01b03168152600190910190602001808311611d04575b50505050509050919050565b6001546001600160a01b03163314611d5957604051633057182d60e21b815260040160405180910390fd5b6001805460ff600160a01b808304821615810260ff60a01b19909316929092179283905560405133937f79a5bc58b021076f821571d0fe8b0ae3d9e0a666563bb064fdbf0bf69281331c93611db5939104161515815260200190565b60405180910390a2565b600054600114611de15760405162461bcd60e51b81526004016105b890613c97565b600260008190555460405160016207cc7d60e11b031981526001600160a01b0380861660048301528592339291169063fff0670690602401602060405180830381865afa158015611e36573d6000803e3d6000fd5b505050506040513d601f19601f82011682018060405250810190611e5a9190613cbb565b6001600160a01b031614611e8157604051631a51c33160e21b815260040160405180910390fd5b6003546040516313bc24d960e31b81526001600160a01b03868116600483015285811660248301526044820185905290911690639de126c8906064016020604051808303816000875af1158015611edc573d6000803e3d6000fd5b505050506040513d601f19601f82011682018060405250810190611f009190613d42565b611f1d5760405163017a815760e41b815260040160405180910390fd5b611f326001600160a01b03851633858561338e565b611f456001600160a01b038416856134d6565b600003610bb257604051634a5e42b160e01b81526001600160a01b038481166004830152851690634a5e42b190602401600060405180830381600087803b158015611f8f57600080fd5b505af1158015611fa3573d6000803e3d6000fd5b50505050505060016000555050565b600054600114611fd45760405162461bcd60e51b81526004016105b890613c97565b600260008190555460405160016207cc7d60e11b031981526001600160a01b0380841660048301528392339291169063fff0670690602401602060405180830381865afa158015612029573d6000803e3d6000fd5b505050506040513d601f19601f8201168201806040525081019061204d9190613cbb565b6001600160a01b03161461207457604051631a51c33160e21b815260040160405180910390fd5b600082905043816001600160a01b03166380faa3d26040518163ffffffff1660e01b8152600401602060405180830381865afa1580156120b8573d6000803e3d6000fd5b505050506040513d601f19601f820116820180604052508101906120dc9190613e39565b036120fa5760405163cfe4f11760e01b815260040160405180910390fd5b806001600160a01b0316635205c9b66040518163ffffffff1660e01b8152600401602060405180830381865afa158015612138573d6000803e3d6000fd5b505050506040513d601f19601f8201168201806040525081019061215c9190613d42565b61217957604051631d2197fd60e31b815260040160405180910390fd5b806001600160a01b03166351b42b006040518163ffffffff1660e01b8152600401600060405180830381600087803b1580156121b457600080fd5b505af11580156121c8573d6000803e3d6000fd5b505060025460405163374cdae560e21b81526001600160a01b038781166004830152909116925063dd336b949150602401600060405180830381600087803b15801561221357600080fd5b505af1158015612227573d6000803e3d6000fd5b50503360008181526007602090815260408083208054600181018255908452919092200180546001600160a01b0319166001600160a01b038981169190911790915590516301977ee560e71b815260048101929092528416925063cbbf72809150602401600060405180830381600087803b1580156122a557600080fd5b505af11580156122b9573d6000803e3d6000fd5b50506040513392506001600160a01b03861691507fe669044e83e51fb3883c065740bec312de375c92654b381a093018bcd1a796e490600090a35050600160005550565b60005460011461231f5760405162461bcd60e51b81526004016105b890613c97565b600260008190555460405160016207cc7d60e11b031981526001600160a01b0380891660048301528892339291169063fff0670690602401602060405180830381865afa158015612374573d6000803e3d6000fd5b505050506040513d601f19601f820116820180604052508101906123989190613cbb565b6001600160a01b0316146123bf57604051631a51c33160e21b815260040160405180910390fd5b84821461240e5760405162461bcd60e51b815260206004820181905260248201527f5461726765747320616e642064617461206c656e677468206d69736d6174636860448201526064016105b8565b600060608060005b8881101561279757600087878381811061243257612432613d01565b90506020028101906124449190613e52565b61244d91613e99565b905063494e493d60e01b6001600160e01b03198216016124c7576006546040516335313c2160e11b81526001600160a01b038e8116600483015290911690636a62784290602401600060405180830381600087803b1580156124ae57600080fd5b505af11580156124c2573d6000803e3d6000fd5b505050505b6004546001600160a01b0316633414d0998c8c858181106124ea576124ea613d01565b90506020020160208101906124ff9190613973565b60008c118b8b8781811061251557612515613d01565b90506020028101906125279190613e52565b6040518563ffffffff1660e01b81526004016125469493929190613ef2565b600060405180830381865afa158015612563573d6000803e3d6000fd5b505050506040513d6000823e601f3d908101601f1916820160405261258b9190810190613f29565b91965094509250846125af57604051623bc65d60e91b815260040160405180910390fd5b60008c6001600160a01b0316630565bb678d8d868181106125d2576125d2613d01565b90506020020160208101906125e79190613973565b8c8c8c888181106125fa576125fa613d01565b905060200281019061260c9190613e52565b6040518563ffffffff1660e01b815260040161262b9493929190613f9d565b6000604051808303816000875af115801561264a573d6000803e3d6000fd5b505050506040513d6000823e601f3d908101601f191682016040526126729190810190613fe9565b509050806126e5578c8c8c8581811061268d5761268d613d01565b90506020020160208101906126a29190613973565b8b8b8b878181106126b5576126b5613d01565b90506020028101906126c79190613e52565b60405163ca4ea6f960e01b81526004016105b8959493929190614073565b6126ef8d8661354d565b6126f98d856136cb565b6009546127079060016140a7565b8d6001600160a01b03166367e4ac2c6040518163ffffffff1660e01b8152600401600060405180830381865afa158015612745573d6000803e3d6000fd5b505050506040513d6000823e601f3d908101601f1916820160405261276d9190810190613dfc565b51111561278d57604051632329e14960e11b815260040160405180910390fd5b5050600101612416565b50506001600055505050505050505050565b6001546001600160a01b031633146127d457604051633057182d60e21b815260040160405180910390fd5b6001600160a01b03166000908152600860205260409020805460ff19811660ff90911615179055565b6001546001600160a01b0316331461282857604051633057182d60e21b815260040160405180910390fd5b6001600160a01b03811661284f5760405163d92e233d60e01b815260040160405180910390fd5b6001546040516001600160a01b038084169216907f8be0079c531659141344cd1fd0a4f28419497f9722a3daafe3b4186f6b6457e090600090a3600180546001600160a01b0319166001600160a01b0392909216919091179055565b6128b481613846565b50565b6040805160008082526020820192839052630565bb6760e01b9092526001600160a01b03851690630565bb67906128f59086908690602481016140e6565b6000604051808303816000875af1158015612914573d6000803e3d6000fd5b505050506040513d6000823e601f3d908101601f1916820160405261293c9190810190613fe9565b5090508061295d5760405163af2349ad60e01b815260040160405180910390fd5b50505050565b60025460405163a94ea6ed60e01b81526001600160a01b038481166004830152600092169063a94ea6ed90602401602060405180830381865afa1580156129ae573d6000803e3d6000fd5b505050506040513d601f19601f820116820180604052508101906129d29190613cbb565b90506001600160a01b0381166129fb576040516312258fc760e11b815260040160405180910390fd5b806001600160a01b0316631d8557d76040518163ffffffff1660e01b8152600401600060405180830381600087803b158015612a3657600080fd5b505af1158015612a4a573d6000803e3d6000fd5b505050506000198203612ac457604051637d6af07960e01b81526001600160a01b038581166004830152821690637d6af07990602401602060405180830381865afa158015612a9d573d6000803e3d6000fd5b505050506040513d601f19601f82011682018060405250810190612ac19190613e39565b91505b612ad96001600160a01b03851682858561338e565b604051635fcc1b5360e11b81526001600160a01b0385811660048301526024820184905282169063bf9836a6906044016020604051808303816000875af1158015612b28573d6000803e3d6000fd5b505050506040513d601f19601f82011682018060405250810190612b4c9190613d42565b15612bad576040516364c1713d60e11b81526001600160a01b03848116600483015285169063c982e27a90602401600060405180830381600087803b158015612b9457600080fd5b505af1158015612ba8573d6000803e3d6000fd5b505050505b6040516370a0823160e01b81526001600160a01b0385811660048301528416906370a0823190602401602060405180830381865afa158015612bf3573d6000803e3d6000fd5b505050506040513d601f19601f82011682018060405250810190612c179190613e39565b600003612c7a57604051634a5e42b160e01b81526001600160a01b038481166004830152851690634a5e42b190602401600060405180830381600087803b158015612c6157600080fd5b505af1158015612c75573d6000803e3d6000fd5b505050505b826001600160a01b0316336001600160a01b0316856001600160a01b03167f4cdde6e09bb755c9a5589ebaec640bbfedff1362d4b255ebf8339782b9942faa85604051612cc991815260200190565b60405180910390a450505050565b60008060008351604103612d115760208401516040850151606086015160001a612d038882858561388f565b955095509550505050612d1d565b50508151600091506002905b9250925092565b60008190506000816001600160a01b031663eae93e7e6040518163ffffffff1660e01b8152600401600060405180830381865afa158015612d69573d6000803e3d6000fd5b505050506040513d6000823e601f3d908101601f19168201604052612d919190810190613dfc565b8051909150600080805b83811015613037576000858281518110612db757612db7613d01565b602090810291909101015160025460405163a94ea6ed60e01b81526001600160a01b03808416600483015292935091169063a94ea6ed90602401602060405180830381865afa158015612e0e573d6000803e3d6000fd5b505050506040513d601f19601f82011682018060405250810190612e329190613cbb565b9350836001600160a01b0316631d8557d76040518163ffffffff1660e01b8152600401600060405180830381600087803b158015612e6f57600080fd5b505af1158015612e83573d6000803e3d6000fd5b5050604051637d6af07960e01b81526001600160a01b038b8116600483015287169250637d6af0799150602401602060405180830381865afa158015612ecd573d6000803e3d6000fd5b505050506040513d601f19601f82011682018060405250810190612ef19190613e39565b9250612f086001600160a01b0382163386866131c0565b604051635fcc1b5360e11b81526001600160a01b0389811660048301526024820185905285169063bf9836a6906044016020604051808303816000875af1158015612f57573d6000803e3d6000fd5b505050506040513d601f19601f82011682018060405250810190612f7b9190613d42565b506040516364c1713d60e11b81526001600160a01b03828116600483015288169063c982e27a90602401600060405180830381600087803b158015612fbf57600080fd5b505af1158015612fd3573d6000803e3d6000fd5b50505050806001600160a01b0316336001600160a01b0316896001600160a01b03167f4cdde6e09bb755c9a5589ebaec640bbfedff1362d4b255ebf8339782b9942faa8660405161302691815260200190565b60405180910390a450600101612d9b565b506040516301977ee560e71b81523360048201526001600160a01b0386169063cbbf728090602401600060405180830381600087803b15801561307957600080fd5b505af115801561308d573d6000803e3d6000fd5b50505050505050505050565b604080516001600160a01b038481166024830152604480830185905283518084039091018152606490920183526020820180516001600160e01b031663095ea7b360e01b1790529151630565bb6760e01b8152600092839290881691630565bb679161310b91899186916004016140e6565b6000604051808303816000875af115801561312a573d6000803e3d6000fd5b505050506040513d6000823e601f3d908101601f191682016040526131529190810190613fe9565b9150915081801561317b57508051158061317b57508080602001905181019061317b9190613d42565b6131b85760405162461bcd60e51b815260206004820152600e60248201526d1054141493d59157d1905253115160921b60448201526064016105b8565b505050505050565b6001600160a01b0384163b6131e857604051630fea47fd60e31b815260040160405180910390fd5b604080516001600160a01b0385811660248301528481166044830152606480830185905283518084039091018152608490920183526020820180516001600160e01b03166323b872dd60e01b179052915160009283929088169161324c9190614116565b6000604051808303816000865af19150503d8060008114613289576040519150601f19603f3d011682016040523d82523d6000602084013e61328e565b606091505b50915091508180156132b85750805115806132b85750808060200190518101906132b89190613d42565b6131b85760405162461bcd60e51b81526020600482015260146024820152731514905394d1915497d19493d357d1905253115160621b60448201526064016105b8565b604080516000808252602082019092526001600160a01b0384169083906040516133259190614116565b60006040518083038185875af1925050503d8060008114613362576040519150601f19603f3d011682016040523d82523d6000602084013e613367565b606091505b50509050806133895760405163af2349ad60e01b815260040160405180910390fd5b505050565b6001600160a01b0382163b6133b657604051630fea47fd60e31b815260040160405180910390fd5b604080516001600160a01b038581166024830152604480830185905283518084039091018152606490920183526020820180516001600160e01b031663a9059cbb60e01b1790529151630565bb6760e01b8152600092839290881691630565bb679161342891889186916004016140e6565b6000604051808303816000875af1158015613447573d6000803e3d6000fd5b505050506040513d6000823e601f3d908101601f1916820160405261346f9190810190613fe9565b915091508180156134985750805115806134985750808060200190518101906134989190613d42565b6131b85760405162461bcd60e51b815260206004820152600f60248201526e1514905394d1915497d19052531151608a1b60448201526064016105b8565b6040516370a0823160e01b81526001600160a01b038281166004830152600091908416906370a0823190602401602060405180830381865afa158015613520573d6000803e3d6000fd5b505050506040513d601f19601f820116820180604052508101906135449190613e39565b90505b92915050565b805160005b8181101561295d57600083828151811061356e5761356e613d01565b602090810291909101015160405163a567fb4760e01b81526001600160a01b0380831660048301529192509086169063a567fb47906024016020604051808303816000875af11580156135c5573d6000803e3d6000fd5b505050506040513d601f19601f820116820180604052508101906135e99190613d42565b15801561366157506040516370a0823160e01b81526001600160a01b038681166004830152600091908316906370a0823190602401602060405180830381865afa15801561363b573d6000803e3d6000fd5b505050506040513d601f19601f8201168201806040525081019061365f9190613e39565b115b156136c25760405163298410e560e01b81526001600160a01b03828116600483015286169063298410e590602401600060405180830381600087803b1580156136a957600080fd5b505af11580156136bd573d6000803e3d6000fd5b505050505b50600101613552565b805160005b8181101561295d57836001600160a01b031663a567fb478483815181106136f9576136f9613d01565b60200260200101516040518263ffffffff1660e01b815260040161372c91906001600160a01b0391909116815260200190565b6020604051808303816000875af115801561374b573d6000803e3d6000fd5b505050506040513d601f19601f8201168201806040525081019061376f9190613d42565b151560011480156137b257506137b08484838151811061379157613791613d01565b60200260200101516001600160a01b03166134d690919063ffffffff16565b155b1561383e57836001600160a01b0316634a5e42b18483815181106137d8576137d8613d01565b60200260200101516040518263ffffffff1660e01b815260040161380b91906001600160a01b0391909116815260200190565b600060405180830381600087803b15801561382557600080fd5b505af1158015613839573d6000803e3d6000fd5b505050505b6001016136d0565b6001600160a01b03811661386d5760405163d92e233d60e01b815260040160405180910390fd5b600180546001600160a01b0319166001600160a01b0392909216919091179055565b600080807f7fffffffffffffffffffffffffffffff5d576e7357a4501ddfe92f46681b20a08411156138ca5750600091506003905082613954565b604080516000808252602082018084528a905260ff891692820192909252606081018790526080810186905260019060a0016020604051602081039080840390855afa15801561391e573d6000803e3d6000fd5b5050604051601f1901519150506001600160a01b03811661394a57506000925060019150829050613954565b9250600091508190505b9450945094915050565b6001600160a01b03811681146128b457600080fd5b60006020828403121561398557600080fd5b8135610c958161395e565b600080604083850312156139a357600080fd5b82356139ae8161395e565b946020939093013593505050565b6000806000606084860312156139d157600080fd5b83356139dc8161395e565b925060208401356139ec8161395e565b929592945050506040919091013590565b634e487b7160e01b600052604160045260246000fd5b604051601f8201601f1916810167ffffffffffffffff81118282101715613a3c57613a3c6139fd565b604052919050565b600067ffffffffffffffff821115613a5e57613a5e6139fd565b50601f01601f191660200190565b600080600060608486031215613a8157600080fd5b8335613a8c8161395e565b925060208401359150604084013567ffffffffffffffff811115613aaf57600080fd5b8401601f81018613613ac057600080fd5b8035613ad3613ace82613a44565b613a13565b818152876020838501011115613ae857600080fd5b816020840160208301376000602083830101528093505050509250925092565b60008060008060808587031215613b1e57600080fd5b8435613b298161395e565b93506020850135613b398161395e565b92506040850135613b498161395e565b9396929550929360600135925050565b600060208284031215613b6b57600080fd5b5035919050565b6020808252825182820181905260009190848201906040850190845b81811015613bb35783516001600160a01b031683529284019291840191600101613b8e565b50909695505050505050565b60008083601f840112613bd157600080fd5b50813567ffffffffffffffff811115613be957600080fd5b6020830191508360208260051b8501011115613c0457600080fd5b9250929050565b60008060008060008060808789031215613c2457600080fd5b8635613c2f8161395e565b9550602087013567ffffffffffffffff80821115613c4c57600080fd5b613c588a838b01613bbf565b9097509550604089013594506060890135915080821115613c7857600080fd5b50613c8589828a01613bbf565b979a9699509497509295939492505050565b6020808252600a90820152695245454e5452414e435960b01b604082015260600190565b600060208284031215613ccd57600080fd5b8151610c958161395e565b634e487b7160e01b600052601160045260246000fd5b8181038181111561354757613547613cd8565b634e487b7160e01b600052603260045260246000fd5b634e487b7160e01b600052603160045260246000fd5b80518015158114613d3d57600080fd5b919050565b600060208284031215613d5457600080fd5b61354482613d2d565b634e487b7160e01b600052602160045260246000fd5b600082601f830112613d8457600080fd5b8151602067ffffffffffffffff821115613da057613da06139fd565b8160051b613daf828201613a13565b9283528481018201928281019087851115613dc957600080fd5b83870192505b84831015613df1578251613de28161395e565b82529183019190830190613dcf565b979650505050505050565b600060208284031215613e0e57600080fd5b815167ffffffffffffffff811115613e2557600080fd5b613e3184828501613d73565b949350505050565b600060208284031215613e4b57600080fd5b5051919050565b6000808335601e19843603018112613e6957600080fd5b83018035915067ffffffffffffffff821115613e8457600080fd5b602001915036819003821315613c0457600080fd5b6001600160e01b03198135818116916004851015613ec15780818660040360031b1b83161692505b505092915050565b81835281816020850137506000828201602090810191909152601f909101601f19169091010190565b6001600160a01b03851681528315156020820152606060408201819052600090613f1f9083018486613ec9565b9695505050505050565b600080600060608486031215613f3e57600080fd5b613f4784613d2d565b9250602084015167ffffffffffffffff80821115613f6457600080fd5b613f7087838801613d73565b93506040860151915080821115613f8657600080fd5b50613f9386828701613d73565b9150509250925092565b60018060a01b0385168152836020820152606060408201526000613f1f606083018486613ec9565b60005b83811015613fe0578181015183820152602001613fc8565b50506000910152565b60008060408385031215613ffc57600080fd5b61400583613d2d565b9150602083015167ffffffffffffffff81111561402157600080fd5b8301601f8101851361403257600080fd5b8051614040613ace82613a44565b81815286602083850101111561405557600080fd5b614066826020830160208601613fc5565b8093505050509250929050565b6001600160a01b0386811682528516602082015260408101849052608060608201819052600090613df19083018486613ec9565b8082018082111561354757613547613cd8565b600081518084526140d2816020860160208601613fc5565b601f01601f19169290920160200192915050565b60018060a01b038416815282602082015260606040820152600061410d60608301846140ba565b95945050505050565b60008251614128818460208701613fc5565b919091019291505056fea264697066735822122098f0d1b6c451902d375e3a8d987e598e9f27987a357874e345379842ac877d7864736f6c63430008190033",
        "linkReferences": {}
    },
    "methodIdentifiers": {
        "accountFactory()": "687cd9c1",
        "admin()": "f851a440",
        "approve(address,address,address,uint256)": "59eba454",
        "assetCap()": "376c9cf8",
        "borrow(address,address,uint256)": "5224372c",
        "closeAccount(address)": "dd336b94",
        "controller()": "f77c4791",
        "deposit(address,address,uint256)": "8340f549",
        "depositEth(address)": "ad9d4ba3",
        "exec(address,address[],uint256,bytes[])": "e76810e6",
        "getInactiveAccountsOf(address)": "c1679971",
        "inactiveAccountsOf(address,uint256)": "b13ec794",
        "init(address)": "19ab453c",
        "initDep()": "bf4c30b4",
        "isCollateralAllowed(address)": "cb067320",
        "isValidSignature(address,bytes32,bytes)": "238a4d1e",
        "liquidate(address)": "2f865568",
        "openAccount(address)": "0272f3a3",
        "paused()": "5c975abb",
        "registry()": "7b103999",
        "repay(address,address,uint256)": "1da649cf",
        "riskEngine()": "92b888ae",
        "setAssetCap(uint256)": "8c36c34c",
        "settle(address)": "6a256b29",
        "toggleCollateralStatus(address)": "f19a4b12",
        "togglePause()": "c4ae3168",
        "transferOwnership(address)": "f2fde38b",
        "withdraw(address,address,uint256)": "d9caed12",
        "withdrawEth(address,uint256)": "1b9a91a4"
    },
    "id": 75
}