{
  "abi": [
    {
      "inputs": [
        {
          "internalType": "contract IControllerFacade",
          "name": "_controllerFacade",
          "type": "address"
        }
      ],
      "stateMutability": "nonpayable",
      "type": "constructor"
    },
    {
      "inputs": [
        {
          "internalType": "address",
          "name": "",
          "type": "address"
        },
        {
          "internalType": "bool",
          "name": "useEth",
          "type": "bool"
        },
        {
          "internalType": "bytes",
          "name": "data",
          "type": "bytes"
        }
      ],
      "name": "canCall",
      "outputs": [
        {
          "internalType": "bool",
          "name": "",
          "type": "bool"
        },
        {
          "internalType": "address[]",
          "name": "",
          "type": "address[]"
        },
        {
          "internalType": "address[]",
          "name": "",
          "type": "address[]"
        }
      ],
      "stateMutability": "view",
      "type": "function"
    },
    {
      "inputs": [],
      "name": "controllerFacade",
      "outputs": [
        {
          "internalType": "contract IControllerFacade",
          "name": "",
          "type": "address"
        }
      ],
      "stateMutability": "view",
      "type": "function"
    }
  ],
  "bytecode": {
    "object": "0x60a060405234801561001057600080fd5b5060405161182b38038061182b83398101604081905261002f91610040565b6001600160a01b0316608052610070565b60006020828403121561005257600080fd5b81516001600160a01b038116811461006957600080fd5b9392505050565b60805161177e6100ad60003960008181606b015281816103bd015281816104f9015281816106270152818161083801526109d1015261177e6000f3fe608060405234801561001057600080fd5b50600436106100365760003560e01c80633414d0991461003b57806393bf73d914610066575b600080fd5b61004e61004936600461104e565b6100a5565b60405161005d93929190611124565b60405180910390f35b61008d7f000000000000000000000000000000000000000000000000000000000000000081565b6040516001600160a01b03909116815260200161005d565b6000606080826100b5858761115b565b9050630a6d35e560e31b6001600160e01b03198216016100f1576100e56100df866004818a61118b565b896101ce565b935093509350506101c4565b63afdc4b2160e01b6001600160e01b031982160161011e576100e5610119866004818a61118b565b6102f0565b63fb1ba55160e01b6001600160e01b031982160161014c576100e5610146866004818a61118b565b89610481565b637b23f65d60e11b6001600160e01b0319821601610179576100e5610174866004818a61118b565b6106e9565b6347a7e7c160e01b6001600160e01b03198216016101a7576100e56101a1866004818a61118b565b896107aa565b505060408051600080825260208201818152828401909352935091505b9450945094915050565b6000606080826101e0868801886112c6565b905060028151111561020d57505060408051600080825260208201818152828401909352935091506102e7565b60008160008151811061022257610222611389565b60200260200101516102339061139f565b905063afdc4b2160e01b6001600160e01b03198216016102645761025782876108bb565b94509450945050506102e7565b63fb1ba55160e01b6001600160e01b03198216016102855761025782610b73565b6347a7e7c160e01b6001600160e01b03198216016102a65761025782610ca6565b637b23f65d60e11b6001600160e01b03198216016102c8576102578287610d65565b5050604080516000808252602082018181528284019093529450925090505b93509350939050565b60006060808261030285870187611478565b6040805160018082528183019092529192506000919060208083019080368337505060408051600180825281830190925292935060009291506020808301908036833701905050905082602001518260008151811061036357610363611389565b60200260200101906001600160a01b031690816001600160a01b03168152505082600001518160008151811061039b5761039b611389565b60200260200101906001600160a01b031690816001600160a01b0316815250507f00000000000000000000000000000000000000000000000000000000000000006001600160a01b031663f9eaee0d836000815181106103fd576103fd611389565b60200260200101516040518263ffffffff1660e01b815260040161043091906001600160a01b0391909116815260200190565b602060405180830381865afa15801561044d573d6000803e3d6000fd5b505050506040513d601f19601f82011682018060405250810190610471919061149b565b95509093509150505b9250925092565b60006060808261049386880188611478565b60408051600180825281830190925291925060009190602080830190803683370190505090508160200151816000815181106104d1576104d1611389565b60200260200101906001600160a01b031690816001600160a01b03168152505085156105cb577f00000000000000000000000000000000000000000000000000000000000000006001600160a01b031663f9eaee0d8260008151811061053957610539611389565b60200260200101516040518263ffffffff1660e01b815260040161056c91906001600160a01b0391909116815260200190565b602060405180830381865afa158015610589573d6000803e3d6000fd5b505050506040513d601f19601f820116820180604052508101906105ad919061149b565b60408051600081526020810190915290955090935091506102e79050565b6040805160018082528183019092526000916020808301908036833701905050905082600001518160008151811061060557610605611389565b60200260200101906001600160a01b031690816001600160a01b0316815250507f00000000000000000000000000000000000000000000000000000000000000006001600160a01b031663f9eaee0d8360008151811061066757610667611389565b60200260200101516040518263ffffffff1660e01b815260040161069a91906001600160a01b0391909116815260200190565b602060405180830381865afa1580156106b7573d6000803e3d6000fd5b505050506040513d601f19601f820116820180604052508101906106db919061149b565b999198509650945050505050565b6000606080826106fb85870187611529565b60408051600180825281830190925291925060009190602080830190803683375050604080516001808252818301909252929350600092915060208083019080368337505084515191925061075f91610757915060149061157c565b845190610eab565b8160008151811061077257610772611389565b6001600160a01b03909216602092830291909101909101528251610797906000610eab565b8260008151811061039b5761039b611389565b6000606080826107bc86880188611529565b604080516001808252818301909252919250600091906020808301908036833750508351519192506107fd916107f5915060149061157c565b835190610eab565b8160008151811061081057610810611389565b60200260200101906001600160a01b031690816001600160a01b0316815250508515610878577f00000000000000000000000000000000000000000000000000000000000000006001600160a01b031663f9eaee0d8260008151811061053957610539611389565b604080516001808252818301909252600091602080830190803683370190505083519091506108a8906000610eab565b8160008151811061060557610605611389565b60006060806000610918600480886000815181106108db576108db611389565b6020026020010151516108ee919061157c565b8860008151811061090157610901611389565b6020026020010151610f1b9092919063ffffffff16565b80602001905181019061092b9190611625565b905084801561097057508551630910874560e11b908790600190811061095357610953611389565b60200260200101516109649061139f565b6001600160e01b031916145b15610aa357604080516001808252818301909252600091602080830190803683370190505090508160200151816000815181106109af576109af611389565b60200260200101906001600160a01b031690816001600160a01b0316815250507f00000000000000000000000000000000000000000000000000000000000000006001600160a01b031663f9eaee0d82600081518110610a1157610a11611389565b60200260200101516040518263ffffffff1660e01b8152600401610a4491906001600160a01b0391909116815260200190565b602060405180830381865afa158015610a61573d6000803e3d6000fd5b505050506040513d601f19601f82011682018060405250810190610a85919061149b565b604080516000815260208101909152909550909350915061047a9050565b855163125012df60e21b9087906001908110610ac157610ac1611389565b6020026020010151610ad29061139f565b6001600160e01b03191603610b4f5760408051600180825281830190925260009160208083019080368337019050509050816000015181600081518110610b1b57610b1b611389565b6001600160a01b039290921660209283029190910182015260408051600081529182019052600195509350915061047a9050565b50506040805160008082526020820181815282840190935296909550909350915050565b60006060806349404b7c60e01b6001600160e01b03191684600181518110610b9d57610b9d611389565b6020026020010151610bae9061139f565b6001600160e01b03191603610c83576000610bfe60048087600081518110610bd857610bd8611389565b602002602001015151610beb919061157c565b8760008151811061090157610901611389565b806020019051810190610c119190611625565b6040805160018082528183019092529192506000919060208083019080368337019050509050816000015181600081518110610c4f57610c4f611389565b6001600160a01b0392909216602092830291909101820152604080516000815291820190526001955093509150610c9f9050565b5050604080516000808252602082018181528284019093529250905b9193909250565b60006060806349404b7c60e01b6001600160e01b03191684600181518110610cd057610cd0611389565b6020026020010151610ce19061139f565b6001600160e01b03191603610c83576000610d0b60048087600081518110610bd857610bd8611389565b806020019051810190610d1e9190611700565b6040805160018082528183019092529192506000919060208083019080368337019050508251909150610d52906000610eab565b81600081518110610c4f57610c4f611389565b60006060806000610d85600480886000815181106108db576108db611389565b806020019051810190610d989190611700565b9050848015610ddd57508551630910874560e11b9087906001908110610dc057610dc0611389565b6020026020010151610dd19061139f565b6001600160e01b031916145b15610e255760408051600180825281830190925260009160208083019080368337019050508251909150610e12906000610eab565b816000815181106109af576109af611389565b855163125012df60e21b9087906001908110610e4357610e43611389565b6020026020010151610e549061139f565b6001600160e01b03191603610b4f57604080516001808252818301909252600091602080830190803683375050835151919250610e98916107f5915060149061157c565b81600081518110610b1b57610b1b611389565b6000610eb8826014611735565b83511015610f055760405162461bcd60e51b8152602060048201526015602482015274746f416464726573735f6f75744f66426f756e647360581b60448201526064015b60405180910390fd5b5081810160200151600160601b90045b92915050565b606081610f2981601f611735565b1015610f685760405162461bcd60e51b815260206004820152600e60248201526d736c6963655f6f766572666c6f7760901b6044820152606401610efc565b610f728284611735565b84511015610fb65760405162461bcd60e51b8152602060048201526011602482015270736c6963655f6f75744f66426f756e647360781b6044820152606401610efc565b606082158015610fd5576040519150600082526020820160405261101f565b6040519150601f8416801560200281840101858101878315602002848b0101015b8183101561100e578051835260209283019201610ff6565b5050858452601f01601f1916604052505b50949350505050565b6001600160a01b038116811461103d57600080fd5b50565b801515811461103d57600080fd5b6000806000806060858703121561106457600080fd5b843561106f81611028565b9350602085013561107f81611040565b9250604085013567ffffffffffffffff8082111561109c57600080fd5b818701915087601f8301126110b057600080fd5b8135818111156110bf57600080fd5b8860208285010111156110d157600080fd5b95989497505060200194505050565b600081518084526020808501945080840160005b838110156111195781516001600160a01b0316875295820195908201906001016110f4565b509495945050505050565b831515815260606020820152600061113f60608301856110e0565b828103604084015261115181856110e0565b9695505050505050565b6001600160e01b031981358181169160048510156111835780818660040360031b1b83161692505b505092915050565b6000808585111561119b57600080fd5b838611156111a857600080fd5b5050820193919092039150565b634e487b7160e01b600052604160045260246000fd5b60405160e0810167ffffffffffffffff811182821017156111ee576111ee6111b5565b60405290565b6040516080810167ffffffffffffffff811182821017156111ee576111ee6111b5565b604051601f8201601f1916810167ffffffffffffffff81118282101715611240576112406111b5565b604052919050565b600067ffffffffffffffff821115611262576112626111b5565b50601f01601f191660200190565b600082601f83011261128157600080fd5b813561129461128f82611248565b611217565b8181528460208386010111156112a957600080fd5b816020850160208301376000918101602001919091529392505050565b600060208083850312156112d957600080fd5b823567ffffffffffffffff808211156112f157600080fd5b818501915085601f83011261130557600080fd5b813581811115611317576113176111b5565b8060051b611326858201611217565b918252838101850191858101908984111561134057600080fd5b86860192505b8383101561137c5782358581111561135e5760008081fd5b61136c8b89838a0101611270565b8352509186019190860190611346565b9998505050505050505050565b634e487b7160e01b600052603260045260246000fd5b805160208201516001600160e01b031980821692919060048310156113ce5780818460040360031b1b83161693505b505050919050565b62ffffff8116811461103d57600080fd5b600060e082840312156113f957600080fd5b6114016111cb565b9050813561140e81611028565b8152602082013561141e81611028565b60208201526040820135611431816113d6565b6040820152606082013561144481611028565b806060830152506080820135608082015260a082013560a082015260c082013561146d81611028565b60c082015292915050565b600060e0828403121561148a57600080fd5b61149483836113e7565b9392505050565b6000602082840312156114ad57600080fd5b815161149481611040565b6000608082840312156114ca57600080fd5b6114d26111f4565b9050813567ffffffffffffffff8111156114eb57600080fd5b6114f784828501611270565b825250602082013561150881611028565b80602083015250604082013560408201526060820135606082015292915050565b60006020828403121561153b57600080fd5b813567ffffffffffffffff81111561155257600080fd5b61155e848285016114b8565b949350505050565b634e487b7160e01b600052601160045260246000fd5b81810381811115610f1557610f15611566565b805161159a81611028565b919050565b600060e082840312156115b157600080fd5b6115b96111cb565b905081516115c681611028565b815260208201516115d681611028565b602082015260408201516115e9816113d6565b604082015260608201516115fc81611028565b806060830152506080820151608082015260a082015160a082015260c082015161146d81611028565b600060e0828403121561163757600080fd5b611494838361159f565b60006080828403121561165357600080fd5b61165b6111f4565b9050815167ffffffffffffffff81111561167457600080fd5b8201601f8101841361168557600080fd5b805161169361128f82611248565b818152602086818486010111156116a957600080fd5b60005b838110156116c75784810182015183820183015281016116ac565b5060008184840101528185526116de81870161158f565b8186015250505050604082015160408201526060820151606082015292915050565b60006020828403121561171257600080fd5b815167ffffffffffffffff81111561172957600080fd5b61155e84828501611641565b80820180821115610f1557610f1561156656fea2646970667358221220f08c0f2af34d8205a2ebc298a1e3f7231c554af956ba2cd966d53944bca712a264736f6c63430008110033",
    "linkReferences": {}
  },
  "methodIdentifiers": {
    "canCall(address,bool,bytes)": "3414d099",
    "controllerFacade()": "93bf73d9"
  },
  "id": 7
}