{
  "abi": [
    {
      "inputs": [],
      "name": "AccountManagerOnly",
      "type": "error"
    },
    {
      "inputs": [],
      "name": "AdminOnly",
      "type": "error"
    },
    {
      "inputs": [],
      "name": "ContractAlreadyInitialized",
      "type": "error"
    },
    {
      "inputs": [],
      "name": "ContractPaused",
      "type": "error"
    },
    {
      "inputs": [],
      "name": "MaxSupply",
      "type": "error"
    },
    {
      "inputs": [],
      "name": "MinimumShares",
      "type": "error"
    },
    {
      "inputs": [],
      "name": "ZeroAddress",
      "type": "error"
    },
    {
      "anonymous": false,
      "inputs": [
        {
          "indexed": true,
          "internalType": "address",
          "name": "owner",
          "type": "address"
        },
        {
          "indexed": true,
          "internalType": "address",
          "name": "spender",
          "type": "address"
        },
        {
          "indexed": false,
          "internalType": "uint256",
          "name": "amount",
          "type": "uint256"
        }
      ],
      "name": "Approval",
      "type": "event"
    },
    {
      "anonymous": false,
      "inputs": [
        {
          "indexed": true,
          "internalType": "address",
          "name": "caller",
          "type": "address"
        },
        {
          "indexed": true,
          "internalType": "address",
          "name": "owner",
          "type": "address"
        },
        {
          "indexed": false,
          "internalType": "uint256",
          "name": "assets",
          "type": "uint256"
        },
        {
          "indexed": false,
          "internalType": "uint256",
          "name": "shares",
          "type": "uint256"
        }
      ],
      "name": "Deposit",
      "type": "event"
    },
    {
      "anonymous": false,
      "inputs": [
        {
          "indexed": true,
          "internalType": "address",
          "name": "previousAdmin",
          "type": "address"
        },
        {
          "indexed": true,
          "internalType": "address",
          "name": "newAdmin",
          "type": "address"
        }
      ],
      "name": "OwnershipTransferred",
      "type": "event"
    },
    {
      "anonymous": false,
      "inputs": [
        {
          "indexed": true,
          "internalType": "address",
          "name": "admin",
          "type": "address"
        },
        {
          "indexed": false,
          "internalType": "bool",
          "name": "pause",
          "type": "bool"
        }
      ],
      "name": "PauseToggled",
      "type": "event"
    },
    {
      "anonymous": false,
      "inputs": [
        {
          "indexed": true,
          "internalType": "address",
          "name": "treasury",
          "type": "address"
        },
        {
          "indexed": false,
          "internalType": "uint256",
          "name": "amt",
          "type": "uint256"
        }
      ],
      "name": "ReservesRedeemed",
      "type": "event"
    },
    {
      "anonymous": false,
      "inputs": [
        {
          "indexed": true,
          "internalType": "address",
          "name": "from",
          "type": "address"
        },
        {
          "indexed": true,
          "internalType": "address",
          "name": "to",
          "type": "address"
        },
        {
          "indexed": false,
          "internalType": "uint256",
          "name": "amount",
          "type": "uint256"
        }
      ],
      "name": "Transfer",
      "type": "event"
    },
    {
      "anonymous": false,
      "inputs": [
        {
          "indexed": true,
          "internalType": "address",
          "name": "caller",
          "type": "address"
        },
        {
          "indexed": true,
          "internalType": "address",
          "name": "receiver",
          "type": "address"
        },
        {
          "indexed": true,
          "internalType": "address",
          "name": "owner",
          "type": "address"
        },
        {
          "indexed": false,
          "internalType": "uint256",
          "name": "assets",
          "type": "uint256"
        },
        {
          "indexed": false,
          "internalType": "uint256",
          "name": "shares",
          "type": "uint256"
        }
      ],
      "name": "Withdraw",
      "type": "event"
    },
    {
      "inputs": [],
      "name": "DOMAIN_SEPARATOR",
      "outputs": [
        {
          "internalType": "bytes32",
          "name": "",
          "type": "bytes32"
        }
      ],
      "stateMutability": "view",
      "type": "function"
    },
    {
      "inputs": [],
      "name": "accountManager",
      "outputs": [
        {
          "internalType": "address",
          "name": "",
          "type": "address"
        }
      ],
      "stateMutability": "view",
      "type": "function"
    },
    {
      "inputs": [],
      "name": "admin",
      "outputs": [
        {
          "internalType": "address",
          "name": "",
          "type": "address"
        }
      ],
      "stateMutability": "view",
      "type": "function"
    },
    {
      "inputs": [
        {
          "internalType": "address",
          "name": "",
          "type": "address"
        },
        {
          "internalType": "address",
          "name": "",
          "type": "address"
        }
      ],
      "name": "allowance",
      "outputs": [
        {
          "internalType": "uint256",
          "name": "",
          "type": "uint256"
        }
      ],
      "stateMutability": "view",
      "type": "function"
    },
    {
      "inputs": [
        {
          "internalType": "address",
          "name": "spender",
          "type": "address"
        },
        {
          "internalType": "uint256",
          "name": "amount",
          "type": "uint256"
        }
      ],
      "name": "approve",
      "outputs": [
        {
          "internalType": "bool",
          "name": "",
          "type": "bool"
        }
      ],
      "stateMutability": "nonpayable",
      "type": "function"
    },
    {
      "inputs": [],
      "name": "asset",
      "outputs": [
        {
          "internalType": "contract ERC20",
          "name": "",
          "type": "address"
        }
      ],
      "stateMutability": "view",
      "type": "function"
    },
    {
      "inputs": [
        {
          "internalType": "address",
          "name": "",
          "type": "address"
        }
      ],
      "name": "balanceOf",
      "outputs": [
        {
          "internalType": "uint256",
          "name": "",
          "type": "uint256"
        }
      ],
      "stateMutability": "view",
      "type": "function"
    },
    {
      "inputs": [],
      "name": "borrows",
      "outputs": [
        {
          "internalType": "uint256",
          "name": "",
          "type": "uint256"
        }
      ],
      "stateMutability": "view",
      "type": "function"
    },
    {
      "inputs": [
        {
          "internalType": "address",
          "name": "",
          "type": "address"
        }
      ],
      "name": "borrowsOf",
      "outputs": [
        {
          "internalType": "uint256",
          "name": "",
          "type": "uint256"
        }
      ],
      "stateMutability": "view",
      "type": "function"
    },
    {
      "inputs": [
        {
          "internalType": "address",
          "name": "account",
          "type": "address"
        },
        {
          "internalType": "uint256",
          "name": "amt",
          "type": "uint256"
        }
      ],
      "name": "collectFrom",
      "outputs": [
        {
          "internalType": "bool",
          "name": "",
          "type": "bool"
        }
      ],
      "stateMutability": "nonpayable",
      "type": "function"
    },
    {
      "inputs": [
        {
          "internalType": "uint256",
          "name": "shares",
          "type": "uint256"
        }
      ],
      "name": "convertToAssets",
      "outputs": [
        {
          "internalType": "uint256",
          "name": "",
          "type": "uint256"
        }
      ],
      "stateMutability": "view",
      "type": "function"
    },
    {
      "inputs": [
        {
          "internalType": "uint256",
          "name": "assets",
          "type": "uint256"
        }
      ],
      "name": "convertToShares",
      "outputs": [
        {
          "internalType": "uint256",
          "name": "",
          "type": "uint256"
        }
      ],
      "stateMutability": "view",
      "type": "function"
    },
    {
      "inputs": [],
      "name": "decimals",
      "outputs": [
        {
          "internalType": "uint8",
          "name": "",
          "type": "uint8"
        }
      ],
      "stateMutability": "view",
      "type": "function"
    },
    {
      "inputs": [
        {
          "internalType": "uint256",
          "name": "assets",
          "type": "uint256"
        },
        {
          "internalType": "address",
          "name": "receiver",
          "type": "address"
        }
      ],
      "name": "deposit",
      "outputs": [
        {
          "internalType": "uint256",
          "name": "shares",
          "type": "uint256"
        }
      ],
      "stateMutability": "nonpayable",
      "type": "function"
    },
    {
      "inputs": [
        {
          "internalType": "address",
          "name": "account",
          "type": "address"
        }
      ],
      "name": "getBorrowBalance",
      "outputs": [
        {
          "internalType": "uint256",
          "name": "",
          "type": "uint256"
        }
      ],
      "stateMutability": "view",
      "type": "function"
    },
    {
      "inputs": [],
      "name": "getBorrows",
      "outputs": [
        {
          "internalType": "uint256",
          "name": "",
          "type": "uint256"
        }
      ],
      "stateMutability": "view",
      "type": "function"
    },
    {
      "inputs": [
        {
          "internalType": "contract ERC20",
          "name": "_asset",
          "type": "address"
        },
        {
          "internalType": "string",
          "name": "_name",
          "type": "string"
        },
        {
          "internalType": "string",
          "name": "_symbol",
          "type": "string"
        },
        {
          "internalType": "contract IRegistry",
          "name": "_registry",
          "type": "address"
        },
        {
          "internalType": "uint256",
          "name": "_originationFee",
          "type": "uint256"
        },
        {
          "internalType": "address",
          "name": "_treasury",
          "type": "address"
        },
        {
          "internalType": "uint256",
          "name": "_reserveShares",
          "type": "uint256"
        },
        {
          "internalType": "uint256",
          "name": "_maxSupply",
          "type": "uint256"
        }
      ],
      "name": "init",
      "outputs": [],
      "stateMutability": "nonpayable",
      "type": "function"
    },
    {
      "inputs": [
        {
          "internalType": "string",
          "name": "_rateModel",
          "type": "string"
        }
      ],
      "name": "initDep",
      "outputs": [],
      "stateMutability": "nonpayable",
      "type": "function"
    },
    {
      "inputs": [],
      "name": "lastUpdated",
      "outputs": [
        {
          "internalType": "uint256",
          "name": "",
          "type": "uint256"
        }
      ],
      "stateMutability": "view",
      "type": "function"
    },
    {
      "inputs": [
        {
          "internalType": "address",
          "name": "account",
          "type": "address"
        },
        {
          "internalType": "uint256",
          "name": "amt",
          "type": "uint256"
        }
      ],
      "name": "lendTo",
      "outputs": [
        {
          "internalType": "bool",
          "name": "isFirstBorrow",
          "type": "bool"
        }
      ],
      "stateMutability": "nonpayable",
      "type": "function"
    },
    {
      "inputs": [
        {
          "internalType": "address",
          "name": "",
          "type": "address"
        }
      ],
      "name": "maxDeposit",
      "outputs": [
        {
          "internalType": "uint256",
          "name": "",
          "type": "uint256"
        }
      ],
      "stateMutability": "view",
      "type": "function"
    },
    {
      "inputs": [
        {
          "internalType": "address",
          "name": "",
          "type": "address"
        }
      ],
      "name": "maxMint",
      "outputs": [
        {
          "internalType": "uint256",
          "name": "",
          "type": "uint256"
        }
      ],
      "stateMutability": "view",
      "type": "function"
    },
    {
      "inputs": [
        {
          "internalType": "address",
          "name": "owner",
          "type": "address"
        }
      ],
      "name": "maxRedeem",
      "outputs": [
        {
          "internalType": "uint256",
          "name": "",
          "type": "uint256"
        }
      ],
      "stateMutability": "view",
      "type": "function"
    },
    {
      "inputs": [],
      "name": "maxSupply",
      "outputs": [
        {
          "internalType": "uint256",
          "name": "",
          "type": "uint256"
        }
      ],
      "stateMutability": "view",
      "type": "function"
    },
    {
      "inputs": [
        {
          "internalType": "address",
          "name": "owner",
          "type": "address"
        }
      ],
      "name": "maxWithdraw",
      "outputs": [
        {
          "internalType": "uint256",
          "name": "",
          "type": "uint256"
        }
      ],
      "stateMutability": "view",
      "type": "function"
    },
    {
      "inputs": [
        {
          "internalType": "uint256",
          "name": "shares",
          "type": "uint256"
        },
        {
          "internalType": "address",
          "name": "receiver",
          "type": "address"
        }
      ],
      "name": "mint",
      "outputs": [
        {
          "internalType": "uint256",
          "name": "assets",
          "type": "uint256"
        }
      ],
      "stateMutability": "nonpayable",
      "type": "function"
    },
    {
      "inputs": [],
      "name": "name",
      "outputs": [
        {
          "internalType": "string",
          "name": "",
          "type": "string"
        }
      ],
      "stateMutability": "view",
      "type": "function"
    },
    {
      "inputs": [
        {
          "internalType": "address",
          "name": "",
          "type": "address"
        }
      ],
      "name": "nonces",
      "outputs": [
        {
          "internalType": "uint256",
          "name": "",
          "type": "uint256"
        }
      ],
      "stateMutability": "view",
      "type": "function"
    },
    {
      "inputs": [],
      "name": "originationFee",
      "outputs": [
        {
          "internalType": "uint256",
          "name": "",
          "type": "uint256"
        }
      ],
      "stateMutability": "view",
      "type": "function"
    },
    {
      "inputs": [],
      "name": "paused",
      "outputs": [
        {
          "internalType": "bool",
          "name": "",
          "type": "bool"
        }
      ],
      "stateMutability": "view",
      "type": "function"
    },
    {
      "inputs": [
        {
          "internalType": "address",
          "name": "owner",
          "type": "address"
        },
        {
          "internalType": "address",
          "name": "spender",
          "type": "address"
        },
        {
          "internalType": "uint256",
          "name": "value",
          "type": "uint256"
        },
        {
          "internalType": "uint256",
          "name": "deadline",
          "type": "uint256"
        },
        {
          "internalType": "uint8",
          "name": "v",
          "type": "uint8"
        },
        {
          "internalType": "bytes32",
          "name": "r",
          "type": "bytes32"
        },
        {
          "internalType": "bytes32",
          "name": "s",
          "type": "bytes32"
        }
      ],
      "name": "permit",
      "outputs": [],
      "stateMutability": "nonpayable",
      "type": "function"
    },
    {
      "inputs": [
        {
          "internalType": "uint256",
          "name": "assets",
          "type": "uint256"
        }
      ],
      "name": "previewDeposit",
      "outputs": [
        {
          "internalType": "uint256",
          "name": "",
          "type": "uint256"
        }
      ],
      "stateMutability": "view",
      "type": "function"
    },
    {
      "inputs": [
        {
          "internalType": "uint256",
          "name": "shares",
          "type": "uint256"
        }
      ],
      "name": "previewMint",
      "outputs": [
        {
          "internalType": "uint256",
          "name": "",
          "type": "uint256"
        }
      ],
      "stateMutability": "view",
      "type": "function"
    },
    {
      "inputs": [
        {
          "internalType": "uint256",
          "name": "shares",
          "type": "uint256"
        }
      ],
      "name": "previewRedeem",
      "outputs": [
        {
          "internalType": "uint256",
          "name": "",
          "type": "uint256"
        }
      ],
      "stateMutability": "view",
      "type": "function"
    },
    {
      "inputs": [
        {
          "internalType": "uint256",
          "name": "assets",
          "type": "uint256"
        }
      ],
      "name": "previewWithdraw",
      "outputs": [
        {
          "internalType": "uint256",
          "name": "",
          "type": "uint256"
        }
      ],
      "stateMutability": "view",
      "type": "function"
    },
    {
      "inputs": [],
      "name": "rateModel",
      "outputs": [
        {
          "internalType": "contract IRateModel",
          "name": "",
          "type": "address"
        }
      ],
      "stateMutability": "view",
      "type": "function"
    },
    {
      "inputs": [
        {
          "internalType": "uint256",
          "name": "shares",
          "type": "uint256"
        },
        {
          "internalType": "address",
          "name": "receiver",
          "type": "address"
        },
        {
          "internalType": "address",
          "name": "owner",
          "type": "address"
        }
      ],
      "name": "redeem",
      "outputs": [
        {
          "internalType": "uint256",
          "name": "assets",
          "type": "uint256"
        }
      ],
      "stateMutability": "nonpayable",
      "type": "function"
    },
    {
      "inputs": [],
      "name": "registry",
      "outputs": [
        {
          "internalType": "contract IRegistry",
          "name": "",
          "type": "address"
        }
      ],
      "stateMutability": "view",
      "type": "function"
    },
    {
      "inputs": [],
      "name": "symbol",
      "outputs": [
        {
          "internalType": "string",
          "name": "",
          "type": "string"
        }
      ],
      "stateMutability": "view",
      "type": "function"
    },
    {
      "inputs": [],
      "name": "togglePause",
      "outputs": [],
      "stateMutability": "nonpayable",
      "type": "function"
    },
    {
      "inputs": [],
      "name": "totalAssets",
      "outputs": [
        {
          "internalType": "uint256",
          "name": "",
          "type": "uint256"
        }
      ],
      "stateMutability": "view",
      "type": "function"
    },
    {
      "inputs": [],
      "name": "totalBorrowShares",
      "outputs": [
        {
          "internalType": "uint256",
          "name": "",
          "type": "uint256"
        }
      ],
      "stateMutability": "view",
      "type": "function"
    },
    {
      "inputs": [],
      "name": "totalSupply",
      "outputs": [
        {
          "internalType": "uint256",
          "name": "",
          "type": "uint256"
        }
      ],
      "stateMutability": "view",
      "type": "function"
    },
    {
      "inputs": [
        {
          "internalType": "address",
          "name": "to",
          "type": "address"
        },
        {
          "internalType": "uint256",
          "name": "amount",
          "type": "uint256"
        }
      ],
      "name": "transfer",
      "outputs": [
        {
          "internalType": "bool",
          "name": "",
          "type": "bool"
        }
      ],
      "stateMutability": "nonpayable",
      "type": "function"
    },
    {
      "inputs": [
        {
          "internalType": "address",
          "name": "from",
          "type": "address"
        },
        {
          "internalType": "address",
          "name": "to",
          "type": "address"
        },
        {
          "internalType": "uint256",
          "name": "amount",
          "type": "uint256"
        }
      ],
      "name": "transferFrom",
      "outputs": [
        {
          "internalType": "bool",
          "name": "",
          "type": "bool"
        }
      ],
      "stateMutability": "nonpayable",
      "type": "function"
    },
    {
      "inputs": [
        {
          "internalType": "address",
          "name": "newAdmin",
          "type": "address"
        }
      ],
      "name": "transferOwnership",
      "outputs": [],
      "stateMutability": "nonpayable",
      "type": "function"
    },
    {
      "inputs": [],
      "name": "treasury",
      "outputs": [
        {
          "internalType": "address",
          "name": "",
          "type": "address"
        }
      ],
      "stateMutability": "view",
      "type": "function"
    },
    {
      "inputs": [
        {
          "internalType": "uint256",
          "name": "_maxSupply",
          "type": "uint256"
        }
      ],
      "name": "updateMaxSupply",
      "outputs": [],
      "stateMutability": "nonpayable",
      "type": "function"
    },
    {
      "inputs": [
        {
          "internalType": "uint256",
          "name": "_originationFee",
          "type": "uint256"
        }
      ],
      "name": "updateOriginationFee",
      "outputs": [],
      "stateMutability": "nonpayable",
      "type": "function"
    },
    {
      "inputs": [],
      "name": "updateState",
      "outputs": [],
      "stateMutability": "nonpayable",
      "type": "function"
    },
    {
      "inputs": [
        {
          "internalType": "uint256",
          "name": "assets",
          "type": "uint256"
        },
        {
          "internalType": "address",
          "name": "receiver",
          "type": "address"
        },
        {
          "internalType": "address",
          "name": "owner",
          "type": "address"
        }
      ],
      "name": "withdraw",
      "outputs": [
        {
          "internalType": "uint256",
          "name": "shares",
          "type": "uint256"
        }
      ],
      "stateMutability": "nonpayable",
      "type": "function"
    }
  ],
  "bytecode": {
    "object": "0x608060405234801561001057600080fd5b506125cb806100206000396000f3fe608060405234801561001057600080fd5b50600436106102f15760003560e01c806394bf804d1161019d578063cbcafed2116100e9578063dd62ed3e116100a2578063f103b4331161007c578063f103b433146106a5578063f2fde38b146106b8578063f851a440146106cb578063ff3f60e7146106de57600080fd5b8063dd62ed3e1461065f578063eae93e7e1461068a578063ef8b30f71461069257600080fd5b8063cbcafed2146105eb578063ce96cb77146105fe578063d0b06f5d14610611578063d505accf1461061a578063d5abeb011461062d578063d905777e1461063657600080fd5b8063b8bb5c4211610156578063bf9836a611610130578063bf9836a6146105aa578063c4ae3168146105bd578063c63d75b6146105c5578063c6e6f592146105d857600080fd5b8063b8bb5c421461056e578063ba08765214610577578063bde4f4771461058a57600080fd5b806394bf804d1461050757806395d89b411461051a578063a108845914610522578063a9059cbb14610535578063b3d7f6b914610548578063b460af941461055b57600080fd5b8063402d267d1161025c5780636d47049a116102155780637b103999116101ef5780637b103999146104a95780637d6af079146104c15780637ecebe00146104d457806391c2c469146104f457600080fd5b80636d47049a146104635780636e553f651461047657806370a082311461048957600080fd5b8063402d267d146103f05780634cdad506146104035780635c975abb1461041657806361d027b31461042a5780636ab22cf01461043d5780636b6d25861461045057600080fd5b806318160ddd116102ae57806318160ddd146103785780631d8557d71461038157806323b872dd1461038b578063313ce5671461039e5780633644e515146103bd57806338d52e0f146103c557600080fd5b806301e1d114146102f657806306fdde031461031157806307a2d13a14610326578063095ea7b3146103395780630a28a4771461035c578063136cf1f71461036f575b600080fd5b6102fe6106e7565b6040519081526020015b60405180910390f35b61031961076c565b6040516103089190611e68565b6102fe610334366004611eb6565b6107fa565b61034c610347366004611ee4565b610827565b6040519015158152602001610308565b6102fe61036a366004611eb6565b610894565b6102fe60145481565b6102fe60045481565b6103896108b4565b005b61034c610399366004611f10565b610903565b6003546103ab9060ff1681565b60405160ff9091168152602001610308565b6102fe610973565b600b546103d8906001600160a01b031681565b6040516001600160a01b039091168152602001610308565b6102fe6103fe366004611f51565b61098d565b6102fe610411366004611eb6565b61099c565b60005461034c90600160a01b900460ff1681565b6010546103d8906001600160a01b031681565b61034c61044b366004611ee4565b6109a7565b61038961045e366004611fb7565b610b40565b610389610471366004611eb6565b610cac565b6102fe610484366004611ff9565b610cdc565b6102fe610497366004611f51565b60066020526000908152604090205481565b600d546103d89061010090046001600160a01b031681565b6102fe6104cf366004611f51565b610e16565b6102fe6104e2366004611f51565b600a6020526000908152604090205481565b600f546103d8906001600160a01b031681565b6102fe610515366004611ff9565b610e38565b610319610f2c565b600e546103d8906001600160a01b031681565b61034c610543366004611ee4565b610f39565b6102fe610556366004611eb6565b610f46565b6102fe610569366004612029565b610f65565b6102fe60135481565b6102fe610585366004612029565b611056565b6102fe610598366004611f51565b60156020526000908152604090205481565b61034c6105b8366004611ee4565b611185565b610389611287565b6102fe6105d3366004611f51565b611318565b6102fe6105e6366004611eb6565b61133d565b6103896105f936600461206b565b61135d565b6102fe61060c366004611f51565b6114a1565b6102fe60125481565b610389610628366004612140565b6114c3565b6102fe60055481565b6102fe610644366004611f51565b6001600160a01b031660009081526006602052604090205490565b6102fe61066d3660046121b1565b600760209081526000928352604080842090915290825290205481565b6102fe611707565b6102fe6106a0366004611eb6565b61172a565b6103896106b3366004611eb6565b611735565b6103896106c6366004611f51565b611765565b6000546103d8906001600160a01b031681565b6102fe60115481565b60006106f1611707565b600b546040516370a0823160e01b81523060048201526001600160a01b03909116906370a0823190602401602060405180830381865afa158015610739573d6000803e3d6000fd5b505050506040513d601f19601f8201168201806040525081019061075d91906121df565b610767919061220e565b905090565b6001805461077990612221565b80601f01602080910402602001604051908101604052809291908181526020018280546107a590612221565b80156107f25780601f106107c7576101008083540402835291602001916107f2565b820191906000526020600020905b8154815290600101906020018083116107d557829003601f168201915b505050505081565b600454600090801561081e576108196108116106e7565b849083611812565b610820565b825b9392505050565b3360008181526007602090815260408083206001600160a01b038716808552925280832085905551919290917f8c5be1e5ebec7d5bd14f71427d1e84f3dd0314c0f7b2291e5b200ac8c7c3b925906108829086815260200190565b60405180910390a35060015b92915050565b600454600090801561081e57610819816108ac6106e7565b859190611830565b42601254036108bf57565b60006108c9611856565b905060006108e28260115461197090919063ffffffff16565b905080601160008282546108f6919061220e565b9091555050426012555050565b6001600160a01b0383166000908152600760209081526040808320338452909152812054600019811461095f5761093a838261225b565b6001600160a01b03861660009081526007602090815260408083203384529091529020555b61096a858585611985565b95945050505050565b6000600854461461098657610767611a43565b5060095490565b600061088e6103346000611318565b600061088e826107fa565b60008054600160a01b900460ff16156109d35760405163ab35696f60e01b815260040160405180910390fd5b600f546001600160a01b031633146109fe5760405163fae067e560e01b815260040160405180910390fd5b610a066108b4565b506001600160a01b0382166000908152601560205260408120541590610a2b83611add565b905080600003610a775760405162461bcd60e51b81526020600482015260126024820152715a45524f5f424f52524f575f53484152455360701b60448201526064015b60405180910390fd5b8060146000828254610a89919061220e565b90915550506001600160a01b03841660009081526015602052604081208054839290610ab690849061220e565b925050819055508260116000828254610acf919061220e565b9091555050601354600354600091610af791610aef9060ff16600a612352565b869190611812565b601054600b54919250610b17916001600160a01b03908116911683611af5565b610b3885610b25838761225b565b600b546001600160a01b03169190611af5565b505092915050565b6000546001600160a01b03163314610b6b57604051633057182d60e21b815260040160405180910390fd5b600d5460405163bf40fac160e01b81526101009091046001600160a01b03169063bf40fac190610ba19085908590600401612361565b602060405180830381865afa158015610bbe573d6000803e3d6000fd5b505050506040513d601f19601f82011682018060405250810190610be29190612390565b600e80546001600160a01b0319166001600160a01b03928316179055600d5460405163bf40fac160e01b815260206004820152600f60248201526e20a1a1a7aaa72a2fa6a0a720a3a2a960891b60448201526101009091049091169063bf40fac190606401602060405180830381865afa158015610c64573d6000803e3d6000fd5b505050506040513d601f19601f82011682018060405250810190610c889190612390565b600f80546001600160a01b0319166001600160a01b03929092169190911790555050565b6000546001600160a01b03163314610cd757604051633057182d60e21b815260040160405180910390fd5b601355565b6000610ce88382611b7c565b610cf18361172a565b905080600003610d315760405162461bcd60e51b815260206004820152600b60248201526a5a45524f5f53484152455360a81b6044820152606401610a6e565b600454158015610d495750600354600660ff90911610155b15610da757600354610d609060029060ff166123ad565b610d6b90600a612352565b8111610d8a5760405163a212f0b960e01b815260040160405180910390fd5b610d976000600c54611b88565b600c54610da4908261225b565b90505b600b54610dbf906001600160a01b0316333086611c19565b610dc98282611b88565b60408051848152602081018390526001600160a01b0384169133917fdcbc1c05240f31ff3ad067ef1ee35ce4997762752e3a095284754544f4c709d791015b60405180910390a392915050565b6001600160a01b03811660009081526015602052604081205461088e90611cb5565b6000610e448184611b7c565b610e4d83610f46565b90506004546000148015610e695750600354600660ff90911610155b15610ec757600354610e809060029060ff166123ad565b610e8b90600a612352565b8311610eaa5760405163a212f0b960e01b815260040160405180910390fd5b610eb76000600c54611b88565b600c54610ec4908461225b565b92505b600b54610edf906001600160a01b0316333084611c19565b610ee98284611b88565b60408051828152602081018590526001600160a01b0384169133917fdcbc1c05240f31ff3ad067ef1ee35ce4997762752e3a095284754544f4c709d79101610e08565b6002805461077990612221565b6000610820338484611985565b600454600090801561081e57610819610f5d6106e7565b849083611830565b6000610f7084610894565b9050336001600160a01b03831614610fe0576001600160a01b03821660009081526007602090815260408083203384529091529020546000198114610fde57610fb9828261225b565b6001600160a01b03841660009081526007602090815260408083203384529091529020555b505b610fea8482611b7c565b610ff48282611ccc565b60408051858152602081018390526001600160a01b03808516929086169133917ffbde797d201c681b91056529119e0b02407c7bb96a4a2c75c01fc9667232c8db910160405180910390a4600b54610820906001600160a01b03168486611af5565b6000336001600160a01b038316146110c6576001600160a01b038216600090815260076020908152604080832033845290915290205460001981146110c45761109f858261225b565b6001600160a01b03841660009081526007602090815260408083203384529091529020555b505b6110cf8461099c565b90508060000361110f5760405162461bcd60e51b815260206004820152600b60248201526a5a45524f5f41535345545360a81b6044820152606401610a6e565b6111198185611b7c565b6111238285611ccc565b60408051828152602081018690526001600160a01b03808516929086169133917ffbde797d201c681b91056529119e0b02407c7bb96a4a2c75c01fc9667232c8db910160405180910390a4600b54610820906001600160a01b03168483611af5565b600f546000906001600160a01b031633146111b35760405163fae067e560e01b815260040160405180910390fd5b60006111be83611add565b9050806000036112055760405162461bcd60e51b81526020600482015260126024820152715a45524f5f424f52524f575f53484152455360701b6044820152606401610a6e565b6001600160a01b0384166000908152601560205260408120805483929061122d90849061225b565b925050819055508060146000828254611246919061225b565b92505081905550826011600082825461125f919061225b565b9091555050506001600160a01b03831660009081526015602052604090205415905092915050565b6000546001600160a01b031633146112b257604051633057182d60e21b815260040160405180910390fd5b6000805460ff600160a01b808304821615810260ff60a01b19909316929092179283905560405133937f79a5bc58b021076f821571d0fe8b0ae3d9e0a666563bb064fdbf0bf69281331c9361130e939104161515815260200190565b60405180910390a2565b60006005546004541061132d57506000919050565b60045460055461088e919061225b565b600454600090801561081e57610819816113556106e7565b859190611812565b600d5460ff161561138157604051631ee1e30360e21b815260040160405180910390fd5b6001600160a01b038a16158061139e57506001600160a01b038516155b806113b057506001600160a01b038316155b156113ce5760405163d92e233d60e01b815260040160405180910390fd5b600d805460ff191660011790556113e433611d40565b61145c8a8a8a8080601f01602080910402602001604051908101604052809392919081815260200183838082843760009201919091525050604080516020601f8e018190048102820181019092528c815292508c91508b9081908401838280828437600092019190915250889250879150611d4c9050565b5050600d8054610100600160a81b0319166101006001600160a01b0395861602179055601391909155601080546001600160a01b031916919092161790555050505050565b6001600160a01b03811660009081526006602052604081205461088e906107fa565b428410156115135760405162461bcd60e51b815260206004820152601760248201527f5045524d49545f444541444c494e455f455850495245440000000000000000006044820152606401610a6e565b6000600161151f610973565b6001600160a01b038a81166000818152600a602090815260409182902080546001810190915582517f6e71edae12b1b97f4d1f60370fef10105fa2faae0126114a169c64845d6126c98184015280840194909452938d166060840152608083018c905260a083019390935260c08083018b90528151808403909101815260e08301909152805192019190912061190160f01b6101008301526101028201929092526101228101919091526101420160408051601f198184030181528282528051602091820120600084529083018083525260ff871690820152606081018590526080810184905260a0016020604051602081039080840390855afa15801561162b573d6000803e3d6000fd5b5050604051601f1901519150506001600160a01b038116158015906116615750876001600160a01b0316816001600160a01b0316145b61169e5760405162461bcd60e51b815260206004820152600e60248201526d24a72b20a624a22fa9a4a3a722a960911b6044820152606401610a6e565b6001600160a01b0390811660009081526007602090815260408083208a8516808552908352928190208990555188815291928a16917f8c5be1e5ebec7d5bd14f71427d1e84f3dd0314c0f7b2291e5b200ac8c7c3b925910160405180910390a350505050505050565b600061171d611714611856565b60115490611970565b601154610767919061220e565b600061088e8261133d565b6000546001600160a01b0316331461176057604051633057182d60e21b815260040160405180910390fd5b600555565b6000546001600160a01b0316331461179057604051633057182d60e21b815260040160405180910390fd5b6001600160a01b0381166117b75760405163d92e233d60e01b815260040160405180910390fd5b600080546040516001600160a01b03808516939216917f8be0079c531659141344cd1fd0a4f28419497f9722a3daafe3b4186f6b6457e091a3600080546001600160a01b0319166001600160a01b0392909216919091179055565b600082600019048411830215820261182957600080fd5b5091020490565b600082600019048411830215820261184757600080fd5b50910281810615159190040190565b6000601254421461196a57600e54600b546040516370a0823160e01b8152306004820152610767926001600160a01b0390811692635592f328929116906370a0823190602401602060405180830381865afa1580156118b9573d6000803e3d6000fd5b505050506040513d601f19601f820116820180604052508101906118dd91906121df565b6011546040516001600160e01b031960e085901b16815260048101929092526024820152604401602060405180830381865afa158015611921573d6000803e3d6000fd5b505050506040513d601f19601f8201168201806040525081019061194591906121df565b601254611952904261225b565b61196490670de0b6b3a76400006123c6565b90611970565b50600090565b60006108208383670de0b6b3a7640000611830565b60006001600160a01b0383166119ae5760405163d92e233d60e01b815260040160405180910390fd5b6001600160a01b038416600090815260066020526040812080548492906119d690849061225b565b90915550506001600160a01b03808416600081815260066020526040908190208054860190555190918616907fddf252ad1be2c89b69c2b068fc378daa952ba7f163c4a11628f55a4df523b3ef90611a319086815260200190565b60405180910390a35060019392505050565b60007f8b73c3c69bb8fe3d512ecc4cf759cc79239f7b179b0ffacaa9a75d522b39400f6001604051611a7591906123dd565b6040805191829003822060208301939093528101919091527fc89efdaa54c0f20c7adf612882df0950f5a951637e0307cdcb4c672f298b8bc660608201524660808201523060a082015260c00160405160208183030381529060405280519060200120905090565b601454600090801561081e57610819816108ac611707565b600060405163a9059cbb60e01b81526001600160a01b0384166004820152826024820152602060006044836000895af13d15601f3d1160016000511416171691505080611b765760405162461bcd60e51b815260206004820152600f60248201526e1514905394d1915497d19052531151608a1b6044820152606401610a6e565b50505050565b611b846108b4565b5050565b8060046000828254611b9a919061220e565b90915550506005546004541115611bc457604051632cdb04a160e21b815260040160405180910390fd5b6001600160a01b0382166000818152600660209081526040808320805486019055518481527fddf252ad1be2c89b69c2b068fc378daa952ba7f163c4a11628f55a4df523b3ef91015b60405180910390a35050565b60006040516323b872dd60e01b81526001600160a01b03851660048201526001600160a01b03841660248201528260448201526020600060648360008a5af13d15601f3d1160016000511416171691505080611cae5760405162461bcd60e51b81526020600482015260146024820152731514905394d1915497d19493d357d1905253115160621b6044820152606401610a6e565b5050505050565b601454600090801561081e57610819610811611707565b6001600160a01b03821660009081526006602052604081208054839290611cf490849061225b565b90915550506004805482900390556040518181526000906001600160a01b038416907fddf252ad1be2c89b69c2b068fc378daa952ba7f163c4a11628f55a4df523b3ef90602001611c0d565b611d4981611ddc565b50565b600b80546001600160a01b0319166001600160a01b038716908117909155600c8390556040805163313ce56760e01b81529051611cae928792879263313ce567916004808201926020929091908290030181865afa158015611db2573d6000803e3d6000fd5b505050506040513d601f19601f82011682018060405250810190611dd69190612453565b84611e25565b6001600160a01b038116611e035760405163d92e233d60e01b815260040160405180910390fd5b600080546001600160a01b0319166001600160a01b0392909216919091179055565b6001611e3185826124d5565b506002611e3e84826124d5565b506003805460ff191660ff8416179055600581905546600855611e5f611a43565b60095550505050565b600060208083528351808285015260005b81811015611e9557858101830151858201604001528201611e79565b506000604082860101526040601f19601f8301168501019250505092915050565b600060208284031215611ec857600080fd5b5035919050565b6001600160a01b0381168114611d4957600080fd5b60008060408385031215611ef757600080fd5b8235611f0281611ecf565b946020939093013593505050565b600080600060608486031215611f2557600080fd5b8335611f3081611ecf565b92506020840135611f4081611ecf565b929592945050506040919091013590565b600060208284031215611f6357600080fd5b813561082081611ecf565b60008083601f840112611f8057600080fd5b50813567ffffffffffffffff811115611f9857600080fd5b602083019150836020828501011115611fb057600080fd5b9250929050565b60008060208385031215611fca57600080fd5b823567ffffffffffffffff811115611fe157600080fd5b611fed85828601611f6e565b90969095509350505050565b6000806040838503121561200c57600080fd5b82359150602083013561201e81611ecf565b809150509250929050565b60008060006060848603121561203e57600080fd5b83359250602084013561205081611ecf565b9150604084013561206081611ecf565b809150509250925092565b6000806000806000806000806000806101008b8d03121561208b57600080fd5b8a3561209681611ecf565b995060208b013567ffffffffffffffff808211156120b357600080fd5b6120bf8e838f01611f6e565b909b50995060408d01359150808211156120d857600080fd5b506120e58d828e01611f6e565b90985096505060608b01356120f981611ecf565b945060808b0135935060a08b013561211081611ecf565b8093505060c08b0135915060e08b013590509295989b9194979a5092959850565b60ff81168114611d4957600080fd5b600080600080600080600060e0888a03121561215b57600080fd5b873561216681611ecf565b9650602088013561217681611ecf565b95506040880135945060608801359350608088013561219481612131565b9699959850939692959460a0840135945060c09093013592915050565b600080604083850312156121c457600080fd5b82356121cf81611ecf565b9150602083013561201e81611ecf565b6000602082840312156121f157600080fd5b5051919050565b634e487b7160e01b600052601160045260246000fd5b8082018082111561088e5761088e6121f8565b600181811c9082168061223557607f821691505b60208210810361225557634e487b7160e01b600052602260045260246000fd5b50919050565b8181038181111561088e5761088e6121f8565b600181815b808511156122a957816000190482111561228f5761228f6121f8565b8085161561229c57918102915b93841c9390800290612273565b509250929050565b6000826122c05750600161088e565b816122cd5750600061088e565b81600181146122e357600281146122ed57612309565b600191505061088e565b60ff8411156122fe576122fe6121f8565b50506001821b61088e565b5060208310610133831016604e8410600b841016171561232c575081810a61088e565b612336838361226e565b806000190482111561234a5761234a6121f8565b029392505050565b600061082060ff8416836122b1565b60208152816020820152818360408301376000818301604090810191909152601f909201601f19160101919050565b6000602082840312156123a257600080fd5b815161082081611ecf565b60ff828116828216039081111561088e5761088e6121f8565b808202811582820484141761088e5761088e6121f8565b60008083546123eb81612221565b60018281168015612403576001811461241857612447565b60ff1984168752821515830287019450612447565b8760005260208060002060005b8581101561243e5781548a820152908401908201612425565b50505082870194505b50929695505050505050565b60006020828403121561246557600080fd5b815161082081612131565b634e487b7160e01b600052604160045260246000fd5b601f8211156124d057600081815260208120601f850160051c810160208610156124ad5750805b601f850160051c820191505b818110156124cc578281556001016124b9565b5050505b505050565b815167ffffffffffffffff8111156124ef576124ef612470565b612503816124fd8454612221565b84612486565b602080601f83116001811461253857600084156125205750858301515b600019600386901b1c1916600185901b1785556124cc565b600085815260208120601f198616915b8281101561256757888601518255948401946001909101908401612548565b50858210156125855787850151600019600388901b60f8161c191681555b5050505050600190811b0190555056fea264697066735822122039ec90b2179ac4c68614e94b18792a3e0ed731968cd3257b9f14c41578229c6d64736f6c63430008110033",
    "linkReferences": {}
  },
  "methodIdentifiers": {
    "DOMAIN_SEPARATOR()": "3644e515",
    "accountManager()": "91c2c469",
    "admin()": "f851a440",
    "allowance(address,address)": "dd62ed3e",
    "approve(address,uint256)": "095ea7b3",
    "asset()": "38d52e0f",
    "balanceOf(address)": "70a08231",
    "borrows()": "ff3f60e7",
    "borrowsOf(address)": "bde4f477",
    "collectFrom(address,uint256)": "bf9836a6",
    "convertToAssets(uint256)": "07a2d13a",
    "convertToShares(uint256)": "c6e6f592",
    "decimals()": "313ce567",
    "deposit(uint256,address)": "6e553f65",
    "getBorrowBalance(address)": "7d6af079",
    "getBorrows()": "eae93e7e",
    "init(address,string,string,address,uint256,address,uint256,uint256)": "cbcafed2",
    "initDep(string)": "6b6d2586",
    "lastUpdated()": "d0b06f5d",
    "lendTo(address,uint256)": "6ab22cf0",
    "maxDeposit(address)": "402d267d",
    "maxMint(address)": "c63d75b6",
    "maxRedeem(address)": "d905777e",
    "maxSupply()": "d5abeb01",
    "maxWithdraw(address)": "ce96cb77",
    "mint(uint256,address)": "94bf804d",
    "name()": "06fdde03",
    "nonces(address)": "7ecebe00",
    "originationFee()": "b8bb5c42",
    "paused()": "5c975abb",
    "permit(address,address,uint256,uint256,uint8,bytes32,bytes32)": "d505accf",
    "previewDeposit(uint256)": "ef8b30f7",
    "previewMint(uint256)": "b3d7f6b9",
    "previewRedeem(uint256)": "4cdad506",
    "previewWithdraw(uint256)": "0a28a477",
    "rateModel()": "a1088459",
    "redeem(uint256,address,address)": "ba087652",
    "registry()": "7b103999",
    "symbol()": "95d89b41",
    "togglePause()": "c4ae3168",
    "totalAssets()": "01e1d114",
    "totalBorrowShares()": "136cf1f7",
    "totalSupply()": "18160ddd",
    "transfer(address,uint256)": "a9059cbb",
    "transferFrom(address,address,uint256)": "23b872dd",
    "transferOwnership(address)": "f2fde38b",
    "treasury()": "61d027b3",
    "updateMaxSupply(uint256)": "f103b433",
    "updateOriginationFee(uint256)": "6d47049a",
    "updateState()": "1d8557d7",
    "withdraw(uint256,address,address)": "b460af94"
  },
  "id": 69
}