{
  "abi": [
    {
      "inputs": [
        {
          "internalType": "address",
          "name": "_implementation",
          "type": "address"
        }
      ],
      "stateMutability": "nonpayable",
      "type": "constructor"
    },
    {
      "inputs": [],
      "name": "AdminOnly",
      "type": "error"
    },
    {
      "inputs": [],
      "name": "ZeroAddress",
      "type": "error"
    },
    {
      "anonymous": false,
      "inputs": [
        {
          "indexed": true,
          "internalType": "address",
          "name": "previousAdmin",
          "type": "address"
        },
        {
          "indexed": true,
          "internalType": "address",
          "name": "newAdmin",
          "type": "address"
        }
      ],
      "name": "OwnershipTransferred",
      "type": "event"
    },
    {
      "anonymous": false,
      "inputs": [
        {
          "indexed": true,
          "internalType": "address",
          "name": "implementation",
          "type": "address"
        }
      ],
      "name": "Upgraded",
      "type": "event"
    },
    {
      "inputs": [],
      "name": "admin",
      "outputs": [
        {
          "internalType": "address",
          "name": "",
          "type": "address"
        }
      ],
      "stateMutability": "view",
      "type": "function"
    },
    {
      "inputs": [],
      "name": "implementation",
      "outputs": [
        {
          "internalType": "address",
          "name": "",
          "type": "address"
        }
      ],
      "stateMutability": "view",
      "type": "function"
    },
    {
      "inputs": [
        {
          "internalType": "address",
          "name": "newAdmin",
          "type": "address"
        }
      ],
      "name": "transferOwnership",
      "outputs": [],
      "stateMutability": "nonpayable",
      "type": "function"
    },
    {
      "inputs": [
        {
          "internalType": "address",
          "name": "newImplementation",
          "type": "address"
        }
      ],
      "name": "upgradeTo",
      "outputs": [],
      "stateMutability": "nonpayable",
      "type": "function"
    }
  ],
  "bytecode": {
    "object": "0x608060405234801561001057600080fd5b5060405161032c38038061032c83398101604081905261002f916100a2565b61003833610059565b600180546001600160a01b0319166001600160a01b038316179055506100d2565b6001600160a01b0381166100805760405163d92e233d60e01b815260040160405180910390fd5b600080546001600160a01b0319166001600160a01b0392909216919091179055565b6000602082840312156100b457600080fd5b81516001600160a01b03811681146100cb57600080fd5b9392505050565b61024b806100e16000396000f3fe608060405234801561001057600080fd5b506004361061004c5760003560e01c80633659cfe6146100515780635c60da1b14610066578063f2fde38b14610095578063f851a440146100a8575b600080fd5b61006461005f3660046101e5565b6100bb565b005b600154610079906001600160a01b031681565b6040516001600160a01b03909116815260200160405180910390f35b6100646100a33660046101e5565b610138565b600054610079906001600160a01b031681565b6000546001600160a01b031633146100e657604051633057182d60e21b815260040160405180910390fd5b600180546001600160a01b0319166001600160a01b0383161790556040516001600160a01b038216907fbc7cd75a20ee27fd9adebab32041f755214dbc6bffa90cc0225b39da2e5c2d3b90600090a250565b6000546001600160a01b0316331461016357604051633057182d60e21b815260040160405180910390fd5b6001600160a01b03811661018a5760405163d92e233d60e01b815260040160405180910390fd5b600080546040516001600160a01b03808516939216917f8be0079c531659141344cd1fd0a4f28419497f9722a3daafe3b4186f6b6457e091a3600080546001600160a01b0319166001600160a01b0392909216919091179055565b6000602082840312156101f757600080fd5b81356001600160a01b038116811461020e57600080fd5b939250505056fea2646970667358221220b347f53f86654b7a6d3e1c961b2760a34d6d9a437641227cd9a8b8a1b879eced64736f6c63430008110033",
    "linkReferences": {}
  },
  "methodIdentifiers": {
    "admin()": "f851a440",
    "implementation()": "5c60da1b",
    "transferOwnership(address)": "f2fde38b",
    "upgradeTo(address)": "3659cfe6"
  },
  "id": 65
}