{
  "abi": [
    {
      "inputs": [],
      "name": "AccountDeactivationFailure",
      "type": "error"
    },
    {
      "inputs": [
        {
          "internalType": "address",
          "name": "",
          "type": "address"
        },
        {
          "internalType": "address",
          "name": "",
          "type": "address"
        },
        {
          "internalType": "uint256",
          "name": "",
          "type": "uint256"
        },
        {
          "internalType": "bytes",
          "name": "",
          "type": "bytes"
        }
      ],
      "name": "AccountInteractionFailure",
      "type": "error"
    },
    {
      "inputs": [],
      "name": "AccountNotLiquidatable",
      "type": "error"
    },
    {
      "inputs": [],
      "name": "AccountOwnerOnly",
      "type": "error"
    },
    {
      "inputs": [],
      "name": "AdminOnly",
      "type": "error"
    },
    {
      "inputs": [],
      "name": "CollateralTypeRestricted",
      "type": "error"
    },
    {
      "inputs": [],
      "name": "ContractAlreadyInitialized",
      "type": "error"
    },
    {
      "inputs": [],
      "name": "ContractPaused",
      "type": "error"
    },
    {
      "inputs": [],
      "name": "EthTransferFailure",
      "type": "error"
    },
    {
      "inputs": [],
      "name": "FunctionCallRestricted",
      "type": "error"
    },
    {
      "inputs": [],
      "name": "MaxAssetCap",
      "type": "error"
    },
    {
      "inputs": [],
      "name": "OutstandingDebt",
      "type": "error"
    },
    {
      "inputs": [],
      "name": "RiskThresholdBreached",
      "type": "error"
    },
    {
      "inputs": [],
      "name": "TokenNotContract",
      "type": "error"
    },
    {
      "inputs": [],
      "name": "VTokenUnavailable",
      "type": "error"
    },
    {
      "inputs": [],
      "name": "ZeroAddress",
      "type": "error"
    },
    {
      "anonymous": false,
      "inputs": [
        {
          "indexed": true,
          "internalType": "address",
          "name": "account",
          "type": "address"
        },
        {
          "indexed": true,
          "internalType": "address",
          "name": "owner",
          "type": "address"
        }
      ],
      "name": "AccountAssigned",
      "type": "event"
    },
    {
      "anonymous": false,
      "inputs": [
        {
          "indexed": true,
          "internalType": "address",
          "name": "account",
          "type": "address"
        },
        {
          "indexed": true,
          "internalType": "address",
          "name": "owner",
          "type": "address"
        }
      ],
      "name": "AccountClosed",
      "type": "event"
    },
    {
      "anonymous": false,
      "inputs": [
        {
          "indexed": true,
          "internalType": "address",
          "name": "account",
          "type": "address"
        },
        {
          "indexed": true,
          "internalType": "address",
          "name": "owner",
          "type": "address"
        }
      ],
      "name": "AccountLiquidated",
      "type": "event"
    },
    {
      "anonymous": false,
      "inputs": [
        {
          "indexed": true,
          "internalType": "address",
          "name": "account",
          "type": "address"
        },
        {
          "indexed": true,
          "internalType": "address",
          "name": "owner",
          "type": "address"
        },
        {
          "indexed": true,
          "internalType": "address",
          "name": "token",
          "type": "address"
        },
        {
          "indexed": false,
          "internalType": "uint256",
          "name": "amt",
          "type": "uint256"
        }
      ],
      "name": "Borrow",
      "type": "event"
    },
    {
      "anonymous": false,
      "inputs": [
        {
          "indexed": true,
          "internalType": "address",
          "name": "previousAdmin",
          "type": "address"
        },
        {
          "indexed": true,
          "internalType": "address",
          "name": "newAdmin",
          "type": "address"
        }
      ],
      "name": "OwnershipTransferred",
      "type": "event"
    },
    {
      "anonymous": false,
      "inputs": [
        {
          "indexed": true,
          "internalType": "address",
          "name": "admin",
          "type": "address"
        },
        {
          "indexed": false,
          "internalType": "bool",
          "name": "pause",
          "type": "bool"
        }
      ],
      "name": "PauseToggled",
      "type": "event"
    },
    {
      "anonymous": false,
      "inputs": [
        {
          "indexed": true,
          "internalType": "address",
          "name": "account",
          "type": "address"
        },
        {
          "indexed": true,
          "internalType": "address",
          "name": "owner",
          "type": "address"
        },
        {
          "indexed": true,
          "internalType": "address",
          "name": "token",
          "type": "address"
        },
        {
          "indexed": false,
          "internalType": "uint256",
          "name": "amt",
          "type": "uint256"
        }
      ],
      "name": "Repay",
      "type": "event"
    },
    {
      "inputs": [],
      "name": "accountFactory",
      "outputs": [
        {
          "internalType": "contract IAccountFactory",
          "name": "",
          "type": "address"
        }
      ],
      "stateMutability": "view",
      "type": "function"
    },
    {
      "inputs": [],
      "name": "admin",
      "outputs": [
        {
          "internalType": "address",
          "name": "",
          "type": "address"
        }
      ],
      "stateMutability": "view",
      "type": "function"
    },
    {
      "inputs": [
        {
          "internalType": "address",
          "name": "account",
          "type": "address"
        },
        {
          "internalType": "address",
          "name": "token",
          "type": "address"
        },
        {
          "internalType": "address",
          "name": "spender",
          "type": "address"
        },
        {
          "internalType": "uint256",
          "name": "amt",
          "type": "uint256"
        }
      ],
      "name": "approve",
      "outputs": [],
      "stateMutability": "nonpayable",
      "type": "function"
    },
    {
      "inputs": [],
      "name": "assetCap",
      "outputs": [
        {
          "internalType": "uint256",
          "name": "",
          "type": "uint256"
        }
      ],
      "stateMutability": "view",
      "type": "function"
    },
    {
      "inputs": [
        {
          "internalType": "address",
          "name": "account",
          "type": "address"
        },
        {
          "internalType": "address",
          "name": "token",
          "type": "address"
        },
        {
          "internalType": "uint256",
          "name": "amt",
          "type": "uint256"
        }
      ],
      "name": "borrow",
      "outputs": [],
      "stateMutability": "nonpayable",
      "type": "function"
    },
    {
      "inputs": [
        {
          "internalType": "address",
          "name": "_account",
          "type": "address"
        }
      ],
      "name": "closeAccount",
      "outputs": [],
      "stateMutability": "nonpayable",
      "type": "function"
    },
    {
      "inputs": [],
      "name": "controller",
      "outputs": [
        {
          "internalType": "contract IControllerFacade",
          "name": "",
          "type": "address"
        }
      ],
      "stateMutability": "view",
      "type": "function"
    },
    {
      "inputs": [
        {
          "internalType": "address",
          "name": "account",
          "type": "address"
        },
        {
          "internalType": "address",
          "name": "token",
          "type": "address"
        },
        {
          "internalType": "uint256",
          "name": "amt",
          "type": "uint256"
        }
      ],
      "name": "deposit",
      "outputs": [],
      "stateMutability": "nonpayable",
      "type": "function"
    },
    {
      "inputs": [
        {
          "internalType": "address",
          "name": "account",
          "type": "address"
        }
      ],
      "name": "depositEth",
      "outputs": [],
      "stateMutability": "payable",
      "type": "function"
    },
    {
      "inputs": [
        {
          "internalType": "address",
          "name": "account",
          "type": "address"
        },
        {
          "internalType": "address",
          "name": "target",
          "type": "address"
        },
        {
          "internalType": "uint256",
          "name": "amt",
          "type": "uint256"
        },
        {
          "internalType": "bytes",
          "name": "data",
          "type": "bytes"
        }
      ],
      "name": "exec",
      "outputs": [],
      "stateMutability": "nonpayable",
      "type": "function"
    },
    {
      "inputs": [
        {
          "internalType": "address",
          "name": "user",
          "type": "address"
        }
      ],
      "name": "getInactiveAccountsOf",
      "outputs": [
        {
          "internalType": "address[]",
          "name": "",
          "type": "address[]"
        }
      ],
      "stateMutability": "view",
      "type": "function"
    },
    {
      "inputs": [
        {
          "internalType": "address",
          "name": "",
          "type": "address"
        },
        {
          "internalType": "uint256",
          "name": "",
          "type": "uint256"
        }
      ],
      "name": "inactiveAccountsOf",
      "outputs": [
        {
          "internalType": "address",
          "name": "",
          "type": "address"
        }
      ],
      "stateMutability": "view",
      "type": "function"
    },
    {
      "inputs": [
        {
          "internalType": "contract IRegistry",
          "name": "_registry",
          "type": "address"
        }
      ],
      "name": "init",
      "outputs": [],
      "stateMutability": "nonpayable",
      "type": "function"
    },
    {
      "inputs": [],
      "name": "initDep",
      "outputs": [],
      "stateMutability": "nonpayable",
      "type": "function"
    },
    {
      "inputs": [
        {
          "internalType": "address",
          "name": "",
          "type": "address"
        }
      ],
      "name": "isCollateralAllowed",
      "outputs": [
        {
          "internalType": "bool",
          "name": "",
          "type": "bool"
        }
      ],
      "stateMutability": "view",
      "type": "function"
    },
    {
      "inputs": [
        {
          "internalType": "address",
          "name": "account",
          "type": "address"
        }
      ],
      "name": "liquidate",
      "outputs": [],
      "stateMutability": "nonpayable",
      "type": "function"
    },
    {
      "inputs": [
        {
          "internalType": "address",
          "name": "owner",
          "type": "address"
        }
      ],
      "name": "openAccount",
      "outputs": [
        {
          "internalType": "address",
          "name": "",
          "type": "address"
        }
      ],
      "stateMutability": "nonpayable",
      "type": "function"
    },
    {
      "inputs": [],
      "name": "paused",
      "outputs": [
        {
          "internalType": "bool",
          "name": "",
          "type": "bool"
        }
      ],
      "stateMutability": "view",
      "type": "function"
    },
    {
      "inputs": [],
      "name": "registry",
      "outputs": [
        {
          "internalType": "contract IRegistry",
          "name": "",
          "type": "address"
        }
      ],
      "stateMutability": "view",
      "type": "function"
    },
    {
      "inputs": [
        {
          "internalType": "address",
          "name": "account",
          "type": "address"
        },
        {
          "internalType": "address",
          "name": "token",
          "type": "address"
        },
        {
          "internalType": "uint256",
          "name": "amt",
          "type": "uint256"
        }
      ],
      "name": "repay",
      "outputs": [],
      "stateMutability": "nonpayable",
      "type": "function"
    },
    {
      "inputs": [],
      "name": "riskEngine",
      "outputs": [
        {
          "internalType": "contract IRiskEngine",
          "name": "",
          "type": "address"
        }
      ],
      "stateMutability": "view",
      "type": "function"
    },
    {
      "inputs": [
        {
          "internalType": "uint256",
          "name": "cap",
          "type": "uint256"
        }
      ],
      "name": "setAssetCap",
      "outputs": [],
      "stateMutability": "nonpayable",
      "type": "function"
    },
    {
      "inputs": [
        {
          "internalType": "address",
          "name": "account",
          "type": "address"
        }
      ],
      "name": "settle",
      "outputs": [],
      "stateMutability": "nonpayable",
      "type": "function"
    },
    {
      "inputs": [
        {
          "internalType": "address",
          "name": "token",
          "type": "address"
        }
      ],
      "name": "toggleCollateralStatus",
      "outputs": [],
      "stateMutability": "nonpayable",
      "type": "function"
    },
    {
      "inputs": [],
      "name": "togglePause",
      "outputs": [],
      "stateMutability": "nonpayable",
      "type": "function"
    },
    {
      "inputs": [
        {
          "internalType": "address",
          "name": "newAdmin",
          "type": "address"
        }
      ],
      "name": "transferOwnership",
      "outputs": [],
      "stateMutability": "nonpayable",
      "type": "function"
    },
    {
      "inputs": [
        {
          "internalType": "address",
          "name": "account",
          "type": "address"
        },
        {
          "internalType": "address",
          "name": "token",
          "type": "address"
        },
        {
          "internalType": "uint256",
          "name": "amt",
          "type": "uint256"
        }
      ],
      "name": "withdraw",
      "outputs": [],
      "stateMutability": "nonpayable",
      "type": "function"
    },
    {
      "inputs": [
        {
          "internalType": "address",
          "name": "account",
          "type": "address"
        },
        {
          "internalType": "uint256",
          "name": "amt",
          "type": "uint256"
        }
      ],
      "name": "withdrawEth",
      "outputs": [],
      "stateMutability": "nonpayable",
      "type": "function"
    }
  ],
  "bytecode": {
    "object": "0x608060405234801561001057600080fd5b50613c35806100206000396000f3fe6080604052600436106101b75760003560e01c80638c36c34c116100ec578063cb0673201161008a578063f19a4b1211610064578063f19a4b12146104ea578063f2fde38b1461050a578063f77c47911461052a578063f851a4401461054a57600080fd5b8063cb0673201461047a578063d9caed12146104aa578063dd336b94146104ca57600080fd5b8063b13ec794116100c6578063b13ec79414610403578063bf4c30b414610423578063c167997114610438578063c4ae31681461046557600080fd5b80638c36c34c146103b057806392b888ae146103d0578063ad9d4ba3146103f057600080fd5b80635224372c11610159578063687cd9c111610133578063687cd9c1146103305780636a256b29146103505780637b103999146103705780638340f5491461039057600080fd5b80635224372c146102bf57806359eba454146102df5780635c975abb146102ff57600080fd5b80631da649cf116101955780631da649cf1461023b57806328b7b0361461025b5780632f8655681461027b578063376c9cf81461029b57600080fd5b80630272f3a3146101bc57806319ab453c146101f95780631b9a91a41461021b575b600080fd5b3480156101c857600080fd5b506101dc6101d736600461358d565b61056a565b6040516001600160a01b0390911681526020015b60405180910390f35b34801561020557600080fd5b5061021961021436600461358d565b6108d1565b005b34801561022757600080fd5b506102196102363660046135b1565b61093f565b34801561024757600080fd5b506102196102563660046135dd565b610aba565b34801561026757600080fd5b5061021961027636600461361e565b610b92565b34801561028757600080fd5b5061021961029636600461358d565b610ee9565b3480156102a757600080fd5b506102b160085481565b6040519081526020016101f0565b3480156102cb57600080fd5b506102196102da3660046135dd565b61105e565b3480156102eb57600080fd5b506102196102fa3660046136bd565b61156e565b34801561030b57600080fd5b5060015461032090600160a01b900460ff1681565b60405190151581526020016101f0565b34801561033c57600080fd5b506005546101dc906001600160a01b031681565b34801561035c57600080fd5b5061021961036b36600461358d565b6116eb565b34801561037c57600080fd5b506002546101dc906001600160a01b031681565b34801561039c57600080fd5b506102196103ab3660046135dd565b61185b565b3480156103bc57600080fd5b506102196103cb36600461370e565b611af0565b3480156103dc57600080fd5b506003546101dc906001600160a01b031681565b6102196103fe36600461358d565b611b2c565b34801561040f57600080fd5b506101dc61041e3660046135b1565b611c35565b34801561042f57600080fd5b50610219611c6d565b34801561044457600080fd5b5061045861045336600461358d565b611e82565b6040516101f09190613727565b34801561047157600080fd5b50610219611ef8565b34801561048657600080fd5b5061032061049536600461358d565b60076020526000908152604090205460ff1681565b3480156104b657600080fd5b506102196104c53660046135dd565b611f89565b3480156104d657600080fd5b506102196104e536600461358d565b61217c565b3480156104f657600080fd5b5061021961050536600461358d565b6124c7565b34801561051657600080fd5b5061021961052536600461358d565b61251b565b34801561053657600080fd5b506004546101dc906001600160a01b031681565b34801561055657600080fd5b506001546101dc906001600160a01b031681565b600080546001146105965760405162461bcd60e51b815260040161058d90613774565b60405180910390fd5b6002600055600154600160a01b900460ff16156105c65760405163ab35696f60e01b815260040160405180910390fd5b6001600160a01b0382166105ed5760405163d92e233d60e01b815260040160405180910390fd5b6001600160a01b038216600090815260066020526040812054808203610743576005546040516313db266360e31b81523060048201526001600160a01b0390911690639ed93318906024016020604051808303816000875af1158015610657573d6000803e3d6000fd5b505050506040513d601f19601f8201168201806040525081019061067b9190613798565b60405163066ad14f60e21b81523060048201529092506001600160a01b038316906319ab453c90602401600060405180830381600087803b1580156106bf57600080fd5b505af11580156106d3573d6000803e3d6000fd5b50506002546040516349b51b1760e01b81526001600160a01b038681166004830152888116602483015290911692506349b51b179150604401600060405180830381600087803b15801561072657600080fd5b505af115801561073a573d6000803e3d6000fd5b5050505061083a565b6001600160a01b03841660009081526006602052604090206107666001836137cb565b81548110610776576107766137de565b60009182526020808320909101546001600160a01b038781168452600690925260409092208054919092169350806107b0576107b06137f4565b600082815260209020600019908201810180546001600160a01b03191690550190556002546040516382d6ea0960e01b81526001600160a01b0384811660048301528681166024830152909116906382d6ea0990604401600060405180830381600087803b15801561082157600080fd5b505af1158015610835573d6000803e3d6000fd5b505050505b816001600160a01b0316630f15f4c06040518163ffffffff1660e01b8152600401600060405180830381600087803b15801561087557600080fd5b505af1158015610889573d6000803e3d6000fd5b50506040516001600160a01b038088169350851691507fcfd71536d6c3b37f5bc42183ef1a719dec158fef9256a3cea977aa1fcf50737790600090a350600160005592915050565b600154600160a81b900460ff16156108fc57604051631ee1e30360e21b815260040160405180910390fd5b60016000819055805460ff60a81b1916600160a81b17905561091d336125c9565b600280546001600160a01b0319166001600160a01b0392909216919091179055565b6000546001146109615760405162461bcd60e51b815260040161058d90613774565b600260008190555460405160016207cc7d60e11b031981526001600160a01b0380851660048301528492339291169063fff0670690602401602060405180830381865afa1580156109b6573d6000803e3d6000fd5b505050506040513d601f19601f820116820180604052508101906109da9190613798565b6001600160a01b031614610a0157604051631a51c33160e21b815260040160405180910390fd5b6003546040516313bc24d960e31b81526001600160a01b038581166004830152600060248301526044820185905290911690639de126c8906064016020604051808303816000875af1158015610a5b573d6000803e3d6000fd5b505050506040513d601f19601f82011682018060405250810190610a7f919061381f565b610a9c5760405163017a815760e41b815260040160405180910390fd5b610ab06001600160a01b03841633846125d5565b5050600160005550565b600054600114610adc5760405162461bcd60e51b815260040161058d90613774565b600260008190555460405160016207cc7d60e11b031981526001600160a01b0380861660048301528592339291169063fff0670690602401602060405180830381865afa158015610b31573d6000803e3d6000fd5b505050506040513d601f19601f82011682018060405250810190610b559190613798565b6001600160a01b031614610b7c57604051631a51c33160e21b815260040160405180910390fd5b610b87848484612681565b505060016000555050565b600054600114610bb45760405162461bcd60e51b815260040161058d90613774565b600260008190555460405160016207cc7d60e11b031981526001600160a01b0380881660048301528792339291169063fff0670690602401602060405180830381865afa158015610c09573d6000803e3d6000fd5b505050506040513d601f19601f82011682018060405250810190610c2d9190613798565b6001600160a01b031614610c5457604051631a51c33160e21b815260040160405180910390fd5b60048054604051633414d09960e01b815260009260609283926001600160a01b0390911691633414d09991610c93918c918c1515918c918c9101613863565b600060405180830381865afa158015610cb0573d6000803e3d6000fd5b505050506040513d6000823e601f3d908101601f19168201604052610cd8919081019061396a565b9194509250905082610cfc57604051623bc65d60e91b815260040160405180910390fd5b604051630565bb6760e01b81526000906001600160a01b038b1690630565bb6790610d31908c908c908c908c906004016139de565b6000604051808303816000875af1158015610d50573d6000803e3d6000fd5b505050506040513d6000823e601f3d908101601f19168201604052610d789190810190613a2a565b50905080610da357898989898960405163ca4ea6f960e01b815260040161058d959493929190613ad1565b610dad8a846129f5565b610db78a83612b7b565b600854610dc5906001613b05565b8a6001600160a01b03166367e4ac2c6040518163ffffffff1660e01b8152600401600060405180830381865afa158015610e03573d6000803e3d6000fd5b505050506040513d6000823e601f3d908101601f19168201604052610e2b9190810190613b18565b511115610e4b57604051632329e14960e11b815260040160405180910390fd5b600354604051631b240c3160e11b81526001600160a01b038c81166004830152909116906336481862906024016020604051808303816000875af1158015610e97573d6000803e3d6000fd5b505050506040513d601f19601f82011682018060405250810190610ebb919061381f565b610ed85760405163017a815760e41b815260040160405180910390fd5b505060016000555050505050505050565b600054600114610f0b5760405162461bcd60e51b815260040161058d90613774565b6002600055600354604051631b240c3160e11b81526001600160a01b038381166004830152909116906336481862906024016020604051808303816000875af1158015610f5c573d6000803e3d6000fd5b505050506040513d601f19601f82011682018060405250810190610f80919061381f565b15610f9d57604051627616e960e61b815260040160405180910390fd5b610fa681612cfe565b60025460405160016207cc7d60e11b031981526001600160a01b0383811660048301529091169063fff0670690602401602060405180830381865afa158015610ff3573d6000803e3d6000fd5b505050506040513d601f19601f820116820180604052508101906110179190613798565b6001600160a01b0316816001600160a01b03167fde3f3279fe7da87a1ff3ffdc0b779506483f91465cfb3b447d86800078431ee360405160405180910390a3506001600055565b6000546001146110805760405162461bcd60e51b815260040161058d90613774565b6002600055600154600160a01b900460ff16156110b05760405163ab35696f60e01b815260040160405180910390fd5b60025460405160016207cc7d60e11b031981526001600160a01b0380861660048301528592339291169063fff0670690602401602060405180830381865afa158015611100573d6000803e3d6000fd5b505050506040513d601f19601f820116820180604052508101906111249190613798565b6001600160a01b03161461114b57604051631a51c33160e21b815260040160405180910390fd5b60025460405163a94ea6ed60e01b81526001600160a01b038581166004830152600092169063a94ea6ed90602401602060405180830381865afa158015611196573d6000803e3d6000fd5b505050506040513d601f19601f820116820180604052508101906111ba9190613798565b6001600160a01b0316036111e1576040516312258fc760e11b815260040160405180910390fd5b60405163a567fb4760e01b81526001600160a01b03848116600483015285169063a567fb47906024016020604051808303816000875af1158015611229573d6000803e3d6000fd5b505050506040513d601f19601f8201168201806040525081019061124d919061381f565b151560000361133b57600854846001600160a01b03166367e4ac2c6040518163ffffffff1660e01b8152600401600060405180830381865afa158015611297573d6000803e3d6000fd5b505050506040513d6000823e601f3d908101601f191682016040526112bf9190810190613b18565b5111156112df57604051632329e14960e11b815260040160405180910390fd5b60405163298410e560e01b81526001600160a01b03848116600483015285169063298410e590602401600060405180830381600087803b15801561132257600080fd5b505af1158015611336573d6000803e3d6000fd5b505050505b60025460405163a94ea6ed60e01b81526001600160a01b0385811660048301529091169063a94ea6ed90602401602060405180830381865afa158015611385573d6000803e3d6000fd5b505050506040513d601f19601f820116820180604052508101906113a99190613798565b6040516306ab22cf60e41b81526001600160a01b038681166004830152602482018590529190911690636ab22cf0906044016020604051808303816000875af11580156113fa573d6000803e3d6000fd5b505050506040513d601f19601f8201168201806040525081019061141e919061381f565b1561147f5760405163e30cbfa560e01b81526001600160a01b03848116600483015285169063e30cbfa590602401600060405180830381600087803b15801561146657600080fd5b505af115801561147a573d6000803e3d6000fd5b505050505b600354604051631b240c3160e11b81526001600160a01b038681166004830152909116906336481862906024016020604051808303816000875af11580156114cb573d6000803e3d6000fd5b505050506040513d601f19601f820116820180604052508101906114ef919061381f565b61150c5760405163017a815760e41b815260040160405180910390fd5b826001600160a01b0316336001600160a01b0316856001600160a01b03167f7752d0a9575185e5b5829ca2b99ad3129496a322603ef76773ee2ae2625018868560405161155b91815260200190565b60405180910390a4505060016000555050565b6000546001146115905760405162461bcd60e51b815260040161058d90613774565b600260008190555460405160016207cc7d60e11b031981526001600160a01b0380871660048301528692339291169063fff0670690602401602060405180830381865afa1580156115e5573d6000803e3d6000fd5b505050506040513d601f19601f820116820180604052508101906116099190613798565b6001600160a01b03161461163057604051631a51c33160e21b815260040160405180910390fd5b60048054604051630e1dd1cd60e41b81526001600160a01b03868116938201939093526000929091169063e1dd1cd090602401602060405180830381865afa158015611680573d6000803e3d6000fd5b505050506040513d601f19601f820116820180604052508101906116a49190613798565b6001600160a01b0316036116ca57604051623bc65d60e91b815260040160405180910390fd5b6116df6001600160a01b03861685858561307b565b50506001600055505050565b60005460011461170d5760405162461bcd60e51b815260040161058d90613774565b600260008190555460405160016207cc7d60e11b031981526001600160a01b0380841660048301528392339291169063fff0670690602401602060405180830381865afa158015611762573d6000803e3d6000fd5b505050506040513d601f19601f820116820180604052508101906117869190613798565b6001600160a01b0316146117ad57604051631a51c33160e21b815260040160405180910390fd5b6000826001600160a01b031663eae93e7e6040518163ffffffff1660e01b8152600401600060405180830381865afa1580156117ed573d6000803e3d6000fd5b505050506040513d6000823e601f3d908101601f191682016040526118159190810190613b18565b905060005b8151811015610b875761184984838381518110611839576118396137de565b6020026020010151600019612681565b8061185381613b55565b91505061181a565b60005460011461187d5760405162461bcd60e51b815260040161058d90613774565b6002600055600154600160a01b900460ff16156118ad5760405163ab35696f60e01b815260040160405180910390fd5b60025460405160016207cc7d60e11b031981526001600160a01b0380861660048301528592339291169063fff0670690602401602060405180830381865afa1580156118fd573d6000803e3d6000fd5b505050506040513d601f19601f820116820180604052508101906119219190613798565b6001600160a01b03161461194857604051631a51c33160e21b815260040160405180910390fd5b6001600160a01b03831660009081526007602052604090205460ff1661198157604051632125696360e21b815260040160405180910390fd5b60405163a567fb4760e01b81526001600160a01b03848116600483015285169063a567fb47906024016020604051808303816000875af11580156119c9573d6000803e3d6000fd5b505050506040513d601f19601f820116820180604052508101906119ed919061381f565b1515600003611adb57600854846001600160a01b03166367e4ac2c6040518163ffffffff1660e01b8152600401600060405180830381865afa158015611a37573d6000803e3d6000fd5b505050506040513d6000823e601f3d908101601f19168201604052611a5f9190810190613b18565b511115611a7f57604051632329e14960e11b815260040160405180910390fd5b60405163298410e560e01b81526001600160a01b03848116600483015285169063298410e590602401600060405180830381600087803b158015611ac257600080fd5b505af1158015611ad6573d6000803e3d6000fd5b505050505b610b876001600160a01b0384163386856131a2565b6001546001600160a01b03163314611b1b57604051633057182d60e21b815260040160405180910390fd5b611b266001826137cb565b60085550565b600054600114611b4e5760405162461bcd60e51b815260040161058d90613774565b6002600055600154600160a01b900460ff1615611b7e5760405163ab35696f60e01b815260040160405180910390fd5b60025460405160016207cc7d60e11b031981526001600160a01b0380841660048301528392339291169063fff0670690602401602060405180830381865afa158015611bce573d6000803e3d6000fd5b505050506040513d601f19601f82011682018060405250810190611bf29190613798565b6001600160a01b031614611c1957604051631a51c33160e21b815260040160405180910390fd5b611c2c6001600160a01b038316346132dd565b50506001600055565b60066020528160005260406000208181548110611c5157600080fd5b6000918252602090912001546001600160a01b03169150829050565b6001546001600160a01b03163314611c9857604051633057182d60e21b815260040160405180910390fd5b60025460405163bf40fac160e01b815260206004820152600b60248201526a5249534b5f454e47494e4560a81b60448201526001600160a01b039091169063bf40fac190606401602060405180830381865afa158015611cfc573d6000803e3d6000fd5b505050506040513d601f19601f82011682018060405250810190611d209190613798565b600380546001600160a01b0319166001600160a01b0392831617905560025460405163bf40fac160e01b815260206004820152600a60248201526921a7a72a2927a62622a960b11b604482015291169063bf40fac190606401602060405180830381865afa158015611d96573d6000803e3d6000fd5b505050506040513d601f19601f82011682018060405250810190611dba9190613798565b600480546001600160a01b039283166001600160a01b031990911617815560025460405163bf40fac160e01b815292169163bf40fac191611e1f91016020808252600f908201526e4143434f554e545f464143544f525960881b604082015260600190565b602060405180830381865afa158015611e3c573d6000803e3d6000fd5b505050506040513d601f19601f82011682018060405250810190611e609190613798565b600580546001600160a01b0319166001600160a01b0392909216919091179055565b6001600160a01b038116600090815260066020908152604091829020805483518184028101840190945280845260609392830182828015611eec57602002820191906000526020600020905b81546001600160a01b03168152600190910190602001808311611ece575b50505050509050919050565b6001546001600160a01b03163314611f2357604051633057182d60e21b815260040160405180910390fd5b6001805460ff600160a01b808304821615810260ff60a01b19909316929092179283905560405133937f79a5bc58b021076f821571d0fe8b0ae3d9e0a666563bb064fdbf0bf69281331c93611f7f939104161515815260200190565b60405180910390a2565b600054600114611fab5760405162461bcd60e51b815260040161058d90613774565b600260008190555460405160016207cc7d60e11b031981526001600160a01b0380861660048301528592339291169063fff0670690602401602060405180830381865afa158015612000573d6000803e3d6000fd5b505050506040513d601f19601f820116820180604052508101906120249190613798565b6001600160a01b03161461204b57604051631a51c33160e21b815260040160405180910390fd5b6003546040516313bc24d960e31b81526001600160a01b03868116600483015285811660248301526044820185905290911690639de126c8906064016020604051808303816000875af11580156120a6573d6000803e3d6000fd5b505050506040513d601f19601f820116820180604052508101906120ca919061381f565b6120e75760405163017a815760e41b815260040160405180910390fd5b6120fc6001600160a01b038516338585613370565b61210f6001600160a01b038416856134b8565b600003610b8757604051634a5e42b160e01b81526001600160a01b038481166004830152851690634a5e42b190602401600060405180830381600087803b15801561215957600080fd5b505af115801561216d573d6000803e3d6000fd5b50505050505060016000555050565b60005460011461219e5760405162461bcd60e51b815260040161058d90613774565b600260008190555460405160016207cc7d60e11b031981526001600160a01b0380841660048301528392339291169063fff0670690602401602060405180830381865afa1580156121f3573d6000803e3d6000fd5b505050506040513d601f19601f820116820180604052508101906122179190613798565b6001600160a01b03161461223e57604051631a51c33160e21b815260040160405180910390fd5b600082905043816001600160a01b03166380faa3d26040518163ffffffff1660e01b8152600401602060405180830381865afa158015612282573d6000803e3d6000fd5b505050506040513d601f19601f820116820180604052508101906122a69190613b6e565b036122c45760405163cfe4f11760e01b815260040160405180910390fd5b806001600160a01b0316635205c9b66040518163ffffffff1660e01b8152600401602060405180830381865afa158015612302573d6000803e3d6000fd5b505050506040513d601f19601f82011682018060405250810190612326919061381f565b61234357604051631d2197fd60e31b815260040160405180910390fd5b806001600160a01b03166351b42b006040518163ffffffff1660e01b8152600401600060405180830381600087803b15801561237e57600080fd5b505af1158015612392573d6000803e3d6000fd5b505060025460405163374cdae560e21b81526001600160a01b038781166004830152909116925063dd336b949150602401600060405180830381600087803b1580156123dd57600080fd5b505af11580156123f1573d6000803e3d6000fd5b50503360008181526006602090815260408083208054600181018255908452919092200180546001600160a01b0319166001600160a01b038981169190911790915590516301977ee560e71b815260048101929092528416925063cbbf72809150602401600060405180830381600087803b15801561246f57600080fd5b505af1158015612483573d6000803e3d6000fd5b50506040513392506001600160a01b03861691507fe669044e83e51fb3883c065740bec312de375c92654b381a093018bcd1a796e490600090a35050600160005550565b6001546001600160a01b031633146124f257604051633057182d60e21b815260040160405180910390fd5b6001600160a01b03166000908152600760205260409020805460ff19811660ff90911615179055565b6001546001600160a01b0316331461254657604051633057182d60e21b815260040160405180910390fd5b6001600160a01b03811661256d5760405163d92e233d60e01b815260040160405180910390fd5b6001546040516001600160a01b038084169216907f8be0079c531659141344cd1fd0a4f28419497f9722a3daafe3b4186f6b6457e090600090a3600180546001600160a01b0319166001600160a01b0392909216919091179055565b6125d28161352f565b50565b6040805160008082526020820192839052630565bb6760e01b9092526001600160a01b03851690630565bb6790612613908690869060248101613bb3565b6000604051808303816000875af1158015612632573d6000803e3d6000fd5b505050506040513d6000823e601f3d908101601f1916820160405261265a9190810190613a2a565b5090508061267b5760405163af2349ad60e01b815260040160405180910390fd5b50505050565b60025460405163a94ea6ed60e01b81526001600160a01b038481166004830152600092169063a94ea6ed90602401602060405180830381865afa1580156126cc573d6000803e3d6000fd5b505050506040513d601f19601f820116820180604052508101906126f09190613798565b90506001600160a01b038116612719576040516312258fc760e11b815260040160405180910390fd5b806001600160a01b0316631d8557d76040518163ffffffff1660e01b8152600401600060405180830381600087803b15801561275457600080fd5b505af1158015612768573d6000803e3d6000fd5b5050505060001982036127e257604051637d6af07960e01b81526001600160a01b038581166004830152821690637d6af07990602401602060405180830381865afa1580156127bb573d6000803e3d6000fd5b505050506040513d601f19601f820116820180604052508101906127df9190613b6e565b91505b6127f76001600160a01b038516828585613370565b604051635fcc1b5360e11b81526001600160a01b0385811660048301526024820184905282169063bf9836a6906044016020604051808303816000875af1158015612846573d6000803e3d6000fd5b505050506040513d601f19601f8201168201806040525081019061286a919061381f565b156128cb576040516364c1713d60e11b81526001600160a01b03848116600483015285169063c982e27a90602401600060405180830381600087803b1580156128b257600080fd5b505af11580156128c6573d6000803e3d6000fd5b505050505b6040516370a0823160e01b81526001600160a01b0385811660048301528416906370a0823190602401602060405180830381865afa158015612911573d6000803e3d6000fd5b505050506040513d601f19601f820116820180604052508101906129359190613b6e565b60000361299857604051634a5e42b160e01b81526001600160a01b038481166004830152851690634a5e42b190602401600060405180830381600087803b15801561297f57600080fd5b505af1158015612993573d6000803e3d6000fd5b505050505b826001600160a01b0316336001600160a01b0316856001600160a01b03167f4cdde6e09bb755c9a5589ebaec640bbfedff1362d4b255ebf8339782b9942faa856040516129e791815260200190565b60405180910390a450505050565b805160005b8181101561267b576000838281518110612a1657612a166137de565b602090810291909101015160405163a567fb4760e01b81526001600160a01b0380831660048301529192509086169063a567fb47906024016020604051808303816000875af1158015612a6d573d6000803e3d6000fd5b505050506040513d601f19601f82011682018060405250810190612a91919061381f565b158015612b0957506040516370a0823160e01b81526001600160a01b038681166004830152600091908316906370a0823190602401602060405180830381865afa158015612ae3573d6000803e3d6000fd5b505050506040513d601f19601f82011682018060405250810190612b079190613b6e565b115b15612b6a5760405163298410e560e01b81526001600160a01b03828116600483015286169063298410e590602401600060405180830381600087803b158015612b5157600080fd5b505af1158015612b65573d6000803e3d6000fd5b505050505b50612b7481613b55565b90506129fa565b805160005b8181101561267b57836001600160a01b031663a567fb47848381518110612ba957612ba96137de565b60200260200101516040518263ffffffff1660e01b8152600401612bdc91906001600160a01b0391909116815260200190565b6020604051808303816000875af1158015612bfb573d6000803e3d6000fd5b505050506040513d601f19601f82011682018060405250810190612c1f919061381f565b15156001148015612c625750612c6084848381518110612c4157612c416137de565b60200260200101516001600160a01b03166134b890919063ffffffff16565b155b15612cee57836001600160a01b0316634a5e42b1848381518110612c8857612c886137de565b60200260200101516040518263ffffffff1660e01b8152600401612cbb91906001600160a01b0391909116815260200190565b600060405180830381600087803b158015612cd557600080fd5b505af1158015612ce9573d6000803e3d6000fd5b505050505b612cf781613b55565b9050612b80565b60008190506000816001600160a01b031663eae93e7e6040518163ffffffff1660e01b8152600401600060405180830381865afa158015612d43573d6000803e3d6000fd5b505050506040513d6000823e601f3d908101601f19168201604052612d6b9190810190613b18565b8051909150600080805b83811015613019576000858281518110612d9157612d916137de565b602090810291909101015160025460405163a94ea6ed60e01b81526001600160a01b03808416600483015292935091169063a94ea6ed90602401602060405180830381865afa158015612de8573d6000803e3d6000fd5b505050506040513d601f19601f82011682018060405250810190612e0c9190613798565b9350836001600160a01b0316631d8557d76040518163ffffffff1660e01b8152600401600060405180830381600087803b158015612e4957600080fd5b505af1158015612e5d573d6000803e3d6000fd5b5050604051637d6af07960e01b81526001600160a01b038b8116600483015287169250637d6af0799150602401602060405180830381865afa158015612ea7573d6000803e3d6000fd5b505050506040513d601f19601f82011682018060405250810190612ecb9190613b6e565b9250612ee26001600160a01b0382163386866131a2565b604051635fcc1b5360e11b81526001600160a01b0389811660048301526024820185905285169063bf9836a6906044016020604051808303816000875af1158015612f31573d6000803e3d6000fd5b505050506040513d601f19601f82011682018060405250810190612f55919061381f565b506040516364c1713d60e11b81526001600160a01b03828116600483015288169063c982e27a90602401600060405180830381600087803b158015612f9957600080fd5b505af1158015612fad573d6000803e3d6000fd5b50505050806001600160a01b0316336001600160a01b0316896001600160a01b03167f4cdde6e09bb755c9a5589ebaec640bbfedff1362d4b255ebf8339782b9942faa8660405161300091815260200190565b60405180910390a45061301281613b55565b9050612d75565b506040516301977ee560e71b81523360048201526001600160a01b0386169063cbbf728090602401600060405180830381600087803b15801561305b57600080fd5b505af115801561306f573d6000803e3d6000fd5b50505050505050505050565b604080516001600160a01b038481166024830152604480830185905283518084039091018152606490920183526020820180516001600160e01b031663095ea7b360e01b1790529151630565bb6760e01b8152600092839290881691630565bb67916130ed9189918691600401613bb3565b6000604051808303816000875af115801561310c573d6000803e3d6000fd5b505050506040513d6000823e601f3d908101601f191682016040526131349190810190613a2a565b9150915081801561315d57508051158061315d57508080602001905181019061315d919061381f565b61319a5760405162461bcd60e51b815260206004820152600e60248201526d1054141493d59157d1905253115160921b604482015260640161058d565b505050505050565b6001600160a01b0384163b6131ca57604051630fea47fd60e31b815260040160405180910390fd5b604080516001600160a01b0385811660248301528481166044830152606480830185905283518084039091018152608490920183526020820180516001600160e01b03166323b872dd60e01b179052915160009283929088169161322e9190613be3565b6000604051808303816000865af19150503d806000811461326b576040519150601f19603f3d011682016040523d82523d6000602084013e613270565b606091505b509150915081801561329a57508051158061329a57508080602001905181019061329a919061381f565b61319a5760405162461bcd60e51b81526020600482015260146024820152731514905394d1915497d19493d357d1905253115160621b604482015260640161058d565b604080516000808252602082019092526001600160a01b0384169083906040516133079190613be3565b60006040518083038185875af1925050503d8060008114613344576040519150601f19603f3d011682016040523d82523d6000602084013e613349565b606091505b505090508061336b5760405163af2349ad60e01b815260040160405180910390fd5b505050565b6001600160a01b0382163b61339857604051630fea47fd60e31b815260040160405180910390fd5b604080516001600160a01b038581166024830152604480830185905283518084039091018152606490920183526020820180516001600160e01b031663a9059cbb60e01b1790529151630565bb6760e01b8152600092839290881691630565bb679161340a9188918691600401613bb3565b6000604051808303816000875af1158015613429573d6000803e3d6000fd5b505050506040513d6000823e601f3d908101601f191682016040526134519190810190613a2a565b9150915081801561347a57508051158061347a57508080602001905181019061347a919061381f565b61319a5760405162461bcd60e51b815260206004820152600f60248201526e1514905394d1915497d19052531151608a1b604482015260640161058d565b6040516370a0823160e01b81526001600160a01b038281166004830152600091908416906370a0823190602401602060405180830381865afa158015613502573d6000803e3d6000fd5b505050506040513d601f19601f820116820180604052508101906135269190613b6e565b90505b92915050565b6001600160a01b0381166135565760405163d92e233d60e01b815260040160405180910390fd5b600180546001600160a01b0319166001600160a01b0392909216919091179055565b6001600160a01b03811681146125d257600080fd5b60006020828403121561359f57600080fd5b81356135aa81613578565b9392505050565b600080604083850312156135c457600080fd5b82356135cf81613578565b946020939093013593505050565b6000806000606084860312156135f257600080fd5b83356135fd81613578565b9250602084013561360d81613578565b929592945050506040919091013590565b60008060008060006080868803121561363657600080fd5b853561364181613578565b9450602086013561365181613578565b935060408601359250606086013567ffffffffffffffff8082111561367557600080fd5b818801915088601f83011261368957600080fd5b81358181111561369857600080fd5b8960208285010111156136aa57600080fd5b9699959850939650602001949392505050565b600080600080608085870312156136d357600080fd5b84356136de81613578565b935060208501356136ee81613578565b925060408501356136fe81613578565b9396929550929360600135925050565b60006020828403121561372057600080fd5b5035919050565b6020808252825182820181905260009190848201906040850190845b818110156137685783516001600160a01b031683529284019291840191600101613743565b50909695505050505050565b6020808252600a90820152695245454e5452414e435960b01b604082015260600190565b6000602082840312156137aa57600080fd5b81516135aa81613578565b634e487b7160e01b600052601160045260246000fd5b81810381811115613529576135296137b5565b634e487b7160e01b600052603260045260246000fd5b634e487b7160e01b600052603160045260246000fd5b8051801515811461381a57600080fd5b919050565b60006020828403121561383157600080fd5b6135268261380a565b81835281816020850137506000828201602090810191909152601f909101601f19169091010190565b6001600160a01b03851681528315156020820152606060408201819052600090613890908301848661383a565b9695505050505050565b634e487b7160e01b600052604160045260246000fd5b604051601f8201601f1916810167ffffffffffffffff811182821017156138d9576138d961389a565b604052919050565b600082601f8301126138f257600080fd5b8151602067ffffffffffffffff82111561390e5761390e61389a565b8160051b61391d8282016138b0565b928352848101820192828101908785111561393757600080fd5b83870192505b8483101561395f57825161395081613578565b8252918301919083019061393d565b979650505050505050565b60008060006060848603121561397f57600080fd5b6139888461380a565b9250602084015167ffffffffffffffff808211156139a557600080fd5b6139b1878388016138e1565b935060408601519150808211156139c757600080fd5b506139d4868287016138e1565b9150509250925092565b60018060a01b038516815283602082015260606040820152600061389060608301848661383a565b60005b83811015613a21578181015183820152602001613a09565b50506000910152565b60008060408385031215613a3d57600080fd5b613a468361380a565b9150602083015167ffffffffffffffff80821115613a6357600080fd5b818501915085601f830112613a7757600080fd5b815181811115613a8957613a8961389a565b613a9c601f8201601f19166020016138b0565b9150808252866020828501011115613ab357600080fd5b613ac4816020840160208601613a06565b5080925050509250929050565b6001600160a01b038681168252851660208201526040810184905260806060820181905260009061395f908301848661383a565b80820180821115613529576135296137b5565b600060208284031215613b2a57600080fd5b815167ffffffffffffffff811115613b4157600080fd5b613b4d848285016138e1565b949350505050565b600060018201613b6757613b676137b5565b5060010190565b600060208284031215613b8057600080fd5b5051919050565b60008151808452613b9f816020860160208601613a06565b601f01601f19169290920160200192915050565b60018060a01b0384168152826020820152606060408201526000613bda6060830184613b87565b95945050505050565b60008251613bf5818460208701613a06565b919091019291505056fea26469706673582212207d43ecf309e32064819fbd90142dfa76cc763bc700970e3811d2ee2073fb158a64736f6c63430008110033",
    "linkReferences": {}
  },
  "methodIdentifiers": {
    "accountFactory()": "687cd9c1",
    "admin()": "f851a440",
    "approve(address,address,address,uint256)": "59eba454",
    "assetCap()": "376c9cf8",
    "borrow(address,address,uint256)": "5224372c",
    "closeAccount(address)": "dd336b94",
    "controller()": "f77c4791",
    "deposit(address,address,uint256)": "8340f549",
    "depositEth(address)": "ad9d4ba3",
    "exec(address,address,uint256,bytes)": "28b7b036",
    "getInactiveAccountsOf(address)": "c1679971",
    "inactiveAccountsOf(address,uint256)": "b13ec794",
    "init(address)": "19ab453c",
    "initDep()": "bf4c30b4",
    "isCollateralAllowed(address)": "cb067320",
    "liquidate(address)": "2f865568",
    "openAccount(address)": "0272f3a3",
    "paused()": "5c975abb",
    "registry()": "7b103999",
    "repay(address,address,uint256)": "1da649cf",
    "riskEngine()": "92b888ae",
    "setAssetCap(uint256)": "8c36c34c",
    "settle(address)": "6a256b29",
    "toggleCollateralStatus(address)": "f19a4b12",
    "togglePause()": "c4ae3168",
    "transferOwnership(address)": "f2fde38b",
    "withdraw(address,address,uint256)": "d9caed12",
    "withdrawEth(address,uint256)": "1b9a91a4"
  },
  "id": 48
}