{
  "abi": [
    {
      "inputs": [
        {
          "internalType": "contract IOracle",
          "name": "_oracle",
          "type": "address"
        }
      ],
      "stateMutability": "nonpayable",
      "type": "constructor"
    },
    {
      "inputs": [
        {
          "internalType": "address",
          "name": "pair",
          "type": "address"
        }
      ],
      "name": "getPrice",
      "outputs": [
        {
          "internalType": "uint256",
          "name": "",
          "type": "uint256"
        }
      ],
      "stateMutability": "nonpayable",
      "type": "function"
    },
    {
      "inputs": [],
      "name": "oracle",
      "outputs": [
        {
          "internalType": "contract IOracle",
          "name": "",
          "type": "address"
        }
      ],
      "stateMutability": "view",
      "type": "function"
    }
  ],
  "bytecode": {
    "object": "0x60a060405234801561001057600080fd5b5060405161092038038061092083398101604081905261002f91610040565b6001600160a01b0316608052610070565b60006020828403121561005257600080fd5b81516001600160a01b038116811461006957600080fd5b9392505050565b608051610888610098600039600081816066015281816103f8015261048801526108886000f3fe608060405234801561001057600080fd5b50600436106100365760003560e01c806341976e091461003b5780637dc0d1d014610061575b600080fd5b61004e610049366004610617565b6100a0565b6040519081526020015b60405180910390f35b6100887f000000000000000000000000000000000000000000000000000000000000000081565b6040516001600160a01b039091168152602001610058565b600080826001600160a01b0316630dfe16816040518163ffffffff1660e01b8152600401602060405180830381865afa1580156100e1573d6000803e3d6000fd5b505050506040513d601f19601f82011682018060405250810190610105919061063b565b90506000836001600160a01b031663d21220a76040518163ffffffff1660e01b8152600401602060405180830381865afa158015610147573d6000803e3d6000fd5b505050506040513d601f19601f8201168201806040525081019061016b919061063b565b9050600080856001600160a01b0316630902f1ac6040518163ffffffff1660e01b8152600401606060405180830381865afa1580156101ae573d6000803e3d6000fd5b505050506040513d601f19601f820116820180604052508101906101d29190610674565b506001600160701b031691506001600160701b031691506000846001600160a01b031663313ce5676040518163ffffffff1660e01b8152600401602060405180830381865afa158015610229573d6000803e3d6000fd5b505050506040513d601f19601f8201168201806040525081019061024d91906106c4565b60ff1690506000846001600160a01b031663313ce5676040518163ffffffff1660e01b8152600401602060405180830381865afa158015610292573d6000803e3d6000fd5b505050506040513d601f19601f820116820180604052508101906102b691906106c4565b60ff169050601282116102ea576102ce8260126106fd565b6102d990600a6107f4565b6102e39085610800565b935061030d565b6102f56012836106fd565b61030090600a6107f4565b61030a9085610817565b93505b6012811161033c576103208160126106fd565b61032b90600a6107f4565b6103359084610800565b925061035f565b6103476012826106fd565b61035290600a6107f4565b61035c9084610817565b92505b6105136b06765c793fa10079d0000000896001600160a01b03166318160ddd6040518163ffffffff1660e01b8152600401602060405180830381865afa1580156103ad573d6000803e3d6000fd5b505050506040513d601f19601f820116820180604052508101906103d19190610839565b6040516341976e0960e01b81526001600160a01b03898116600483015261050c91610507917f000000000000000000000000000000000000000000000000000000000000000016906341976e09906024016020604051808303816000875af1158015610441573d6000803e3d6000fd5b505050506040513d601f19601f820116820180604052508101906104659190610839565b6040516341976e0960e01b81526001600160a01b038d81166004830152610501917f0000000000000000000000000000000000000000000000000000000000000000909116906341976e09906024016020604051808303816000875af11580156104d3573d6000803e3d6000fd5b505050506040513d601f19601f820116820180604052508101906104f79190610839565b6105018c8c61051f565b9061051f565b61053d565b91906105e1565b98975050505050505050565b60006105348383670de0b6b3a76400006105e1565b90505b92915050565b60b581600160881b81106105565760409190911b9060801c5b690100000000000000000081106105725760209190911b9060401c5b65010000000000811061058a5760109190911b9060201c5b630100000081106105a05760089190911b9060101c5b62010000010260121c80820401600190811c80830401811c80830401811c80830401811c80830401811c80830401811c80830401901c908190048111900390565b60008260001904841183021582026105f857600080fd5b5091020490565b6001600160a01b038116811461061457600080fd5b50565b60006020828403121561062957600080fd5b8135610634816105ff565b9392505050565b60006020828403121561064d57600080fd5b8151610634816105ff565b80516001600160701b038116811461066f57600080fd5b919050565b60008060006060848603121561068957600080fd5b61069284610658565b92506106a060208501610658565b9150604084015163ffffffff811681146106b957600080fd5b809150509250925092565b6000602082840312156106d657600080fd5b815160ff8116811461063457600080fd5b634e487b7160e01b600052601160045260246000fd5b81810381811115610537576105376106e7565b600181815b8085111561074b578160001904821115610731576107316106e7565b8085161561073e57918102915b93841c9390800290610715565b509250929050565b60008261076257506001610537565b8161076f57506000610537565b8160018114610785576002811461078f576107ab565b6001915050610537565b60ff8411156107a0576107a06106e7565b50506001821b610537565b5060208310610133831016604e8410600b84101617156107ce575081810a610537565b6107d88383610710565b80600019048211156107ec576107ec6106e7565b029392505050565b60006105348383610753565b8082028115828204841417610537576105376106e7565b60008261083457634e487b7160e01b600052601260045260246000fd5b500490565b60006020828403121561084b57600080fd5b505191905056fea2646970667358221220dc4a8fdd1bd3b5ac6195655305f314584b7dd6622124f362342b0c0abb76a62664736f6c63430008110033",
    "linkReferences": {}
  },
  "methodIdentifiers": {
    "getPrice(address)": "41976e09",
    "oracle()": "7dc0d1d0"
  },
  "id": 35
}