{
  "abi": [
    {
      "inputs": [],
      "stateMutability": "nonpayable",
      "type": "constructor"
    },
    {
      "inputs": [],
      "name": "AdminOnly",
      "type": "error"
    },
    {
      "inputs": [],
      "name": "ZeroAddress",
      "type": "error"
    },
    {
      "anonymous": false,
      "inputs": [
        {
          "indexed": true,
          "internalType": "address",
          "name": "previousAdmin",
          "type": "address"
        },
        {
          "indexed": true,
          "internalType": "address",
          "name": "newAdmin",
          "type": "address"
        }
      ],
      "name": "OwnershipTransferred",
      "type": "event"
    },
    {
      "anonymous": false,
      "inputs": [
        {
          "indexed": true,
          "internalType": "address",
          "name": "target",
          "type": "address"
        },
        {
          "indexed": true,
          "internalType": "address",
          "name": "controller",
          "type": "address"
        }
      ],
      "name": "UpdateController",
      "type": "event"
    },
    {
      "inputs": [],
      "name": "admin",
      "outputs": [
        {
          "internalType": "address",
          "name": "",
          "type": "address"
        }
      ],
      "stateMutability": "view",
      "type": "function"
    },
    {
      "inputs": [
        {
          "internalType": "address",
          "name": "target",
          "type": "address"
        },
        {
          "internalType": "bool",
          "name": "useEth",
          "type": "bool"
        },
        {
          "internalType": "bytes",
          "name": "data",
          "type": "bytes"
        }
      ],
      "name": "canCall",
      "outputs": [
        {
          "internalType": "bool",
          "name": "isValid",
          "type": "bool"
        },
        {
          "internalType": "address[]",
          "name": "tokensIn",
          "type": "address[]"
        },
        {
          "internalType": "address[]",
          "name": "tokensOut",
          "type": "address[]"
        }
      ],
      "stateMutability": "view",
      "type": "function"
    },
    {
      "inputs": [
        {
          "internalType": "address",
          "name": "",
          "type": "address"
        }
      ],
      "name": "controllerFor",
      "outputs": [
        {
          "internalType": "contract IController",
          "name": "",
          "type": "address"
        }
      ],
      "stateMutability": "view",
      "type": "function"
    },
    {
      "inputs": [
        {
          "internalType": "address",
          "name": "",
          "type": "address"
        }
      ],
      "name": "isTokenAllowed",
      "outputs": [
        {
          "internalType": "bool",
          "name": "",
          "type": "bool"
        }
      ],
      "stateMutability": "view",
      "type": "function"
    },
    {
      "inputs": [
        {
          "internalType": "address",
          "name": "token",
          "type": "address"
        }
      ],
      "name": "toggleTokenAllowance",
      "outputs": [],
      "stateMutability": "nonpayable",
      "type": "function"
    },
    {
      "inputs": [
        {
          "internalType": "address",
          "name": "newAdmin",
          "type": "address"
        }
      ],
      "name": "transferOwnership",
      "outputs": [],
      "stateMutability": "nonpayable",
      "type": "function"
    },
    {
      "inputs": [
        {
          "internalType": "address",
          "name": "target",
          "type": "address"
        },
        {
          "internalType": "contract IController",
          "name": "controller",
          "type": "address"
        }
      ],
      "name": "updateController",
      "outputs": [],
      "stateMutability": "nonpayable",
      "type": "function"
    }
  ],
  "bytecode": {
    "object": "0x608060405234801561001057600080fd5b5033806100305760405163d92e233d60e01b815260040160405180910390fd5b600080546001600160a01b039092166001600160a01b03199092169190911790556107a3806100606000396000f3fe608060405234801561001057600080fd5b506004361061007d5760003560e01c8063e1dd1cd01161005b578063e1dd1cd0146100d5578063f2fde38b14610116578063f851a44014610129578063f9eaee0d1461013c57600080fd5b80633414d0991461008257806346439ee2146100ad5780635f436da2146100c2575b600080fd5b61009561009036600461043e565b61016f565b6040516100a493929190610514565b60405180910390f35b6100c06100bb36600461054b565b610223565b005b6100c06100d036600461056f565b610277565b6100fe6100e336600461054b565b6002602052600090815260409020546001600160a01b031681565b6040516001600160a01b0390911681526020016100a4565b6100c061012436600461054b565b6102f9565b6000546100fe906001600160a01b031681565b61015f61014a36600461054b565b60016020526000908152604090205460ff1681565b60405190151581526020016100a4565b6001600160a01b03808516600090815260026020526040808220549051633414d09960e01b81529192606092839290911690633414d099906101bb908a908a908a908a906004016105a8565b600060405180830381865afa1580156101d8573d6000803e3d6000fd5b505050506040513d6000823e601f3d908101601f1916820160405261020091908101906106b9565b91945092509050821561021957610216826103a6565b92505b9450945094915050565b6000546001600160a01b0316331461024e57604051633057182d60e21b815260040160405180910390fd5b6001600160a01b03166000908152600160205260409020805460ff19811660ff90911615179055565b6000546001600160a01b031633146102a257604051633057182d60e21b815260040160405180910390fd5b6001600160a01b0382811660008181526002602052604080822080546001600160a01b0319169486169485179055517f19b7d592cea0dfda222f6a4ea5c5a8d018ee9c6b1d0a917483a405de94eb26cd9190a35050565b6000546001600160a01b0316331461032457604051633057182d60e21b815260040160405180910390fd5b6001600160a01b03811661034b5760405163d92e233d60e01b815260040160405180910390fd5b600080546040516001600160a01b03808516939216917f8be0079c531659141344cd1fd0a4f28419497f9722a3daafe3b4186f6b6457e091a3600080546001600160a01b0319166001600160a01b0392909216919091179055565b6000805b825181101561040f57600160008483815181106103c9576103c9610730565b6020908102919091018101516001600160a01b031682528101919091526040016000205460ff166103fd5750600092915050565b8061040781610746565b9150506103aa565b50600192915050565b6001600160a01b038116811461042d57600080fd5b50565b801515811461042d57600080fd5b6000806000806060858703121561045457600080fd5b843561045f81610418565b9350602085013561046f81610430565b9250604085013567ffffffffffffffff8082111561048c57600080fd5b818701915087601f8301126104a057600080fd5b8135818111156104af57600080fd5b8860208285010111156104c157600080fd5b95989497505060200194505050565b600081518084526020808501945080840160005b838110156105095781516001600160a01b0316875295820195908201906001016104e4565b509495945050505050565b831515815260606020820152600061052f60608301856104d0565b828103604084015261054181856104d0565b9695505050505050565b60006020828403121561055d57600080fd5b813561056881610418565b9392505050565b6000806040838503121561058257600080fd5b823561058d81610418565b9150602083013561059d81610418565b809150509250929050565b6001600160a01b038516815283151560208201526060604082018190528101829052818360808301376000818301608090810191909152601f909201601f191601019392505050565b634e487b7160e01b600052604160045260246000fd5b805161061281610418565b919050565b600082601f83011261062857600080fd5b8151602067ffffffffffffffff80831115610645576106456105f1565b8260051b604051601f19603f8301168101818110848211171561066a5761066a6105f1565b60405293845285810183019383810192508785111561068857600080fd5b83870191505b848210156106ae5761069f82610607565b8352918301919083019061068e565b979650505050505050565b6000806000606084860312156106ce57600080fd5b83516106d981610430565b602085015190935067ffffffffffffffff808211156106f757600080fd5b61070387838801610617565b9350604086015191508082111561071957600080fd5b5061072686828701610617565b9150509250925092565b634e487b7160e01b600052603260045260246000fd5b60006001820161076657634e487b7160e01b600052601160045260246000fd5b506001019056fea2646970667358221220e48ab6b73ad7f52158bfe5d104324efc5d11628b4ec615cc95292fc4779173e964736f6c63430008110033",
    "linkReferences": {}
  },
  "methodIdentifiers": {
    "admin()": "f851a440",
    "canCall(address,bool,bytes)": "3414d099",
    "controllerFor(address)": "e1dd1cd0",
    "isTokenAllowed(address)": "f9eaee0d",
    "toggleTokenAllowance(address)": "46439ee2",
    "transferOwnership(address)": "f2fde38b",
    "updateController(address,address)": "5f436da2"
  },
  "id": 1
}