{
  "abi": [
    {
      "inputs": [
        {
          "internalType": "address",
          "name": "_logic",
          "type": "address"
        }
      ],
      "stateMutability": "nonpayable",
      "type": "constructor"
    },
    {
      "inputs": [],
      "name": "AddressNotContract",
      "type": "error"
    },
    {
      "inputs": [],
      "name": "AdminOnly",
      "type": "error"
    },
    {
      "inputs": [],
      "name": "ZeroAddress",
      "type": "error"
    },
    {
      "anonymous": false,
      "inputs": [
        {
          "indexed": false,
          "internalType": "address",
          "name": "previousAdmin",
          "type": "address"
        },
        {
          "indexed": false,
          "internalType": "address",
          "name": "newAdmin",
          "type": "address"
        }
      ],
      "name": "AdminChanged",
      "type": "event"
    },
    {
      "anonymous": false,
      "inputs": [
        {
          "indexed": true,
          "internalType": "address",
          "name": "newImplementation",
          "type": "address"
        }
      ],
      "name": "Upgraded",
      "type": "event"
    },
    {
      "stateMutability": "payable",
      "type": "fallback"
    },
    {
      "inputs": [
        {
          "internalType": "address",
          "name": "newAdmin",
          "type": "address"
        }
      ],
      "name": "changeAdmin",
      "outputs": [],
      "stateMutability": "nonpayable",
      "type": "function"
    },
    {
      "inputs": [
        {
          "internalType": "address",
          "name": "implementation",
          "type": "address"
        }
      ],
      "name": "changeImplementation",
      "outputs": [],
      "stateMutability": "nonpayable",
      "type": "function"
    },
    {
      "inputs": [],
      "name": "getAdmin",
      "outputs": [
        {
          "internalType": "address",
          "name": "",
          "type": "address"
        }
      ],
      "stateMutability": "view",
      "type": "function"
    },
    {
      "inputs": [],
      "name": "getImplementation",
      "outputs": [
        {
          "internalType": "address",
          "name": "",
          "type": "address"
        }
      ],
      "stateMutability": "view",
      "type": "function"
    },
    {
      "inputs": [
        {
          "internalType": "address",
          "name": "implementation",
          "type": "address"
        },
        {
          "internalType": "bytes",
          "name": "data",
          "type": "bytes"
        }
      ],
      "name": "upgradeToAndCall",
      "outputs": [],
      "stateMutability": "nonpayable",
      "type": "function"
    },
    {
      "stateMutability": "payable",
      "type": "receive"
    }
  ],
  "bytecode": {
    "object": "0x608060405234801561001057600080fd5b506040516107f83803806107f883398101604081905261002f916101b4565b61003881610047565b610041336100e6565b5061020b565b6001600160a01b03811661006e5760405163d92e233d60e01b815260040160405180910390fd5b6100af61009c60017f360894a13ba1a3210667c828492db98dca3e2076cc3735a920a3ca505d382bbd6101e4565b60001b8261017760201b6102701760201c565b6040516001600160a01b038216907fbc7cd75a20ee27fd9adebab32041f755214dbc6bffa90cc0225b39da2e5c2d3b90600090a250565b6001600160a01b03811661010d5760405163d92e233d60e01b815260040160405180910390fd5b7f7e644d79422f17c01e4894b5f4f588d331ebfa28653d42ae832dc59e38c9798f61013661017b565b604080516001600160a01b03928316815291841660208301520160405180910390a161017461009c60016000805160206107d88339815191526101e4565b50565b9055565b60006101ab61019960016000805160206107d88339815191526101e4565b60001b6101b060201b6102741760201c565b905090565b5490565b6000602082840312156101c657600080fd5b81516001600160a01b03811681146101dd57600080fd5b9392505050565b8181038181111561020557634e487b7160e01b600052601160045260246000fd5b92915050565b6105be8061021a6000396000f3fe60806040526004361061004e5760003560e01c806317a68dd8146100705780634f1ef286146100905780636e9960c3146100b05780638f283970146100e1578063aaf10f421461010157610065565b366100655761006361005e610112565b61014b565b005b61006361005e610112565b34801561007c57600080fd5b5061006361008b3660046104ac565b610170565b34801561009c57600080fd5b506100636100ab3660046104ce565b6101b5565b3480156100bc57600080fd5b506100c56101fe565b6040516001600160a01b03909116815260200160405180910390f35b3480156100ed57600080fd5b506100636100fc3660046104ac565b61022e565b34801561010d57600080fd5b506100c55b600061014661014260017f360894a13ba1a3210667c828492db98dca3e2076cc3735a920a3ca505d382bbd610551565b5490565b905090565b60405136600082376000803683855af43d806000843e81801561016c578184f35b8184fd5b6101786101fe565b6001600160a01b0316336001600160a01b0316146101a957604051633057182d60e21b815260040160405180910390fd5b6101b281610278565b50565b6101bd6101fe565b6001600160a01b0316336001600160a01b0316146101ee57604051633057182d60e21b815260040160405180910390fd5b6101f9838383610309565b505050565b600061014661014260017fb53127684a568b3173ae13b9f8a6016e243e63b6e8ee1178d6a717850b5d6104610551565b6102366101fe565b6001600160a01b0316336001600160a01b03161461026757604051633057182d60e21b815260040160405180910390fd5b6101b281610323565b9055565b5490565b6001600160a01b03811661029f5760405163d92e233d60e01b815260040160405180910390fd5b6102d26102cd60017f360894a13ba1a3210667c828492db98dca3e2076cc3735a920a3ca505d382bbd610551565b829055565b6040516001600160a01b038216907fbc7cd75a20ee27fd9adebab32041f755214dbc6bffa90cc0225b39da2e5c2d3b90600090a250565b61031283610278565b80156101f9576101f98383836103c3565b6001600160a01b03811661034a5760405163d92e233d60e01b815260040160405180910390fd5b7f7e644d79422f17c01e4894b5f4f588d331ebfa28653d42ae832dc59e38c9798f6103736101fe565b604080516001600160a01b03928316815291841660208301520160405180910390a16101b26102cd60017fb53127684a568b3173ae13b9f8a6016e243e63b6e8ee1178d6a717850b5d6104610551565b6001600160a01b0383163b6103eb57604051630a48311160e41b815260040160405180910390fd5b6000836001600160a01b03168383604051610407929190610578565b600060405180830381855af49150503d8060008114610442576040519150601f19603f3d011682016040523d82523d6000602084013e610447565b606091505b505090508061048a5760405162461bcd60e51b815260206004820152600b60248201526a10d0531317d1905253115160aa1b604482015260640160405180910390fd5b50505050565b80356001600160a01b03811681146104a757600080fd5b919050565b6000602082840312156104be57600080fd5b6104c782610490565b9392505050565b6000806000604084860312156104e357600080fd5b6104ec84610490565b9250602084013567ffffffffffffffff8082111561050957600080fd5b818601915086601f83011261051d57600080fd5b81358181111561052c57600080fd5b87602082850101111561053e57600080fd5b6020830194508093505050509250925092565b8181038181111561057257634e487b7160e01b600052601160045260246000fd5b92915050565b818382376000910190815291905056fea26469706673582212202eb06b3067c6e7cfed449640e0ed0fcfe7ab7a8cda37b08b684d15a299ae81c464736f6c63430008110033b53127684a568b3173ae13b9f8a6016e243e63b6e8ee1178d6a717850b5d6104",
    "linkReferences": {}
  },
  "methodIdentifiers": {
    "changeAdmin(address)": "8f283970",
    "changeImplementation(address)": "17a68dd8",
    "getAdmin()": "6e9960c3",
    "getImplementation()": "aaf10f42",
    "upgradeToAndCall(address,bytes)": "4f1ef286"
  },
  "id": 67
}