{
  "abi": [
    {
      "inputs": [],
      "name": "AccountManagerOnly",
      "type": "error"
    },
    {
      "inputs": [],
      "name": "ContractAlreadyInitialized",
      "type": "error"
    },
    {
      "inputs": [],
      "name": "EthTransferFailure",
      "type": "error"
    },
    {
      "inputs": [],
      "name": "accountManager",
      "outputs": [
        {
          "internalType": "address",
          "name": "",
          "type": "address"
        }
      ],
      "stateMutability": "view",
      "type": "function"
    },
    {
      "inputs": [],
      "name": "activate",
      "outputs": [],
      "stateMutability": "nonpayable",
      "type": "function"
    },
    {
      "inputs": [],
      "name": "activationBlock",
      "outputs": [
        {
          "internalType": "uint256",
          "name": "",
          "type": "uint256"
        }
      ],
      "stateMutability": "view",
      "type": "function"
    },
    {
      "inputs": [
        {
          "internalType": "address",
          "name": "token",
          "type": "address"
        }
      ],
      "name": "addAsset",
      "outputs": [],
      "stateMutability": "nonpayable",
      "type": "function"
    },
    {
      "inputs": [
        {
          "internalType": "address",
          "name": "token",
          "type": "address"
        }
      ],
      "name": "addBorrow",
      "outputs": [],
      "stateMutability": "nonpayable",
      "type": "function"
    },
    {
      "inputs": [
        {
          "internalType": "uint256",
          "name": "",
          "type": "uint256"
        }
      ],
      "name": "assets",
      "outputs": [
        {
          "internalType": "address",
          "name": "",
          "type": "address"
        }
      ],
      "stateMutability": "view",
      "type": "function"
    },
    {
      "inputs": [
        {
          "internalType": "uint256",
          "name": "",
          "type": "uint256"
        }
      ],
      "name": "borrows",
      "outputs": [
        {
          "internalType": "address",
          "name": "",
          "type": "address"
        }
      ],
      "stateMutability": "view",
      "type": "function"
    },
    {
      "inputs": [],
      "name": "deactivate",
      "outputs": [],
      "stateMutability": "nonpayable",
      "type": "function"
    },
    {
      "inputs": [
        {
          "internalType": "address",
          "name": "target",
          "type": "address"
        },
        {
          "internalType": "uint256",
          "name": "amt",
          "type": "uint256"
        },
        {
          "internalType": "bytes",
          "name": "data",
          "type": "bytes"
        }
      ],
      "name": "exec",
      "outputs": [
        {
          "internalType": "bool",
          "name": "",
          "type": "bool"
        },
        {
          "internalType": "bytes",
          "name": "",
          "type": "bytes"
        }
      ],
      "stateMutability": "nonpayable",
      "type": "function"
    },
    {
      "inputs": [],
      "name": "getAssets",
      "outputs": [
        {
          "internalType": "address[]",
          "name": "",
          "type": "address[]"
        }
      ],
      "stateMutability": "view",
      "type": "function"
    },
    {
      "inputs": [],
      "name": "getBorrows",
      "outputs": [
        {
          "internalType": "address[]",
          "name": "",
          "type": "address[]"
        }
      ],
      "stateMutability": "view",
      "type": "function"
    },
    {
      "inputs": [
        {
          "internalType": "address",
          "name": "",
          "type": "address"
        }
      ],
      "name": "hasAsset",
      "outputs": [
        {
          "internalType": "bool",
          "name": "",
          "type": "bool"
        }
      ],
      "stateMutability": "view",
      "type": "function"
    },
    {
      "inputs": [],
      "name": "hasNoDebt",
      "outputs": [
        {
          "internalType": "bool",
          "name": "",
          "type": "bool"
        }
      ],
      "stateMutability": "view",
      "type": "function"
    },
    {
      "inputs": [
        {
          "internalType": "address",
          "name": "_accountManager",
          "type": "address"
        }
      ],
      "name": "init",
      "outputs": [],
      "stateMutability": "nonpayable",
      "type": "function"
    },
    {
      "inputs": [
        {
          "internalType": "address",
          "name": "token",
          "type": "address"
        }
      ],
      "name": "removeAsset",
      "outputs": [],
      "stateMutability": "nonpayable",
      "type": "function"
    },
    {
      "inputs": [
        {
          "internalType": "address",
          "name": "token",
          "type": "address"
        }
      ],
      "name": "removeBorrow",
      "outputs": [],
      "stateMutability": "nonpayable",
      "type": "function"
    },
    {
      "inputs": [
        {
          "internalType": "address",
          "name": "toAddress",
          "type": "address"
        }
      ],
      "name": "sweepTo",
      "outputs": [],
      "stateMutability": "nonpayable",
      "type": "function"
    },
    {
      "stateMutability": "payable",
      "type": "receive"
    }
  ],
  "bytecode": {
    "object": "0x608060405234801561001057600080fd5b50610dd9806100206000396000f3fe6080604052600436106101025760003560e01c806367e4ac2c11610095578063c982e27a11610064578063c982e27a146102c1578063cbbf7280146102e1578063cf35bdd014610301578063e30cbfa514610321578063eae93e7e1461034157600080fd5b806367e4ac2c1461022b57806380faa3d21461024d57806391c2c46914610271578063a567fb471461029157600080fd5b8063298410e5116100d1578063298410e5146101b45780634a5e42b1146101d457806351b42b00146101f45780635205c9b61461020957600080fd5b80630565bb671461010e5780630f15f4c014610145578063191e9d7c1461015c57806319ab453c1461019457600080fd5b3661010957005b600080fd5b34801561011a57600080fd5b5061012e610129366004610b5f565b610356565b60405161013c929190610c0a565b60405180910390f35b34801561015157600080fd5b5061015a6103f7565b005b34801561016857600080fd5b5061017c610177366004610c46565b610428565b6040516001600160a01b03909116815260200161013c565b3480156101a057600080fd5b5061015a6101af366004610c5f565b610452565b3480156101c057600080fd5b5061015a6101cf366004610c5f565b61049e565b3480156101e057600080fd5b5061015a6101ef366004610c5f565b610530565b34801561020057600080fd5b5061015a610587565b34801561021557600080fd5b50600354155b604051901515815260200161013c565b34801561023757600080fd5b506102406105b8565b60405161013c9190610c7a565b34801561025957600080fd5b5061026360005481565b60405190815260200161013c565b34801561027d57600080fd5b5060015461017c906001600160a01b031681565b34801561029d57600080fd5b5061021b6102ac366004610c5f565b60046020526000908152604090205460ff1681565b3480156102cd57600080fd5b5061015a6102dc366004610c5f565b61061a565b3480156102ed57600080fd5b5061015a6102fc366004610c5f565b610653565b34801561030d57600080fd5b5061017c61031c366004610c46565b61080c565b34801561032d57600080fd5b5061015a61033c366004610c5f565b61081c565b34801561034d57600080fd5b50610240610899565b6001546000906060906001600160a01b031633146103875760405163fae067e560e01b815260040160405180910390fd5b600080876001600160a01b03168787876040516103a5929190610cc7565b60006040518083038185875af1925050503d80600081146103e2576040519150601f19603f3d011682016040523d82523d6000602084013e6103e7565b606091505b5090999098509650505050505050565b6001546001600160a01b031633146104225760405163fae067e560e01b815260040160405180910390fd5b43600055565b6003818154811061043857600080fd5b6000918252602090912001546001600160a01b0316905081565b6001546001600160a01b03161561047c57604051631ee1e30360e21b815260040160405180910390fd5b600180546001600160a01b0319166001600160a01b0392909216919091179055565b6001546001600160a01b031633146104c95760405163fae067e560e01b815260040160405180910390fd5b6002805460018181019092557f405787fa12a823e0f2b7631cc41b3ba8828b3321ca811111fa75cd3aa3bb5ace0180546001600160a01b039093166001600160a01b031990931683179055600091825260046020526040909120805460ff19169091179055565b6001546001600160a01b0316331461055b5760405163fae067e560e01b815260040160405180910390fd5b6105666002826108f9565b6001600160a01b03166000908152600460205260409020805460ff19169055565b6001546001600160a01b031633146105b25760405163fae067e560e01b815260040160405180910390fd5b60008055565b6060600280548060200260200160405190810160405280929190818152602001828054801561061057602002820191906000526020600020905b81546001600160a01b031681526001909101906020018083116105f2575b5050505050905090565b6001546001600160a01b031633146106455760405163fae067e560e01b815260040160405180910390fd5b6106506003826108f9565b50565b6001546001600160a01b0316331461067e5760405163fae067e560e01b815260040160405180910390fd5b60025460005b818110156107e8576002818154811061069f5761069f610cd7565b9060005260206000200160009054906101000a90046001600160a01b03166001600160a01b031663a9059cbb846106fe30600286815481106106e3576106e3610cd7565b6000918252602090912001546001600160a01b031690610a07565b6040516001600160e01b031960e085901b1681526001600160a01b03909216600483015260248201526044016020604051808303816000875af1925050508015610765575060408051601f3d908101601f1916820190925261076291810190610ced565b60015b1561076c57505b61078330600283815481106106e3576106e3610cd7565b6000036107d857600060046000600284815481106107a3576107a3610cd7565b6000918252602080832091909101546001600160a01b031683528201929092526040019020805460ff19169115159190911790555b6107e181610d2c565b9050610684565b506107f560026000610b11565b6108086001600160a01b03831647610a7e565b5050565b6002818154811061043857600080fd5b6001546001600160a01b031633146108475760405163fae067e560e01b815260040160405180910390fd5b600380546001810182556000919091527fc2575a0e9e593c00f959f8c92f12db2869c3395a3b0502d05e2516446f71f85b0180546001600160a01b0319166001600160a01b0392909216919091179055565b60606003805480602002602001604051908101604052809291908181526020018280548015610610576020028201919060005260206000209081546001600160a01b031681526001909101906020018083116105f2575050505050905090565b815460005b81811015610a0157826001600160a01b031684828154811061092257610922610cd7565b6000918252602090912001546001600160a01b0316036109f1578354849061094c90600190610d45565b8154811061095c5761095c610cd7565b9060005260206000200160009054906101000a90046001600160a01b031684828154811061098c5761098c610cd7565b9060005260206000200160006101000a8154816001600160a01b0302191690836001600160a01b03160217905550838054806109ca576109ca610d58565b600082815260209020810160001990810180546001600160a01b0319169055019055610a01565b6109fa81610d2c565b90506108fe565b50505050565b6040516370a0823160e01b81526001600160a01b038281166004830152600091908416906370a0823190602401602060405180830381865afa158015610a51573d6000803e3d6000fd5b505050506040513d601f19601f82011682018060405250810190610a759190610d6e565b90505b92915050565b604080516000808252602082019092526001600160a01b038416908390604051610aa89190610d87565b60006040518083038185875af1925050503d8060008114610ae5576040519150601f19603f3d011682016040523d82523d6000602084013e610aea565b606091505b5050905080610b0c5760405163af2349ad60e01b815260040160405180910390fd5b505050565b508054600082559060005260206000209081019061065091905b80821115610b3f5760008155600101610b2b565b5090565b80356001600160a01b0381168114610b5a57600080fd5b919050565b60008060008060608587031215610b7557600080fd5b610b7e85610b43565b935060208501359250604085013567ffffffffffffffff80821115610ba257600080fd5b818701915087601f830112610bb657600080fd5b813581811115610bc557600080fd5b886020828501011115610bd757600080fd5b95989497505060200194505050565b60005b83811015610c01578181015183820152602001610be9565b50506000910152565b82151581526040602082015260008251806040840152610c31816060850160208701610be6565b601f01601f1916919091016060019392505050565b600060208284031215610c5857600080fd5b5035919050565b600060208284031215610c7157600080fd5b610a7582610b43565b6020808252825182820181905260009190848201906040850190845b81811015610cbb5783516001600160a01b031683529284019291840191600101610c96565b50909695505050505050565b8183823760009101908152919050565b634e487b7160e01b600052603260045260246000fd5b600060208284031215610cff57600080fd5b81518015158114610d0f57600080fd5b9392505050565b634e487b7160e01b600052601160045260246000fd5b600060018201610d3e57610d3e610d16565b5060010190565b81810381811115610a7857610a78610d16565b634e487b7160e01b600052603160045260246000fd5b600060208284031215610d8057600080fd5b5051919050565b60008251610d99818460208701610be6565b919091019291505056fea2646970667358221220994c9b33395356a0a8e05e1361b0719abdb6ee877172619ab11c0e881e870e2964736f6c63430008110033",
    "linkReferences": {}
  },
  "methodIdentifiers": {
    "accountManager()": "91c2c469",
    "activate()": "0f15f4c0",
    "activationBlock()": "80faa3d2",
    "addAsset(address)": "298410e5",
    "addBorrow(address)": "e30cbfa5",
    "assets(uint256)": "cf35bdd0",
    "borrows(uint256)": "191e9d7c",
    "deactivate()": "51b42b00",
    "exec(address,uint256,bytes)": "0565bb67",
    "getAssets()": "67e4ac2c",
    "getBorrows()": "eae93e7e",
    "hasAsset(address)": "a567fb47",
    "hasNoDebt()": "5205c9b6",
    "init(address)": "19ab453c",
    "removeAsset(address)": "4a5e42b1",
    "removeBorrow(address)": "c982e27a",
    "sweepTo(address)": "cbbf7280"
  },
  "id": 46
}