{
  "_format": "hh-sol-artifact-1",
  "contractName": "OrderBook",
  "sourceName": "contracts/orderbook/OrderBook.sol",
  "abi": [
    {
      "anonymous": false,
      "inputs": [
        {
          "indexed": true,
          "internalType": "address",
          "name": "newBroker",
          "type": "address"
        }
      ],
      "name": "AddBroker",
      "type": "event"
    },
    {
      "anonymous": false,
      "inputs": [
        {
          "indexed": true,
          "internalType": "address",
          "name": "newRebalancer",
          "type": "address"
        }
      ],
      "name": "AddRebalancer",
      "type": "event"
    },
    {
      "anonymous": false,
      "inputs": [
        {
          "indexed": false,
          "internalType": "uint64",
          "name": "orderId",
          "type": "uint64"
        },
        {
          "indexed": false,
          "internalType": "enum OrderType",
          "name": "orderType",
          "type": "uint8"
        },
        {
          "indexed": false,
          "internalType": "bytes32[3]",
          "name": "orderData",
          "type": "bytes32[3]"
        }
      ],
      "name": "CancelOrder",
      "type": "event"
    },
    {
      "anonymous": false,
      "inputs": [
        {
          "indexed": false,
          "internalType": "uint64",
          "name": "orderId",
          "type": "uint64"
        },
        {
          "indexed": false,
          "internalType": "enum OrderType",
          "name": "orderType",
          "type": "uint8"
        },
        {
          "indexed": false,
          "internalType": "bytes32[3]",
          "name": "orderData",
          "type": "bytes32[3]"
        }
      ],
      "name": "FillOrder",
      "type": "event"
    },
    {
      "anonymous": false,
      "inputs": [
        {
          "indexed": true,
          "internalType": "address",
          "name": "account",
          "type": "address"
        },
        {
          "indexed": true,
          "internalType": "uint64",
          "name": "orderId",
          "type": "uint64"
        },
        {
          "indexed": false,
          "internalType": "uint8",
          "name": "assetId",
          "type": "uint8"
        },
        {
          "indexed": false,
          "internalType": "uint96",
          "name": "rawAmount",
          "type": "uint96"
        },
        {
          "indexed": false,
          "internalType": "bool",
          "name": "isAdding",
          "type": "bool"
        }
      ],
      "name": "NewLiquidityOrder",
      "type": "event"
    },
    {
      "anonymous": false,
      "inputs": [
        {
          "indexed": true,
          "internalType": "bytes32",
          "name": "subAccountId",
          "type": "bytes32"
        },
        {
          "indexed": true,
          "internalType": "uint64",
          "name": "orderId",
          "type": "uint64"
        },
        {
          "indexed": false,
          "internalType": "uint96",
          "name": "collateral",
          "type": "uint96"
        },
        {
          "indexed": false,
          "internalType": "uint96",
          "name": "size",
          "type": "uint96"
        },
        {
          "indexed": false,
          "internalType": "uint96",
          "name": "price",
          "type": "uint96"
        },
        {
          "indexed": false,
          "internalType": "uint8",
          "name": "profitTokenId",
          "type": "uint8"
        },
        {
          "indexed": false,
          "internalType": "uint8",
          "name": "flags",
          "type": "uint8"
        },
        {
          "indexed": false,
          "internalType": "uint32",
          "name": "deadline",
          "type": "uint32"
        }
      ],
      "name": "NewPositionOrder",
      "type": "event"
    },
    {
      "anonymous": false,
      "inputs": [
        {
          "indexed": true,
          "internalType": "bytes32",
          "name": "subAccountId",
          "type": "bytes32"
        },
        {
          "indexed": true,
          "internalType": "uint64",
          "name": "orderId",
          "type": "uint64"
        },
        {
          "indexed": false,
          "internalType": "uint96",
          "name": "collateral",
          "type": "uint96"
        },
        {
          "indexed": false,
          "internalType": "uint96",
          "name": "size",
          "type": "uint96"
        },
        {
          "indexed": false,
          "internalType": "uint96",
          "name": "price",
          "type": "uint96"
        },
        {
          "indexed": false,
          "internalType": "uint8",
          "name": "profitTokenId",
          "type": "uint8"
        },
        {
          "indexed": false,
          "internalType": "uint8",
          "name": "flags",
          "type": "uint8"
        },
        {
          "indexed": false,
          "internalType": "uint32",
          "name": "deadline",
          "type": "uint32"
        },
        {
          "components": [
            {
              "internalType": "uint96",
              "name": "tpPrice",
              "type": "uint96"
            },
            {
              "internalType": "uint96",
              "name": "slPrice",
              "type": "uint96"
            },
            {
              "internalType": "uint8",
              "name": "tpslProfitTokenId",
              "type": "uint8"
            },
            {
              "internalType": "uint32",
              "name": "tpslDeadline",
              "type": "uint32"
            }
          ],
          "indexed": false,
          "internalType": "struct PositionOrderExtra",
          "name": "extra",
          "type": "tuple"
        }
      ],
      "name": "NewPositionOrderExtra",
      "type": "event"
    },
    {
      "anonymous": false,
      "inputs": [
        {
          "indexed": true,
          "internalType": "address",
          "name": "rebalancer",
          "type": "address"
        },
        {
          "indexed": true,
          "internalType": "uint64",
          "name": "orderId",
          "type": "uint64"
        },
        {
          "indexed": false,
          "internalType": "uint8",
          "name": "tokenId0",
          "type": "uint8"
        },
        {
          "indexed": false,
          "internalType": "uint8",
          "name": "tokenId1",
          "type": "uint8"
        },
        {
          "indexed": false,
          "internalType": "uint96",
          "name": "rawAmount0",
          "type": "uint96"
        },
        {
          "indexed": false,
          "internalType": "uint96",
          "name": "maxRawAmount1",
          "type": "uint96"
        },
        {
          "indexed": false,
          "internalType": "bytes32",
          "name": "userData",
          "type": "bytes32"
        }
      ],
      "name": "NewRebalanceOrder",
      "type": "event"
    },
    {
      "anonymous": false,
      "inputs": [
        {
          "indexed": true,
          "internalType": "bytes32",
          "name": "subAccountId",
          "type": "bytes32"
        },
        {
          "indexed": true,
          "internalType": "uint64",
          "name": "orderId",
          "type": "uint64"
        },
        {
          "indexed": false,
          "internalType": "uint96",
          "name": "rawAmount",
          "type": "uint96"
        },
        {
          "indexed": false,
          "internalType": "uint8",
          "name": "profitTokenId",
          "type": "uint8"
        },
        {
          "indexed": false,
          "internalType": "bool",
          "name": "isProfit",
          "type": "bool"
        }
      ],
      "name": "NewWithdrawalOrder",
      "type": "event"
    },
    {
      "anonymous": false,
      "inputs": [
        {
          "indexed": true,
          "internalType": "address",
          "name": "previousOwner",
          "type": "address"
        },
        {
          "indexed": true,
          "internalType": "address",
          "name": "newOwner",
          "type": "address"
        }
      ],
      "name": "OwnershipTransferred",
      "type": "event"
    },
    {
      "anonymous": false,
      "inputs": [
        {
          "indexed": false,
          "internalType": "bool",
          "name": "isPaused",
          "type": "bool"
        }
      ],
      "name": "PauseLiquidityOrder",
      "type": "event"
    },
    {
      "anonymous": false,
      "inputs": [
        {
          "indexed": false,
          "internalType": "bool",
          "name": "isPaused",
          "type": "bool"
        }
      ],
      "name": "PausePositionOrder",
      "type": "event"
    },
    {
      "anonymous": false,
      "inputs": [
        {
          "indexed": true,
          "internalType": "address",
          "name": "pendingOwner",
          "type": "address"
        }
      ],
      "name": "PrepareToTransferOwnership",
      "type": "event"
    },
    {
      "anonymous": false,
      "inputs": [
        {
          "indexed": true,
          "internalType": "address",
          "name": "broker",
          "type": "address"
        }
      ],
      "name": "RemoveBroker",
      "type": "event"
    },
    {
      "anonymous": false,
      "inputs": [
        {
          "indexed": true,
          "internalType": "address",
          "name": "rebalancer",
          "type": "address"
        }
      ],
      "name": "RemoveRebalancer",
      "type": "event"
    },
    {
      "anonymous": false,
      "inputs": [
        {
          "indexed": true,
          "internalType": "address",
          "name": "aggregatorAddress",
          "type": "address"
        },
        {
          "indexed": false,
          "internalType": "bool",
          "name": "isEnable",
          "type": "bool"
        }
      ],
      "name": "SetAggregator",
      "type": "event"
    },
    {
      "anonymous": false,
      "inputs": [
        {
          "indexed": false,
          "internalType": "uint32",
          "name": "oldLockPeriod",
          "type": "uint32"
        },
        {
          "indexed": false,
          "internalType": "uint32",
          "name": "newLockPeriod",
          "type": "uint32"
        }
      ],
      "name": "SetLiquidityLockPeriod",
      "type": "event"
    },
    {
      "anonymous": false,
      "inputs": [
        {
          "indexed": true,
          "internalType": "address",
          "name": "newMaintainer",
          "type": "address"
        }
      ],
      "name": "SetMaintainer",
      "type": "event"
    },
    {
      "anonymous": false,
      "inputs": [
        {
          "indexed": false,
          "internalType": "uint32",
          "name": "marketOrderTimeout",
          "type": "uint32"
        },
        {
          "indexed": false,
          "internalType": "uint32",
          "name": "maxLimitOrderTimeout",
          "type": "uint32"
        }
      ],
      "name": "SetOrderTimeout",
      "type": "event"
    },
    {
      "anonymous": false,
      "inputs": [
        {
          "indexed": false,
          "internalType": "address",
          "name": "newReferralManager",
          "type": "address"
        }
      ],
      "name": "SetReferralManager",
      "type": "event"
    },
    {
      "inputs": [
        {
          "internalType": "address",
          "name": "newBroker",
          "type": "address"
        }
      ],
      "name": "addBroker",
      "outputs": [],
      "stateMutability": "nonpayable",
      "type": "function"
    },
    {
      "inputs": [
        {
          "internalType": "address",
          "name": "newRebalancer",
          "type": "address"
        }
      ],
      "name": "addRebalancer",
      "outputs": [],
      "stateMutability": "nonpayable",
      "type": "function"
    },
    {
      "inputs": [
        {
          "internalType": "address",
          "name": "broker",
          "type": "address"
        }
      ],
      "name": "brokers",
      "outputs": [
        {
          "internalType": "bool",
          "name": "",
          "type": "bool"
        }
      ],
      "stateMutability": "view",
      "type": "function"
    },
    {
      "inputs": [
        {
          "internalType": "uint64",
          "name": "orderId",
          "type": "uint64"
        }
      ],
      "name": "cancelOrder",
      "outputs": [],
      "stateMutability": "nonpayable",
      "type": "function"
    },
    {
      "inputs": [],
      "name": "claimBrokerGasRebate",
      "outputs": [
        {
          "internalType": "uint256",
          "name": "rawAmount",
          "type": "uint256"
        }
      ],
      "stateMutability": "nonpayable",
      "type": "function"
    },
    {
      "inputs": [
        {
          "internalType": "bytes32",
          "name": "subAccountId",
          "type": "bytes32"
        },
        {
          "internalType": "uint256",
          "name": "collateralAmount",
          "type": "uint256"
        }
      ],
      "name": "depositCollateral",
      "outputs": [],
      "stateMutability": "payable",
      "type": "function"
    },
    {
      "inputs": [
        {
          "internalType": "uint64",
          "name": "orderId",
          "type": "uint64"
        },
        {
          "internalType": "uint96",
          "name": "assetPrice",
          "type": "uint96"
        },
        {
          "internalType": "uint96",
          "name": "mlpPrice",
          "type": "uint96"
        },
        {
          "internalType": "uint96",
          "name": "currentAssetValue",
          "type": "uint96"
        },
        {
          "internalType": "uint96",
          "name": "targetAssetValue",
          "type": "uint96"
        }
      ],
      "name": "fillLiquidityOrder",
      "outputs": [],
      "stateMutability": "nonpayable",
      "type": "function"
    },
    {
      "inputs": [
        {
          "internalType": "uint64",
          "name": "orderId",
          "type": "uint64"
        },
        {
          "internalType": "uint96",
          "name": "collateralPrice",
          "type": "uint96"
        },
        {
          "internalType": "uint96",
          "name": "assetPrice",
          "type": "uint96"
        },
        {
          "internalType": "uint96",
          "name": "profitAssetPrice",
          "type": "uint96"
        }
      ],
      "name": "fillPositionOrder",
      "outputs": [],
      "stateMutability": "nonpayable",
      "type": "function"
    },
    {
      "inputs": [
        {
          "internalType": "uint64",
          "name": "orderId",
          "type": "uint64"
        },
        {
          "internalType": "uint96",
          "name": "price0",
          "type": "uint96"
        },
        {
          "internalType": "uint96",
          "name": "price1",
          "type": "uint96"
        }
      ],
      "name": "fillRebalanceOrder",
      "outputs": [],
      "stateMutability": "nonpayable",
      "type": "function"
    },
    {
      "inputs": [
        {
          "internalType": "uint64",
          "name": "orderId",
          "type": "uint64"
        },
        {
          "internalType": "uint96",
          "name": "collateralPrice",
          "type": "uint96"
        },
        {
          "internalType": "uint96",
          "name": "assetPrice",
          "type": "uint96"
        },
        {
          "internalType": "uint96",
          "name": "profitAssetPrice",
          "type": "uint96"
        }
      ],
      "name": "fillWithdrawalOrder",
      "outputs": [],
      "stateMutability": "nonpayable",
      "type": "function"
    },
    {
      "inputs": [
        {
          "internalType": "uint64",
          "name": "orderId",
          "type": "uint64"
        }
      ],
      "name": "getOrder",
      "outputs": [
        {
          "internalType": "bytes32[3]",
          "name": "",
          "type": "bytes32[3]"
        },
        {
          "internalType": "bool",
          "name": "",
          "type": "bool"
        }
      ],
      "stateMutability": "view",
      "type": "function"
    },
    {
      "inputs": [],
      "name": "getOrderCount",
      "outputs": [
        {
          "internalType": "uint256",
          "name": "",
          "type": "uint256"
        }
      ],
      "stateMutability": "view",
      "type": "function"
    },
    {
      "inputs": [
        {
          "internalType": "uint256",
          "name": "begin",
          "type": "uint256"
        },
        {
          "internalType": "uint256",
          "name": "end",
          "type": "uint256"
        }
      ],
      "name": "getOrders",
      "outputs": [
        {
          "internalType": "bytes32[3][]",
          "name": "orderArray",
          "type": "bytes32[3][]"
        },
        {
          "internalType": "uint256",
          "name": "totalCount",
          "type": "uint256"
        }
      ],
      "stateMutability": "view",
      "type": "function"
    },
    {
      "inputs": [
        {
          "internalType": "address",
          "name": "pool",
          "type": "address"
        },
        {
          "internalType": "address",
          "name": "mlp",
          "type": "address"
        },
        {
          "internalType": "address",
          "name": "weth",
          "type": "address"
        },
        {
          "internalType": "address",
          "name": "nativeUnwrapper",
          "type": "address"
        }
      ],
      "name": "initialize",
      "outputs": [],
      "stateMutability": "nonpayable",
      "type": "function"
    },
    {
      "inputs": [],
      "name": "isLiquidityOrderPaused",
      "outputs": [
        {
          "internalType": "bool",
          "name": "",
          "type": "bool"
        }
      ],
      "stateMutability": "view",
      "type": "function"
    },
    {
      "inputs": [],
      "name": "isPositionOrderPaused",
      "outputs": [
        {
          "internalType": "bool",
          "name": "",
          "type": "bool"
        }
      ],
      "stateMutability": "view",
      "type": "function"
    },
    {
      "inputs": [
        {
          "internalType": "bytes32",
          "name": "subAccountId",
          "type": "bytes32"
        },
        {
          "internalType": "uint8",
          "name": "profitAssetId",
          "type": "uint8"
        },
        {
          "internalType": "uint96",
          "name": "collateralPrice",
          "type": "uint96"
        },
        {
          "internalType": "uint96",
          "name": "assetPrice",
          "type": "uint96"
        },
        {
          "internalType": "uint96",
          "name": "profitAssetPrice",
          "type": "uint96"
        }
      ],
      "name": "liquidate",
      "outputs": [],
      "stateMutability": "nonpayable",
      "type": "function"
    },
    {
      "inputs": [],
      "name": "liquidityLockPeriod",
      "outputs": [
        {
          "internalType": "uint32",
          "name": "",
          "type": "uint32"
        }
      ],
      "stateMutability": "view",
      "type": "function"
    },
    {
      "inputs": [],
      "name": "maintainer",
      "outputs": [
        {
          "internalType": "address",
          "name": "",
          "type": "address"
        }
      ],
      "stateMutability": "view",
      "type": "function"
    },
    {
      "inputs": [],
      "name": "marketOrderTimeout",
      "outputs": [
        {
          "internalType": "uint32",
          "name": "",
          "type": "uint32"
        }
      ],
      "stateMutability": "view",
      "type": "function"
    },
    {
      "inputs": [],
      "name": "maxLimitOrderTimeout",
      "outputs": [
        {
          "internalType": "uint32",
          "name": "",
          "type": "uint32"
        }
      ],
      "stateMutability": "view",
      "type": "function"
    },
    {
      "inputs": [],
      "name": "nextOrderId",
      "outputs": [
        {
          "internalType": "uint64",
          "name": "",
          "type": "uint64"
        }
      ],
      "stateMutability": "view",
      "type": "function"
    },
    {
      "inputs": [],
      "name": "owner",
      "outputs": [
        {
          "internalType": "address",
          "name": "",
          "type": "address"
        }
      ],
      "stateMutability": "view",
      "type": "function"
    },
    {
      "inputs": [
        {
          "internalType": "bool",
          "name": "isPositionOrderPaused_",
          "type": "bool"
        },
        {
          "internalType": "bool",
          "name": "isLiquidityOrderPaused_",
          "type": "bool"
        }
      ],
      "name": "pause",
      "outputs": [],
      "stateMutability": "nonpayable",
      "type": "function"
    },
    {
      "inputs": [
        {
          "internalType": "uint8",
          "name": "assetId",
          "type": "uint8"
        },
        {
          "internalType": "uint96",
          "name": "rawAmount",
          "type": "uint96"
        },
        {
          "internalType": "bool",
          "name": "isAdding",
          "type": "bool"
        }
      ],
      "name": "placeLiquidityOrder",
      "outputs": [],
      "stateMutability": "payable",
      "type": "function"
    },
    {
      "inputs": [
        {
          "internalType": "bytes32",
          "name": "subAccountId",
          "type": "bytes32"
        },
        {
          "internalType": "uint96",
          "name": "collateralAmount",
          "type": "uint96"
        },
        {
          "internalType": "uint96",
          "name": "size",
          "type": "uint96"
        },
        {
          "internalType": "uint96",
          "name": "price",
          "type": "uint96"
        },
        {
          "internalType": "uint8",
          "name": "profitTokenId",
          "type": "uint8"
        },
        {
          "internalType": "uint8",
          "name": "flags",
          "type": "uint8"
        },
        {
          "internalType": "uint32",
          "name": "deadline",
          "type": "uint32"
        },
        {
          "internalType": "bytes32",
          "name": "referralCode",
          "type": "bytes32"
        },
        {
          "components": [
            {
              "internalType": "uint96",
              "name": "tpPrice",
              "type": "uint96"
            },
            {
              "internalType": "uint96",
              "name": "slPrice",
              "type": "uint96"
            },
            {
              "internalType": "uint8",
              "name": "tpslProfitTokenId",
              "type": "uint8"
            },
            {
              "internalType": "uint32",
              "name": "tpslDeadline",
              "type": "uint32"
            }
          ],
          "internalType": "struct PositionOrderExtra",
          "name": "extra",
          "type": "tuple"
        }
      ],
      "name": "placePositionOrder3",
      "outputs": [],
      "stateMutability": "payable",
      "type": "function"
    },
    {
      "inputs": [
        {
          "internalType": "uint8",
          "name": "tokenId0",
          "type": "uint8"
        },
        {
          "internalType": "uint8",
          "name": "tokenId1",
          "type": "uint8"
        },
        {
          "internalType": "uint96",
          "name": "rawAmount0",
          "type": "uint96"
        },
        {
          "internalType": "uint96",
          "name": "maxRawAmount1",
          "type": "uint96"
        },
        {
          "internalType": "bytes32",
          "name": "userData",
          "type": "bytes32"
        }
      ],
      "name": "placeRebalanceOrder",
      "outputs": [],
      "stateMutability": "nonpayable",
      "type": "function"
    },
    {
      "inputs": [
        {
          "internalType": "bytes32",
          "name": "subAccountId",
          "type": "bytes32"
        },
        {
          "internalType": "uint96",
          "name": "rawAmount",
          "type": "uint96"
        },
        {
          "internalType": "uint8",
          "name": "profitTokenId",
          "type": "uint8"
        },
        {
          "internalType": "bool",
          "name": "isProfit",
          "type": "bool"
        }
      ],
      "name": "placeWithdrawalOrder",
      "outputs": [],
      "stateMutability": "nonpayable",
      "type": "function"
    },
    {
      "inputs": [
        {
          "internalType": "uint64",
          "name": "orderId",
          "type": "uint64"
        }
      ],
      "name": "positionOrderExtras",
      "outputs": [
        {
          "components": [
            {
              "internalType": "uint96",
              "name": "tpPrice",
              "type": "uint96"
            },
            {
              "internalType": "uint96",
              "name": "slPrice",
              "type": "uint96"
            },
            {
              "internalType": "uint8",
              "name": "tpslProfitTokenId",
              "type": "uint8"
            },
            {
              "internalType": "uint32",
              "name": "tpslDeadline",
              "type": "uint32"
            }
          ],
          "internalType": "struct PositionOrderExtra",
          "name": "",
          "type": "tuple"
        }
      ],
      "stateMutability": "view",
      "type": "function"
    },
    {
      "inputs": [
        {
          "internalType": "address",
          "name": "rebalancer",
          "type": "address"
        }
      ],
      "name": "rebalancers",
      "outputs": [
        {
          "internalType": "bool",
          "name": "",
          "type": "bool"
        }
      ],
      "stateMutability": "view",
      "type": "function"
    },
    {
      "inputs": [
        {
          "internalType": "uint8",
          "name": "tokenId",
          "type": "uint8"
        },
        {
          "internalType": "uint96",
          "name": "muxTokenAmount",
          "type": "uint96"
        }
      ],
      "name": "redeemMuxToken",
      "outputs": [],
      "stateMutability": "nonpayable",
      "type": "function"
    },
    {
      "inputs": [],
      "name": "referralManager",
      "outputs": [
        {
          "internalType": "address",
          "name": "",
          "type": "address"
        }
      ],
      "stateMutability": "view",
      "type": "function"
    },
    {
      "inputs": [
        {
          "internalType": "address",
          "name": "broker",
          "type": "address"
        }
      ],
      "name": "removeBroker",
      "outputs": [],
      "stateMutability": "nonpayable",
      "type": "function"
    },
    {
      "inputs": [
        {
          "internalType": "address",
          "name": "rebalancer",
          "type": "address"
        }
      ],
      "name": "removeRebalancer",
      "outputs": [],
      "stateMutability": "nonpayable",
      "type": "function"
    },
    {
      "inputs": [],
      "name": "renounceBroker",
      "outputs": [],
      "stateMutability": "nonpayable",
      "type": "function"
    },
    {
      "inputs": [],
      "name": "renounceOwnership",
      "outputs": [],
      "stateMutability": "nonpayable",
      "type": "function"
    },
    {
      "inputs": [],
      "name": "renounceRebalancer",
      "outputs": [],
      "stateMutability": "nonpayable",
      "type": "function"
    },
    {
      "inputs": [
        {
          "internalType": "address",
          "name": "aggregatorAddress",
          "type": "address"
        },
        {
          "internalType": "bool",
          "name": "isEnable",
          "type": "bool"
        }
      ],
      "name": "setAggregator",
      "outputs": [],
      "stateMutability": "nonpayable",
      "type": "function"
    },
    {
      "inputs": [
        {
          "internalType": "uint256",
          "name": "gasLimit",
          "type": "uint256"
        }
      ],
      "name": "setCallbackGasLimit",
      "outputs": [],
      "stateMutability": "nonpayable",
      "type": "function"
    },
    {
      "inputs": [
        {
          "internalType": "address",
          "name": "caller",
          "type": "address"
        },
        {
          "internalType": "bool",
          "name": "enable",
          "type": "bool"
        }
      ],
      "name": "setCallbackWhitelist",
      "outputs": [],
      "stateMutability": "nonpayable",
      "type": "function"
    },
    {
      "inputs": [
        {
          "internalType": "uint32",
          "name": "newLiquidityLockPeriod",
          "type": "uint32"
        }
      ],
      "name": "setLiquidityLockPeriod",
      "outputs": [],
      "stateMutability": "nonpayable",
      "type": "function"
    },
    {
      "inputs": [
        {
          "internalType": "address",
          "name": "newMaintainer",
          "type": "address"
        }
      ],
      "name": "setMaintainer",
      "outputs": [],
      "stateMutability": "nonpayable",
      "type": "function"
    },
    {
      "inputs": [
        {
          "internalType": "uint32",
          "name": "marketOrderTimeout_",
          "type": "uint32"
        },
        {
          "internalType": "uint32",
          "name": "maxLimitOrderTimeout_",
          "type": "uint32"
        }
      ],
      "name": "setOrderTimeout",
      "outputs": [],
      "stateMutability": "nonpayable",
      "type": "function"
    },
    {
      "inputs": [
        {
          "internalType": "address",
          "name": "newReferralManager",
          "type": "address"
        }
      ],
      "name": "setReferralManager",
      "outputs": [],
      "stateMutability": "nonpayable",
      "type": "function"
    },
    {
      "inputs": [],
      "name": "takeOwnership",
      "outputs": [],
      "stateMutability": "nonpayable",
      "type": "function"
    },
    {
      "inputs": [
        {
          "internalType": "address",
          "name": "newOwner",
          "type": "address"
        }
      ],
      "name": "transferOwnership",
      "outputs": [],
      "stateMutability": "nonpayable",
      "type": "function"
    },
    {
      "inputs": [
        {
          "internalType": "uint32",
          "name": "stableUtilization",
          "type": "uint32"
        },
        {
          "internalType": "uint8[]",
          "name": "unstableTokenIds",
          "type": "uint8[]"
        },
        {
          "internalType": "uint32[]",
          "name": "unstableUtilizations",
          "type": "uint32[]"
        },
        {
          "internalType": "uint96[]",
          "name": "unstablePrices",
          "type": "uint96[]"
        }
      ],
      "name": "updateFundingState",
      "outputs": [],
      "stateMutability": "nonpayable",
      "type": "function"
    },
    {
      "inputs": [
        {
          "internalType": "bytes32",
          "name": "subAccountId",
          "type": "bytes32"
        }
      ],
      "name": "withdrawAllCollateral",
      "outputs": [],
      "stateMutability": "nonpayable",
      "type": "function"
    }
  ],
  "bytecode": "0x608060405234801561001057600080fd5b50615580806100206000396000f3fe6080604052600436106102935760003560e01c8063715018a61161015a578063c1488069116100c1578063dea9b4641161007a578063dea9b464146108c5578063ee8f99dc146108d8578063f2fde38b146108f5578063f8c8765e14610915578063fbb8d4ce14610935578063fe6facc41461094a57600080fd5b8063c1488069146107f7578063c5f3a4c414610817578063cdf9d07c14610837578063d0ee758c14610865578063d99d6f9a14610885578063ddeb5094146108a557600080fd5b8063942a5e7e11610113578063942a5e7e146106905780639850d32b1461074457806399a349521461076957806399e4ef5914610789578063a44d57a01461079e578063b4b9ef73146107d757600080fd5b8063715018a6146105cc578063836cae65146105e15780638a54942f146106015780638d0a5fbb146106215780638da5cb5b146106445780638f72fc771461066257600080fd5b80633d491e6f116101fe57806358b09b89116101b757806358b09b89146104fc5780635ac05a501461051c578063605361721461053c57806366874cc51461055157806366e10ec61461058a5780636b811a3c146105ac57600080fd5b80633d491e6f14610461578063431e5c9d1461048157806343bc4b9a146104965780634786055f146104b65780634af3e017146104c9578063523eb537146104dc57600080fd5b80632ccd9623116102505780632ccd96231461037b578063315dca6e146103ad578063330a4f9d146103cd578063337c96b4146103ff578063340e2d191461041f5780633d0ebb891461044157600080fd5b80630c9799191461029857806313ea5d29146102ba5780631666bcde146102da57806318a7a405146103035780631ad6a870146103235780632a58b33014610343575b600080fd5b3480156102a457600080fd5b506102b86102b33660046144e9565b61096a565b005b3480156102c657600080fd5b506102b86102d53660046144e9565b610a22565b3480156102e657600080fd5b50606e5460ff165b60405190151581526020015b60405180910390f35b34801561030f57600080fd5b506102b861031e366004614514565b610ad7565b34801561032f57600080fd5b506102b861033e36600461456a565b610b2c565b34801561034f57600080fd5b50606754600160a01b90046001600160401b03166040516001600160401b0390911681526020016102fa565b34801561038757600080fd5b50606f546001600160a01b03165b6040516001600160a01b0390911681526020016102fa565b3480156103b957600080fd5b506102b86103c83660046145cf565b610d27565b3480156103d957600080fd5b50606e5462010000900463ffffffff165b60405163ffffffff90911681526020016102fa565b34801561040b57600080fd5b506102b861041a366004614618565b610f89565b34801561042b57600080fd5b50606b54600160a01b900463ffffffff166103ea565b34801561044d57600080fd5b506102b861045c366004614679565b611095565b34801561046d57600080fd5b506102b861047c366004614736565b61113b565b34801561048d57600080fd5b506102b86111d0565b3480156104a257600080fd5b506102b86104b13660046144e9565b6111db565b6102b86104c4366004614778565b611211565b6102b86104d736600461489b565b61139e565b3480156104e857600080fd5b506102b86104f73660046148d9565b61146f565b34801561050857600080fd5b506102b86105173660046148f4565b61183b565b34801561052857600080fd5b506102b861053736600461494e565b611bdc565b34801561054857600080fd5b506102b8611d6f565b34801561055d57600080fd5b506102ee61056c3660046144e9565b6001600160a01b031660009081526066602052604090205460ff1690565b34801561059657600080fd5b50606e54600160301b900463ffffffff166103ea565b3480156105b857600080fd5b506102b86105c73660046149ae565b611dc9565b3480156105d857600080fd5b506102b8611e4d565b3480156105ed57600080fd5b506102b86105fc3660046144e9565b611e91565b34801561060d57600080fd5b506102b861061c3660046149ae565b611f65565b34801561062d57600080fd5b50610636611f94565b6040519081526020016102fa565b34801561065057600080fd5b506033546001600160a01b0316610395565b34801561066e57600080fd5b5061068261067d3660046149c7565b611fa4565b6040516102fa9291906149e9565b34801561069c57600080fd5b506107376106ab3660046148d9565b604080516080810182526000808252602082018190529181018290526060810191909152506001600160401b0316600090815260706020908152604091829020825160808101845290546001600160601b038082168352600160601b82041692820192909252600160c01b820460ff1692810192909252600160c81b900463ffffffff16606082015290565b6040516102fa9190614a59565b34801561075057600080fd5b50606e54600160501b90046001600160a01b0316610395565b34801561077557600080fd5b506102b86107843660046148f4565b61209a565b34801561079557600080fd5b50610636612336565b3480156107aa57600080fd5b506102ee6107b93660046144e9565b6001600160a01b03166000908152606d602052604090205460ff1690565b3480156107e357600080fd5b506102b86107f2366004614a9e565b6123d3565b34801561080357600080fd5b506102b8610812366004614514565b612542565b34801561082357600080fd5b506102b86108323660046144e9565b612607565b34801561084357600080fd5b506108576108523660046148d9565b6126c1565b6040516102fa929190614b07565b34801561087157600080fd5b506102b8610880366004614b24565b6126ea565b34801561089157600080fd5b506102b86108a03660046144e9565b612aea565b3480156108b157600080fd5b506102b86108c0366004614b93565b612b42565b6102b86108d33660046149c7565b612c49565b3480156108e457600080fd5b50606e54610100900460ff166102ee565b34801561090157600080fd5b506102b86109103660046144e9565b612db0565b34801561092157600080fd5b506102b8610930366004614bb1565b612ea4565b34801561094157600080fd5b506102b8612fde565b34801561095657600080fd5b506102b8610965366004614c02565b612fe7565b6033546001600160a01b0316331461099d5760405162461bcd60e51b815260040161099490614c2a565b60405180910390fd5b6001600160a01b0381166000908152606d602052604090205460ff16156109d65760405162461bcd60e51b815260040161099490614c5f565b6001600160a01b0381166000818152606d6020526040808220805460ff19166001179055517fc5115f53265d15ca7930718dd520cd314285a7f2f0027e59b441f1f33b87b6919190a250565b6033546001600160a01b03163314610a4c5760405162461bcd60e51b815260040161099490614c2a565b606e546001600160a01b03828116600160501b909204161415610a815760405162461bcd60e51b815260040161099490614c5f565b606e8054600160501b600160f01b031916600160501b6001600160a01b038416908102919091179091556040517f20495ad1c3942659031bc9602fe224bb567644c05306fe5656f04f0c5cd09ef590600090a250565b6033546001600160a01b03163314610b015760405162461bcd60e51b815260040161099490614c2a565b6001600160a01b03919091166000908152607460205260409020805460ff1916911515919091179055565b6033546001600160a01b03163314610b565760405162461bcd60e51b815260040161099490614c2a565b63ffffffff8216610b8f5760405162461bcd60e51b81526020600482015260036024820152620543d360ec1b6044820152606401610994565b62ffffff610b9e600a84614c92565b63ffffffff161115610bd85760405162461bcd60e51b8152602060048201526003602482015262543e4d60e81b6044820152606401610994565b63ffffffff8116610c115760405162461bcd60e51b81526020600482015260036024820152620543d360ec1b6044820152606401610994565b62ffffff610c20600a83614c92565b63ffffffff161115610c5a5760405162461bcd60e51b8152602060048201526003602482015262543e4d60e81b6044820152606401610994565b606e5463ffffffff8381166201000090920416141580610c8c5750606e5463ffffffff828116600160301b9092041614155b610ca85760405162461bcd60e51b815260040161099490614c5f565b606e805469ffffffffffffffff000019166201000063ffffffff85811691820269ffffffff000000000000191692909217600160301b928516928302179092556040805192835260208301919091527f0ac6ed41369d4003621c3216eaf4456c865743f8c396285512c18ac78150aaad91015b60405180910390a15050565b3360009081526066602052604090205460ff16610d565760405162461bcd60e51b815260040161099490614cc3565b606e54610100900460ff1615610d945760405162461bcd60e51b815260206004820152600360248201526204c4f560ec1b6044820152606401610994565b6002609b541415610db75760405162461bcd60e51b815260040161099490614ce0565b6002609b55610dc7606884613205565b610de35760405162461bcd60e51b815260040161099490614d17565b6000610df060688561322c565b9050610dfd606885613281565b6000610e088261342a565b90506004816004811115610e1e57610e1e614d34565b14610e3b5760405162461bcd60e51b815260040161099490614d4a565b6040805160e0810182526000808252602080830182815283850183815260608086018581526080870186815260a080890188815260c08a018981528d5190951c968790528c5160581c60ff908116968790528d5160501c1693849052968c01805190911c9182905251891c6001600160601b03908116968790528b8a0151938490526067548a51639eee96df60e01b81526004810197909752602487019590955260448601929092526064850152608484019490945260a483015289831660c483015291881660e4820152935192936001600160a01b0390911692639eee96df926101048084019391929182900301818387803b158015610f3b57600080fd5b505af1158015610f4f573d6000803e3d6000fd5b5050505060008051602061552b833981519152868385604051610f7493929190614d67565b60405180910390a150506001609b5550505050565b6033546001600160a01b03163314610fb35760405162461bcd60e51b815260040161099490614c2a565b62278d008163ffffffff161115610ff25760405162461bcd60e51b81526020600482015260036024820152624c434b60e81b6044820152606401610994565b606b5463ffffffff828116600160a01b9092041614156110245760405162461bcd60e51b815260040161099490614c5f565b606b5460408051600160a01b90920463ffffffff9081168352831660208301527f0c0b8e3bb5e77c750110c5892a4426f766651572fc356dcff0300a53a79771e8910160405180910390a1606b805463ffffffff909216600160a01b0263ffffffff60a01b19909216919091179055565b3360009081526066602052604090205460ff166110c45760405162461bcd60e51b815260040161099490614cc3565b606754604051633d0ebb8960e01b81526001600160a01b0390911690633d0ebb8990611100908a908a908a908a908a908a908a90600401614df1565b600060405180830381600087803b15801561111a57600080fd5b505af115801561112e573d6000803e3d6000fd5b5050505050505050505050565b60003360405163262d352160e21b8152606660048201526001600160a01b038216602482015260ff851660448201526001600160601b038416606482015290915073__$61f396f7de53c4624a9cf5b920bc658b62$__906398b4d4849060840160006040518083038186803b1580156111b357600080fd5b505af41580156111c7573d6000803e3d6000fd5b50505050505050565b6111d933613443565b565b6033546001600160a01b031633146112055760405162461bcd60e51b815260040161099490614c2a565b61120e816134c4565b50565b6002609b5414156112345760405162461bcd60e51b815260040161099490614ce0565b6002609b553360008181526072602052604090205460608b901c9060ff161561125c5761128d565b816001600160a01b0316816001600160a01b03161461128d5760405162461bcd60e51b815260040161099490614e9c565b83158015906112a65750606f546001600160a01b031615155b1561131257606f5460405163bfb7d70d60e01b81526001600160a01b038381166004830152602482018790529091169063bfb7d70d90604401600060405180830381600087803b1580156112f957600080fd5b505af115801561130d573d6000803e3d6000fd5b505050505b73__$61f396f7de53c4624a9cf5b920bc658b62$__630f40ab716066428e8e8e8e8e8e8e8d6040518b63ffffffff1660e01b815260040161135c9a99989796959493929190614eb9565b60006040518083038186803b15801561137457600080fd5b505af4158015611388573d6000803e3d6000fd5b50506001609b5550505050505050505050505050565b6002609b5414156113c15760405162461bcd60e51b815260040161099490614ce0565b6002609b5560408051631e8fc0ef60e01b81526066600482015263ffffffff42166024820152336044820181905260ff861660648301526001600160601b038516608483015283151560a4830152915173__$61f396f7de53c4624a9cf5b920bc658b62$__91631e8fc0ef9160c4808301926000929190829003018186803b15801561144c57600080fd5b505af4158015611460573d6000803e3d6000fd5b50506001609b55505050505050565b6002609b5414156114925760405162461bcd60e51b815260040161099490614ce0565b6002609b556114a2606882613205565b6114be5760405162461bcd60e51b815260040161099490614d17565b60006114cb60688361322c565b90506114d8606883613281565b60006114e5825160601c90565b905060006114f28361342a565b9050600181600481111561150857611508614d34565b14156116a057600061151984613545565b3360009081526066602052604090205490915060ff161561156c5761153d816135fc565b63ffffffff164263ffffffff16116115675760405162461bcd60e51b815260040161099490614f61565b611594565b336001600160a01b038416146115945760405162461bcd60e51b815260040161099490614e9c565b60c0810151608016151580156115b75750600081604001516001600160601b0316115b1561165a5760675460208201516000916001600160a01b031690632d46c6c29060581c6040516001600160e01b031960e084901b16815260ff9091166004820152602401602060405180830381865afa158015611618573d6000803e3d6000fd5b505050506040513d601f19601f8201168201806040525081019061163c9190614f7e565b90506116586066828685604001516001600160601b0316613674565b505b6001600160401b038516600081815260706020908152604080832080546001600160e81b03191690558482015183526071909152902061169991613791565b50506117ed565b60028160048111156116b4576116b4614d34565b14156116fe57336001600160a01b038316146116e25760405162461bcd60e51b815260040161099490614e9c565b60006116ed846137a4565b90506116f881613848565b506117ed565b600381600481111561171257611712614d34565b14156117c3573360009081526066602052604090205460ff161561178c57600061173b846139aa565b606e5460a082015191925060009161175f9162010000900463ffffffff1690614f9b565b63ffffffff169050804263ffffffff16116116995760405162461bcd60e51b815260040161099490614f61565b6001600160a01b038216335b6001600160a01b0316146117be5760405162461bcd60e51b815260040161099490614e9c565b6117ed565b60048160048111156117d7576117d7614d34565b1415610293576001600160a01b03821633611798565b7fe5033f0fc6c1035c36f3d7c2b4278c1d0fc20d165ba0873a0ce56a661e8cf866846118188561342a565b8560405161182893929190614d67565b60405180910390a150506001609b555050565b3360009081526066602052604090205460ff1661186a5760405162461bcd60e51b815260040161099490614cc3565b606e5460ff16156118a35760405162461bcd60e51b81526020600482015260036024820152620504f560ec1b6044820152606401610994565b6002609b5414156118c65760405162461bcd60e51b815260040161099490614ce0565b6002609b556118d6606885613205565b6118f25760405162461bcd60e51b815260040161099490614d17565b60006118ff60688661322c565b905061190c606886613281565b60006119178261342a565b9050600181600481111561192d5761192d614d34565b1461194a5760405162461bcd60e51b815260040161099490614d4a565b600061195583613545565b9050611960816135fc565b63ffffffff164263ffffffff16111561198b5760405162461bcd60e51b815260040161099490614f61565b600061199d8260c00151608016151590565b15611a2c5760405163352de4bb60e11b815273__$61f396f7de53c4624a9cf5b920bc658b62$__90636a5bc976906119e49060669042908d908d908d908a9060040161507b565b602060405180830381865af4158015611a01573d6000803e3d6000fd5b505050506040513d601f19601f82011682018060405250810190611a2591906150c2565b9050611ab4565b604051630580dfb760e11b815273__$61f396f7de53c4624a9cf5b920bc658b62$__90630b01bf6e90611a709060669042908d908d908d908d908b906004016150df565b602060405180830381865af4158015611a8d573d6000803e3d6000fd5b505050506040513d601f19601f82011682018060405250810190611ab191906150c2565b90505b60c0820151604016611ba4576000611ad28360c00151608016151590565b60208401519015159060481c60ff1615151515149050611af88360c00151601016151590565b15611aff57155b8015611b565782608001516001600160601b0316826001600160601b03161115611b515760405162461bcd60e51b815260206004820152600360248201526213135560ea1b6044820152606401610994565b611ba2565b82608001516001600160601b0316826001600160601b03161015611ba25760405162461bcd60e51b815260206004820152600360248201526213135560ea1b6044820152606401610994565b505b60008051602061552b833981519152888486604051611bc593929190614d67565b60405180910390a150506001609b55505050505050565b336000908152606d602052604090205460ff16611c215760405162461bcd60e51b815260206004820152600360248201526210905360ea1b6044820152606401610994565b6002609b541415611c445760405162461bcd60e51b815260040161099490614ce0565b6002609b556001600160601b038316611c855760405162461bcd60e51b81526020600482015260036024820152620413d360ec1b6044820152606401610994565b606780543391600091600160a01b90046001600160401b0316906014611caa8361513a565b91906101000a8154816001600160401b0302191690836001600160401b0316021790555090506000611ce182848a8a8a8a8a6139f2565b9050611cef60688383613a80565b6040805160ff8a81168252891660208201526001600160601b0388811682840152871660608201526080810186905290516001600160401b038416916001600160a01b038616917f5c1a7ceefa482bcc616dec79c7a8bb748520ec46eb6d550f10ecf97e70f1c96a9181900360a00190a350506001609b55505050505050565b6065546001600160a01b0316336001600160a01b031614611da25760405162461bcd60e51b815260040161099490614e9c565b606554611db7906001600160a01b0316613ba4565b606580546001600160a01b0319169055565b606081901c3314611dec5760405162461bcd60e51b815260040161099490614e9c565b606754604051631ae0468f60e21b8152600481018390526001600160a01b0390911690636b811a3c90602401600060405180830381600087803b158015611e3257600080fd5b505af1158015611e46573d6000803e3d6000fd5b5050505050565b6033546001600160a01b03163314611e775760405162461bcd60e51b815260040161099490614c2a565b606580546001600160a01b03191690556111d96000613ba4565b606e54600160501b90046001600160a01b0316336001600160a01b03161480611ec457506033546001600160a01b031633145b611ee05760405162461bcd60e51b815260040161099490615161565b6001600160a01b03811660009081526066602052604090205460ff1615611f195760405162461bcd60e51b815260040161099490614c5f565b6001600160a01b038116600081815260666020526040808220805460ff19166001179055517f2fcbb5eda85b2352f87cce68063c290996e8cbc17c8f7c25a8b9ba1e59de256c9190a250565b6033546001600160a01b03163314611f8f5760405162461bcd60e51b815260040161099490614c2a565b607355565b6000611f9f60685490565b905090565b60606000611fb160685490565b90508284101580611fc25750808410155b15611fcc57612093565b80831115611fda5780611fdc565b825b92506000611fea858561517e565b9050806001600160401b0381111561200457612004614762565b60405190808252806020026020018201604052801561203d57816020015b61202a614463565b8152602001906001900390816120225790505b50925060005b81811015612090576120606120588783615195565b606890613bf6565b848281518110612072576120726151ad565b60200260200101819052508080612088906151c3565b915050612043565b50505b9250929050565b3360009081526066602052604090205460ff166120c95760405162461bcd60e51b815260040161099490614cc3565b6002609b5414156120ec5760405162461bcd60e51b815260040161099490614ce0565b6002609b556120fc606885613205565b6121185760405162461bcd60e51b815260040161099490614d17565b600061212560688661322c565b9050612132606886613281565b600061213d8261342a565b9050600381600481111561215357612153614d34565b146121705760405162461bcd60e51b815260040161099490614d4a565b600061217b836139aa565b606e5460a082015191925061219d916201000090910463ffffffff1690614f9b565b63ffffffff164263ffffffff1611156121c85760405162461bcd60e51b815260040161099490614f61565b8060800151156122765760675460208201516040808401516060850151915163484289c760e01b815260048101939093526001600160601b03908116602484015260ff909116604483015280891660648301528088166084830152861660a48201526001600160a01b039091169063484289c79060c401600060405180830381600087803b15801561225957600080fd5b505af115801561226d573d6000803e3d6000fd5b505050506122ff565b60675460208201516040808401519051634700832960e11b815260048101929092526001600160601b0390811660248301528089166044830152871660648201526001600160a01b0390911690638e01065290608401600060405180830381600087803b1580156122e657600080fd5b505af11580156122fa573d6000803e3d6000fd5b505050505b60008051602061552b83398151915287838560405161232093929190614d67565b60405180910390a150506001609b555050505050565b3360009081526066602052604081205460ff166123655760405162461bcd60e51b815260040161099490614cc3565b606754604051636bc72faf60e11b81523360048201526001600160a01b039091169063d78e5f5e906024016020604051808303816000875af11580156123af573d6000803e3d6000fd5b505050506040513d601f19601f82011682018060405250810190611f9f91906151de565b6002609b5414156123f65760405162461bcd60e51b815260040161099490614ce0565b6002609b5560006124078560601c90565b90506001600160a01b03811633146124315760405162461bcd60e51b815260040161099490614e9c565b6001600160601b03841661246d5760405162461bcd60e51b81526020600482015260036024820152620413d360ec1b6044820152606401610994565b60678054600091600160a01b9091046001600160401b03169060146124918361513a565b91906101000a8154816001600160401b0302191690836001600160401b03160217905550905060006124cd82888888886124c84290565b613cb8565b90506124db60688383613a80565b604080516001600160601b038816815260ff871660208201528515158183015290516001600160401b0384169189917f201d03547a8fd1f2eaa0fda90af89681a6c4dc6a8e495565e5ca6a62b3579cf09181900360600190a350506001609b555050505050565b6033546001600160a01b0316331461256c5760405162461bcd60e51b815260040161099490614c2a565b6001600160a01b0382166125a85760405162461bcd60e51b815260206004820152600360248201526216905160ea1b6044820152606401610994565b6001600160a01b038216600081815260726020908152604091829020805460ff191685151590811790915591519182527f9aaad5d73fc4de1befd3e790b855dfdc6363f068e93abfdf01ad70681d31d0ce910160405180910390a25050565b6033546001600160a01b031633146126315760405162461bcd60e51b815260040161099490614c2a565b6001600160a01b03811661266d5760405162461bcd60e51b815260206004820152600360248201526216905160ea1b6044820152606401610994565b606f80546001600160a01b0319166001600160a01b0383169081179091556040519081527f57202bce87a87010e83825477a341d777f701216d3e2a3b4642c72d9e8a931989060200160405180910390a150565b6126c9614463565b60006126d660688461322c565b6126e1606885613205565b91509150915091565b3360009081526066602052604090205460ff166127195760405162461bcd60e51b815260040161099490614cc3565b606e54610100900460ff16156127575760405162461bcd60e51b815260206004820152600360248201526204c4f560ec1b6044820152606401610994565b6002609b54141561277a5760405162461bcd60e51b815260040161099490614ce0565b6002609b5561278a606886613205565b6127a65760405162461bcd60e51b815260040161099490614d17565b60006127b360688761322c565b90506127c0606887613281565b60006127cb826137a4565b6020808201516001600160a01b031660009081526074909152604090205490915060ff16156128dc57600081602001516001600160a01b031663be49f64a612811613d7d565b848a8a8a8a6040518763ffffffff1660e01b8152600401612836959493929190615254565b60206040518083038160008887f193505050508015612872575060408051601f3d908101601f1916820190925261286f91810190615296565b60015b61287e57506000612881565b90505b806128da5761288f82613848565b7fe5033f0fc6c1035c36f3d7c2b4278c1d0fc20d165ba0873a0ce56a661e8cf866886128ba8561342a565b856040516128ca93929190614d67565b60405180910390a1505050612ade565b505b60006128e78361342a565b905060028160048111156128fd576128fd614d34565b1461291a5760405162461bcd60e51b815260040161099490614d4a565b600082604001516001600160601b03166000146129bd57604051636cc4fd9560e11b815273__$61f396f7de53c4624a9cf5b920bc658b62$__9063d989fb2a906129759060669042908d908d908d908d908d906004016152b3565b602060405180830381865af4158015612992573d6000803e3d6000fd5b505050506040513d601f19601f820116820180604052508101906129b691906151de565b9050612a14565b6020808401516001600160a01b031660009081526074909152604090205460ff16612a105760405162461bcd60e51b81526020600482015260036024820152622721a160e91b6044820152606401610994565b5060005b6020808401516001600160a01b031660009081526074909152604090205460ff1615612ab05782602001516001600160a01b0316639c69c2e1612a55613d7d565b85848c8c8c8c6040518863ffffffff1660e01b8152600401612a7c96959493929190615328565b600060405180830381600088803b158015612a9657600080fd5b5087f1158015612aaa573d6000803e3d6000fd5b50505050505b60008051602061552b833981519152898386604051612ad193929190614d67565b60405180910390a1505050505b50506001609b55505050565b606e54600160501b90046001600160a01b0316336001600160a01b03161480612b1d57506033546001600160a01b031633145b612b395760405162461bcd60e51b815260040161099490615161565b61120e81613443565b606e54600160501b90046001600160a01b0316336001600160a01b03161480612b7557506033546001600160a01b031633145b612b915760405162461bcd60e51b815260040161099490615161565b606e5460ff16151582151514612be657606e805460ff19168315159081179091556040519081527ff08d1ca9cf739c5ed2fcedf748abbfa8f14006e47f4a0a3805e6ce8ace2411229060200160405180910390a15b606e5460ff61010090910416151581151514612c4557606e80548215156101000261ff00199091161790556040517f1dd885054d26280b4f25ebb658ef23327620ee20f5ad56b33902e87f8ad65bba90610d1b90831515815260200190565b5050565b6000612c5483613d95565b80519091506001600160a01b03163314612c805760405162461bcd60e51b815260040161099490614e9c565b81612cb35760405162461bcd60e51b81526020600482015260036024820152620433d360ec1b6044820152606401610994565b60675460208201516040516316a3636160e11b815260ff90911660048201526000916001600160a01b031690632d46c6c290602401602060405180830381865afa158015612d05573d6000803e3d6000fd5b505050506040513d601f19601f82011682018060405250810190612d299190614f7e565b9050612d4560663360675484906001600160a01b031687613e2e565b6067546040516337aa6d1960e21b815260048101869052602481018590526001600160a01b039091169063dea9b46490604401600060405180830381600087803b158015612d9257600080fd5b505af1158015612da6573d6000803e3d6000fd5b5050505050505050565b6033546001600160a01b03163314612dda5760405162461bcd60e51b815260040161099490614c2a565b6001600160a01b038116612e165760405162461bcd60e51b815260206004820152600360248201526204f3d360ec1b6044820152606401610994565b6033546001600160a01b0382811691161415612e5a5760405162461bcd60e51b81526020600482015260036024820152624f3d4f60e81b6044820152606401610994565b606580546001600160a01b0319166001600160a01b0383169081179091556040517fb501f5dc3610d10a179d924f686fc89ddcdd3abb05afd7a1baeead166b2f122c90600090a250565b600054610100900460ff16612ebf5760005460ff1615612ec3565b303b155b612f265760405162461bcd60e51b815260206004820152602e60248201527f496e697469616c697a61626c653a20636f6e747261637420697320616c72656160448201526d191e481a5b9a5d1a585b1a5e995960921b6064820152608401610994565b600054610100900460ff16158015612f48576000805461ffff19166101011790555b612f50613fcc565b606780546001600160a01b03199081166001600160a01b0388811691909117909255606a80548216878416179055606b80548216868416179055606c805490911684831617905560335416606e80546001600160a01b0392909216600160501b02600160501b600160f01b03199092169190911790558015611e46576000805461ff00191690555050505050565b6111d9336134c4565b3360009081526066602052604090205460ff166130165760405162461bcd60e51b815260040161099490614cc3565b606754604051633f9beb3160e21b81526004810187905260ff861660248201526001600160601b0380861660448301528085166064830152831660848201526001600160a01b039091169063fe6facc49060a4016020604051808303816000875af1158015613089573d6000803e3d6000fd5b505050506040513d601f19601f820116820180604052508101906130ad91906150c2565b506067546040516303e9375760e01b8152600481018790526000916001600160a01b0316906303e937579060240160a060405180830381865afa1580156130f8573d6000803e3d6000fd5b505050506040513d601f19601f8201168201806040525081019061311c9190615370565b5050505090506000816001600160601b0316111561319357606754604051631ae0468f60e21b8152600481018890526001600160a01b0390911690636b811a3c90602401600060405180830381600087803b15801561317a57600080fd5b505af115801561318e573d6000803e3d6000fd5b505050505b6040516342f4ff7160e11b8152606660048201526024810187905273__$61f396f7de53c4624a9cf5b920bc658b62$__906385e9fee29060440160006040518083038186803b1580156131e557600080fd5b505af41580156131f9573d6000803e3d6000fd5b50505050505050505050565b6001600160401b038116600090815260018381016020526040909120015415155b92915050565b613234614463565b6001600160401b038216600090815260018401602052604090819020815160608101928390529160039082845b815481526020019060010190808311613261575050505050905092915050565b6001600160401b0381166000908152600180840160205260408220919082015490506001600160401b0381166132c95760405162461bcd60e51b815260040161099490614d17565b60006132d66001836153ec565b85546001600160401b039190911691506000906132f59060019061517e565b90508181146133bc576000866000018281548110613315576133156151ad565b90600052602060002090600491828204019190066008029054906101000a90046001600160401b0316905080876000018481548110613356576133566151ad565b600091825260208083206004830401805460039093166008026101000a6001600160401b03818102199094169584160294909417909355838116825260018a81019093526040909120919086169067ffffffffffffffff19908301541617816001015550505b85548690806133cd576133cd615414565b600082815260208082206004600019949094019384040180546001600160401b03600860038716026101000a8102199091169091559290935596168652600196870190525050604083208381559384018390555050600290910155565b805160009060ff16600481111561322657613226614d34565b6001600160a01b03811660009081526066602052604090205460ff1661347b5760405162461bcd60e51b815260040161099490614c5f565b6001600160a01b038116600081815260666020526040808220805460ff19169055517fcdf53ae488d66a98f509e3342bdc0a13dee821f05bfb372351346a7a991df7a29190a250565b6001600160a01b0381166000908152606d602052604090205460ff166134fc5760405162461bcd60e51b815260040161099490614c5f565b6001600160a01b0381166000818152606d6020526040808220805460ff19169055517f963257db523ad7beed5ed8d412d9efcfa2ec8b73e3c20c3aaf5b6161f9ec48119190a250565b60408051610120810182526000808252602080830182815283850183815260608086018581526080870186815260a080890188815260c08a0189815260e08b018a81526101008c019a8b528d5168ffffffffffffffffff19169098528c8c0180518d1c6001600160601b03169097529b9097018051821c909352825160901c60ff908116909b52935190931c909252815160981c909716909252815190951c62ffffff169091525190911c63ffffffff1690915290565b600061360e8260c00151604016151590565b1561363157606e5460e08301516132269162010000900463ffffffff1690614f9b565b61366082610100015162ffffff16600a61364b919061542a565b606e54600160301b900463ffffffff16613ffb565b8260e001516132269190614f9b565b919050565b60058401546001600160a01b0384811691161415613777576005840154600685015460405163a9059cbb60e01b81526001600160a01b0391821660048201526024810184905291169063a9059cbb906044016020604051808303816000875af11580156136e5573d6000803e3d6000fd5b505050506040513d601f19601f820116820180604052508101906137099190615296565b5060068401546040516339f4769360e01b81526001600160a01b03848116600483015260248201849052909116906339f4769390604401600060405180830381600087803b15801561375a57600080fd5b505af115801561376e573d6000803e3d6000fd5b5050505061378b565b61378b6001600160a01b038416838361401e565b50505050565b600061379d8383614086565b9392505050565b6040805160c08101825260008082526020820181815292820181905260608083018290526080830182905260a0830191909152835160081c6001600160401b031682528351901c9091528160015b602002015160a01c604082015260608260016020020151901b60f81c6060820152600060688360016020020151901b60f81c8015156080840152905060a08360016020020151901b60e01c60a083015250919050565b8060800151156138ee5760675460608201516040516316a3636160e11b815260ff90911660048201526000916001600160a01b031690632d46c6c290602401602060405180830381865afa1580156138a4573d6000803e3d6000fd5b505050506040513d601f19601f820116820180604052508101906138c89190614f7e565b90506138e8606682846020015185604001516001600160601b0316613674565b50613919565b60208101516040820151606a54613919926001600160a01b03909116916001600160601b031661401e565b6020808201516001600160a01b031660009081526074909152604090205460ff161561120e5780602001516001600160a01b031663463cde3a61395a613d7d565b836040518363ffffffff1660e01b81526004016139779190615456565b600060405180830381600088803b15801561399157600080fd5b5087f1935050505080156139a3575060015b61120e5750565b6040805160c081018252600080825260208201818152928201819052606082018190526080820181905260a0820152825168ffffffffffffffffff19169091528160016137f2565b6139fa614463565b60089790971b68ffffffffffffffff001660509490941b60ff60501b1660589590951b60ff60581b1660609690961b6bffffffffffffffffffffffff19169590951793909317919091176004178452604091821b73ffffffffffffffffffffffff00000000000000001660a09190911b6001600160a01b03191617602084015282015290565b613a8a8383613205565b15613abd5760405162461bcd60e51b815260206004820152600360248201526204455560ec1b6044820152606401610994565b82546001810184556000848152602090206004820401805460039092166008026101000a6001600160401b038181021990931685841691909102179055835490811115613b325760405162461bcd60e51b815260206004820152600360248201526213cd8d60ea1b6044820152606401610994565b60208201516001600160401b031615613b735760405162461bcd60e51b81526020600482015260036024820152622798a360e91b6044820152606401610994565b60208083018051831790526001600160401b03841660009081526001860190915260409020611e4690836003614481565b603380546001600160a01b038381166001600160a01b0319831681179093556040519116919082907f8be0079c531659141344cd1fd0a4f28419497f9722a3daafe3b4186f6b6457e090600090a35050565b613bfe614463565b82548210613c345760405162461bcd60e51b815260206004820152600360248201526209288b60eb1b6044820152606401610994565b6000836000018381548110613c4b57613c4b6151ad565b6000918252602080832060048304015460039283166008026101000a90046001600160401b03168084526001880190915260409283902083516060810194859052919450909290919082845b815481526020019060010190808311613c9757505050505091505092915050565b613cc0614463565b68ffffffffffffffffff861615613cff5760405162461bcd60e51b815260206004820152600360248201526210525160ea1b6044820152606401610994565b600083613d0d576000613d10565b60015b9050600368ffffffffffffffff0060088a901b1688171782600060200201526001600160a01b031960a087901b1660ff60981b609887901b161760ff60901b609083901b16176bffffffff0000000000000000604085901b16178260016020020152509695505050505050565b60735460009015613d8f575060735490565b5a905090565b60408051608081018252600080825260208201819052918101829052606081019190915268ffffffffffffffffff821615613df85760405162461bcd60e51b815260206004820152600360248201526210525160ea1b6044820152606401610994565b606082811c825260ff605884901c81166020840152605084901c8116604084015260489390931c90921615159181019190915290565b60058501546001600160a01b0384811691161415613f8357600034118015613e5557508034145b613e875760405162461bcd60e51b815260206004820152600360248201526215905360ea1b6044820152606401610994565b8460050160009054906101000a90046001600160a01b03166001600160a01b031663d0e30db0826040518263ffffffff1660e01b81526004016000604051808303818588803b158015613ed957600080fd5b505af1158015613eed573d6000803e3d6000fd5b505050506001600160a01b03831630149050613f7e57600585015460405163a9059cbb60e01b81526001600160a01b038481166004830152602482018490529091169063a9059cbb906044016020604051808303816000875af1158015613f58573d6000803e3d6000fd5b505050506040513d601f19601f82011682018060405250810190613f7c9190615296565b505b611e46565b3415613fb75760405162461bcd60e51b815260206004820152600360248201526215905360ea1b6044820152606401610994565b611e466001600160a01b038416858484614179565b600054610100900460ff16613ff35760405162461bcd60e51b815260040161099490615464565b6111d96141b1565b60008163ffffffff168363ffffffff161115614017578161379d565b5090919050565b6040516001600160a01b03831660248201526044810182905261408190849063a9059cbb60e01b906064015b60408051601f198184030181529190526020810180516001600160e01b03166001600160e01b0319909316929092179091526141e0565b505050565b6000818152600183016020526040812054801561416f5760006140aa60018361517e565b85549091506000906140be9060019061517e565b90508181146141235760008660000182815481106140de576140de6151ad565b9060005260206000200154905080876000018481548110614101576141016151ad565b6000918252602080832090910192909255918252600188019052604090208390555b855486908061413457614134615414565b600190038181906000526020600020016000905590558560010160008681526020019081526020016000206000905560019350505050613226565b6000915050613226565b6040516001600160a01b038085166024830152831660448201526064810182905261378b9085906323b872dd60e01b9060840161404a565b600054610100900460ff166141d85760405162461bcd60e51b815260040161099490615464565b6111d96142b2565b6000614235826040518060400160405280602081526020017f5361666545524332303a206c6f772d6c6576656c2063616c6c206661696c6564815250856001600160a01b03166142e29092919063ffffffff16565b80519091501561408157808060200190518101906142539190615296565b6140815760405162461bcd60e51b815260206004820152602a60248201527f5361666545524332303a204552433230206f7065726174696f6e20646964206e6044820152691bdd081cdd58d8d9595960b21b6064820152608401610994565b600054610100900460ff166142d95760405162461bcd60e51b815260040161099490615464565b6111d933613ba4565b60606142f184846000856142f9565b949350505050565b60608247101561435a5760405162461bcd60e51b815260206004820152602660248201527f416464726573733a20696e73756666696369656e742062616c616e636520666f6044820152651c8818d85b1b60d21b6064820152608401610994565b6001600160a01b0385163b6143b15760405162461bcd60e51b815260206004820152601d60248201527f416464726573733a2063616c6c20746f206e6f6e2d636f6e74726163740000006044820152606401610994565b600080866001600160a01b031685876040516143cd91906154db565b60006040518083038185875af1925050503d806000811461440a576040519150601f19603f3d011682016040523d82523d6000602084013e61440f565b606091505b509150915061441f82828661442a565b979650505050505050565b6060831561443957508161379d565b8251156144495782518084602001fd5b8160405162461bcd60e51b815260040161099491906154f7565b60405180606001604052806003906020820280368337509192915050565b82600381019282156144af579160200282015b828111156144af578251825591602001919060010190614494565b506144bb9291506144bf565b5090565b5b808211156144bb57600081556001016144c0565b6001600160a01b038116811461120e57600080fd5b6000602082840312156144fb57600080fd5b813561379d816144d4565b801515811461120e57600080fd5b6000806040838503121561452757600080fd5b8235614532816144d4565b9150602083013561454281614506565b809150509250929050565b63ffffffff8116811461120e57600080fd5b803561366f8161454d565b6000806040838503121561457d57600080fd5b82356145888161454d565b915060208301356145428161454d565b80356001600160401b038116811461366f57600080fd5b6001600160601b038116811461120e57600080fd5b803561366f816145af565b6000806000606084860312156145e457600080fd5b6145ed84614598565b925060208401356145fd816145af565b9150604084013561460d816145af565b809150509250925092565b60006020828403121561462a57600080fd5b813561379d8161454d565b60008083601f84011261464757600080fd5b5081356001600160401b0381111561465e57600080fd5b6020830191508360208260051b850101111561209357600080fd5b60008060008060008060006080888a03121561469457600080fd5b873561469f8161454d565b965060208801356001600160401b03808211156146bb57600080fd5b6146c78b838c01614635565b909850965060408a01359150808211156146e057600080fd5b6146ec8b838c01614635565b909650945060608a013591508082111561470557600080fd5b506147128a828b01614635565b989b979a50959850939692959293505050565b803560ff8116811461366f57600080fd5b6000806040838503121561474957600080fd5b61475283614725565b91506020830135614542816145af565b634e487b7160e01b600052604160045260246000fd5b6000806000806000806000806000898b0361018081121561479857600080fd5b8a35995060208b01356147aa816145af565b985060408b01356147ba816145af565b975060608b01356147ca816145af565b96506147d860808c01614725565b95506147e660a08c01614725565b945060c08b01356147f68161454d565b935060e08b01359250608060ff198201121561481157600080fd5b50604051608081018181106001600160401b038211171561484257634e487b7160e01b600052604160045260246000fd5b6040526148526101008c016145c4565b81526148616101208c016145c4565b60208201526148736101408c01614725565b60408201526148856101608c0161455f565b6060820152809150509295985092959850929598565b6000806000606084860312156148b057600080fd5b6148b984614725565b925060208401356148c9816145af565b9150604084013561460d81614506565b6000602082840312156148eb57600080fd5b61379d82614598565b6000806000806080858703121561490a57600080fd5b61491385614598565b93506020850135614923816145af565b92506040850135614933816145af565b91506060850135614943816145af565b939692955090935050565b600080600080600060a0868803121561496657600080fd5b61496f86614725565b945061497d60208701614725565b9350604086013561498d816145af565b9250606086013561499d816145af565b949793965091946080013592915050565b6000602082840312156149c057600080fd5b5035919050565b600080604083850312156149da57600080fd5b50508035926020909101359150565b6040808252835190820181905260009060609081840190602080880185805b84811015614a4557825186835b6003811015614a3257825182529186019190860190600101614a15565b5050509486019491830191600101614a08565b505050949094019490945250919392505050565b6080810161322682846001600160601b038082511683528060208301511660208401525060ff604082015116604083015263ffffffff60608201511660608301525050565b60008060008060808587031215614ab457600080fd5b843593506020850135614ac6816145af565b9250614ad460408601614725565b9150606085013561494381614506565b8060005b600381101561378b578151845260209384019390910190600101614ae8565b60808101614b158285614ae4565b82151560608301529392505050565b600080600080600060a08688031215614b3c57600080fd5b614b4586614598565b94506020860135614b55816145af565b93506040860135614b65816145af565b92506060860135614b75816145af565b91506080860135614b85816145af565b809150509295509295909350565b60008060408385031215614ba657600080fd5b823561453281614506565b60008060008060808587031215614bc757600080fd5b8435614bd2816144d4565b93506020850135614be2816144d4565b92506040850135614bf2816144d4565b91506060850135614943816144d4565b600080600080600060a08688031215614c1a57600080fd5b85359450614b5560208701614725565b6020808252818101527f4f776e61626c653a2063616c6c6572206973206e6f7420746865206f776e6572604082015260600190565b60208082526003908201526243484760e81b604082015260600190565b634e487b7160e01b600052601160045260246000fd5b600063ffffffff80841680614cb757634e487b7160e01b600052601260045260246000fd5b92169190910492915050565b6020808252600390820152622125a960e91b604082015260600190565b6020808252601f908201527f5265656e7472616e637947756172643a207265656e7472616e742063616c6c00604082015260600190565b60208082526003908201526213d25160ea1b604082015260600190565b634e487b7160e01b600052602160045260246000fd5b60208082526003908201526205459560ec1b604082015260600190565b6001600160401b038416815260a0810160058410614d9557634e487b7160e01b600052602160045260246000fd5b8360208301526142f16040830184614ae4565b8183526000602080850194508260005b85811015614de6578135614dcb816145af565b6001600160601b031687529582019590820190600101614db8565b509495945050505050565b63ffffffff888116825260806020808401829052908301889052600091899160a08501845b8b811015614e3c5760ff614e2986614725565b1682529382019390820190600101614e16565b508581036040870152888152810192508860005b89811015614e77578135614e638161454d565b841685529382019390820190600101614e50565b505050508281036060840152614e8e818587614da8565b9a9950505050505050505050565b60208082526003908201526214d39160ea1b604082015260600190565b8a815263ffffffff8a81166020830152604082018a90526001600160601b0389811660608401528881166080840152871660a083015260ff86811660c0840152851660e083015283166101008201526101a08101614f526101208301846001600160601b038082511683528060208301511660208401525060ff604082015116604083015263ffffffff60608201511660608301525050565b9b9a5050505050505050505050565b60208082526003908201526204558560ec1b604082015260600190565b600060208284031215614f9057600080fd5b815161379d816144d4565b600063ffffffff808316818516808303821115614fba57614fba614c7c565b01949350505050565b6001600160401b038151168252602081015160208301526001600160601b036040820151166040830152606081015161500760608401826001600160601b03169052565b50608081015161502260808401826001600160601b03169052565b5060a081015161503760a084018260ff169052565b5060c081015161504c60c084018260ff169052565b5060e081015161506460e084018263ffffffff169052565b506101008181015162ffffff81168483015261378b565b86815263ffffffff861660208201526001600160401b03851660408201526001600160601b038481166060830152831660808201526101c0810161441f60a0830184614fc3565b6000602082840312156150d457600080fd5b815161379d816145af565b87815263ffffffff871660208201526001600160401b03861660408201526001600160601b0385811660608301528481166080830152831660a08201526101e0810161512e60c0830184614fc3565b98975050505050505050565b60006001600160401b038083168181141561515757615157614c7c565b6001019392505050565b60208082526003908201526253214d60e81b604082015260600190565b60008282101561519057615190614c7c565b500390565b600082198211156151a8576151a8614c7c565b500190565b634e487b7160e01b600052603260045260246000fd5b60006000198214156151d7576151d7614c7c565b5060010190565b6000602082840312156151f057600080fd5b5051919050565b80516001600160401b031682526020808201516001600160a01b0316908301526040808201516001600160601b03169083015260608082015160ff169083015260808082015115159083015260a09081015163ffffffff16910152565b610140810161526382886151f7565b6001600160601b0395861660c083015293851660e082015291841661010083015290921661012090920191909152919050565b6000602082840312156152a857600080fd5b815161379d81614506565b87815263ffffffff87166020808301919091526001600160601b03878116604084015286811660608401528581166080840152841660a083015261012082019060c083018460005b6003811015615318578151835291830191908301906001016152fb565b5050505098975050505050505050565b610160810161533782896151f7565b60c08201969096526001600160601b0394851660e082015292841661010084015290831661012083015290911661014090910152919050565b600080600080600060a0868803121561538857600080fd5b8551615393816145af565b60208701519095506153a4816145af565b60408701519094506153b58161454d565b60608701519093506153c6816145af565b60808701519092506fffffffffffffffffffffffffffffffff81168114614b8557600080fd5b60006001600160401b038381169083168181101561540c5761540c614c7c565b039392505050565b634e487b7160e01b600052603160045260246000fd5b600063ffffffff8083168185168183048111821515161561544d5761544d614c7c565b02949350505050565b60c0810161322682846151f7565b6020808252602b908201527f496e697469616c697a61626c653a20636f6e7472616374206973206e6f74206960408201526a6e697469616c697a696e6760a81b606082015260800190565b60005b838110156154ca5781810151838201526020016154b2565b8381111561378b5750506000910152565b600082516154ed8184602087016154af565b9190910192915050565b60208152600082518060208401526155168160408501602087016154af565b601f01601f1916919091016040019291505056fe6204728db10730656ada9f8ce5b258b0d97dc6ac8e8a101ff4b905c3c9cc7dc5a264697066735822122020fc50f806813e786fd3653e0a0d29c2ad1ec3c8f2451b4d823f3670702982ea64736f6c634300080a0033",
  "linkReferences": {
    "contracts/libraries/LibOrderBook.sol": {
      "LibOrderBook": [
        {
          "length": 20,
          "start": 4510
        },
        {
          "length": 20,
          "start": 4916
        },
        {
          "length": 20,
          "start": 5171
        },
        {
          "length": 20,
          "start": 6609
        },
        {
          "length": 20,
          "start": 6747
        },
        {
          "length": 20,
          "start": 10592
        },
        {
          "length": 20,
          "start": 12752
        }
      ]
    }
  },
  "deployedLinkReferences": {
    "contracts/libraries/LibOrderBook.sol": {
      "LibOrderBook": [
        {
          "length": 20,
          "start": 4478
        },
        {
          "length": 20,
          "start": 4884
        },
        {
          "length": 20,
          "start": 5139
        },
        {
          "length": 20,
          "start": 6577
        },
        {
          "length": 20,
          "start": 6715
        },
        {
          "length": 20,
          "start": 10560
        },
        {
          "length": 20,
          "start": 12720
        }
      ]
    }
  }
}