{
  "abi": [
    {
      "inputs": [
        {
          "internalType": "address",
          "name": "wEth",
          "type": "address"
        }
      ],
      "stateMutability": "nonpayable",
      "type": "constructor"
    },
    {
      "inputs": [
        {
          "internalType": "address",
          "name": "",
          "type": "address"
        },
        {
          "internalType": "bool",
          "name": "",
          "type": "bool"
        },
        {
          "internalType": "bytes",
          "name": "data",
          "type": "bytes"
        }
      ],
      "name": "canCall",
      "outputs": [
        {
          "internalType": "bool",
          "name": "",
          "type": "bool"
        },
        {
          "internalType": "address[]",
          "name": "",
          "type": "address[]"
        },
        {
          "internalType": "address[]",
          "name": "",
          "type": "address[]"
        }
      ],
      "stateMutability": "view",
      "type": "function"
    },
    {
      "inputs": [
        {
          "internalType": "uint256",
          "name": "",
          "type": "uint256"
        }
      ],
      "name": "weth",
      "outputs": [
        {
          "internalType": "address",
          "name": "",
          "type": "address"
        }
      ],
      "stateMutability": "view",
      "type": "function"
    }
  ],
  "bytecode": {
    "object": "0x608060405234801561001057600080fd5b5060405161046038038061046083398101604081905261002f91610081565b600080546001810182559080527f290decd9548b62a8d60345a988386fc84ba6bc95484008f6362f93160ef3e5630180546001600160a01b0319166001600160a01b03929092169190911790556100b1565b60006020828403121561009357600080fd5b81516001600160a01b03811681146100aa57600080fd5b9392505050565b6103a0806100c06000396000f3fe608060405234801561001057600080fd5b50600436106100365760003560e01c80633414d0991461003b578063ec6c20a814610066575b600080fd5b61004e610049366004610203565b610091565b60405161005d939291906102ea565b60405180910390f35b610079610074366004610321565b6101d9565b6040516001600160a01b03909116815260200161005d565b6000606080826100a1858761033a565b90506302f1cf2560e41b6001600160e01b031982160161012c576040805160008082528054602081810284018501855283018181526001949293929091849184018282801561011957602002820191906000526020600020905b81546001600160a01b031681526001909101906020018083116100fb575b50505050509150935093509350506101cf565b63d1e582b360e01b6001600160e01b03198216016101b2576040805160008082528054602081810284018501855283018181526001949091839185018282801561019f57602002820191906000526020600020905b81546001600160a01b03168152600190910190602001808311610181575b50505050509050935093509350506101cf565b505060408051600080825260208201818152828401909352935091505b9450945094915050565b600081815481106101e957600080fd5b6000918252602090912001546001600160a01b0316905081565b6000806000806060858703121561021957600080fd5b84356001600160a01b038116811461023057600080fd5b93506020850135801515811461024557600080fd5b9250604085013567ffffffffffffffff8082111561026257600080fd5b818701915087601f83011261027657600080fd5b81358181111561028557600080fd5b88602082850101111561029757600080fd5b95989497505060200194505050565b600081518084526020808501945080840160005b838110156102df5781516001600160a01b0316875295820195908201906001016102ba565b509495945050505050565b831515815260606020820152600061030560608301856102a6565b828103604084015261031781856102a6565b9695505050505050565b60006020828403121561033357600080fd5b5035919050565b6001600160e01b031981358181169160048510156103625780818660040360031b1b83161692505b50509291505056fea2646970667358221220b62a52ad1dad8d22b3b091b6b49cfc21876fa8b288c64c398e27b66e9264ba6d64736f6c63430008110033",
    "linkReferences": {}
  },
  "methodIdentifiers": {
    "canCall(address,bool,bytes)": "3414d099",
    "weth(uint256)": "ec6c20a8"
  },
  "id": 10
}