{
  "abi": [
    {
      "inputs": [],
      "name": "AccountManagerOnly",
      "type": "error"
    },
    {
      "inputs": [],
      "name": "AdminOnly",
      "type": "error"
    },
    {
      "inputs": [],
      "name": "ContractAlreadyInitialized",
      "type": "error"
    },
    {
      "inputs": [],
      "name": "ContractPaused",
      "type": "error"
    },
    {
      "inputs": [],
      "name": "EthTransferFailure",
      "type": "error"
    },
    {
      "inputs": [],
      "name": "MaxSupply",
      "type": "error"
    },
    {
      "inputs": [],
      "name": "MinimumShares",
      "type": "error"
    },
    {
      "inputs": [],
      "name": "ZeroAddress",
      "type": "error"
    },
    {
      "inputs": [],
      "name": "ZeroAssets",
      "type": "error"
    },
    {
      "inputs": [],
      "name": "ZeroShares",
      "type": "error"
    },
    {
      "anonymous": false,
      "inputs": [
        {
          "indexed": true,
          "internalType": "address",
          "name": "owner",
          "type": "address"
        },
        {
          "indexed": true,
          "internalType": "address",
          "name": "spender",
          "type": "address"
        },
        {
          "indexed": false,
          "internalType": "uint256",
          "name": "amount",
          "type": "uint256"
        }
      ],
      "name": "Approval",
      "type": "event"
    },
    {
      "anonymous": false,
      "inputs": [
        {
          "indexed": true,
          "internalType": "address",
          "name": "caller",
          "type": "address"
        },
        {
          "indexed": true,
          "internalType": "address",
          "name": "owner",
          "type": "address"
        },
        {
          "indexed": false,
          "internalType": "uint256",
          "name": "assets",
          "type": "uint256"
        },
        {
          "indexed": false,
          "internalType": "uint256",
          "name": "shares",
          "type": "uint256"
        }
      ],
      "name": "Deposit",
      "type": "event"
    },
    {
      "anonymous": false,
      "inputs": [
        {
          "indexed": true,
          "internalType": "address",
          "name": "previousAdmin",
          "type": "address"
        },
        {
          "indexed": true,
          "internalType": "address",
          "name": "newAdmin",
          "type": "address"
        }
      ],
      "name": "OwnershipTransferred",
      "type": "event"
    },
    {
      "anonymous": false,
      "inputs": [
        {
          "indexed": true,
          "internalType": "address",
          "name": "admin",
          "type": "address"
        },
        {
          "indexed": false,
          "internalType": "bool",
          "name": "pause",
          "type": "bool"
        }
      ],
      "name": "PauseToggled",
      "type": "event"
    },
    {
      "anonymous": false,
      "inputs": [
        {
          "indexed": true,
          "internalType": "address",
          "name": "treasury",
          "type": "address"
        },
        {
          "indexed": false,
          "internalType": "uint256",
          "name": "amt",
          "type": "uint256"
        }
      ],
      "name": "ReservesRedeemed",
      "type": "event"
    },
    {
      "anonymous": false,
      "inputs": [
        {
          "indexed": true,
          "internalType": "address",
          "name": "from",
          "type": "address"
        },
        {
          "indexed": true,
          "internalType": "address",
          "name": "to",
          "type": "address"
        },
        {
          "indexed": false,
          "internalType": "uint256",
          "name": "amount",
          "type": "uint256"
        }
      ],
      "name": "Transfer",
      "type": "event"
    },
    {
      "anonymous": false,
      "inputs": [
        {
          "indexed": true,
          "internalType": "address",
          "name": "caller",
          "type": "address"
        },
        {
          "indexed": true,
          "internalType": "address",
          "name": "receiver",
          "type": "address"
        },
        {
          "indexed": true,
          "internalType": "address",
          "name": "owner",
          "type": "address"
        },
        {
          "indexed": false,
          "internalType": "uint256",
          "name": "assets",
          "type": "uint256"
        },
        {
          "indexed": false,
          "internalType": "uint256",
          "name": "shares",
          "type": "uint256"
        }
      ],
      "name": "Withdraw",
      "type": "event"
    },
    {
      "inputs": [],
      "name": "DOMAIN_SEPARATOR",
      "outputs": [
        {
          "internalType": "bytes32",
          "name": "",
          "type": "bytes32"
        }
      ],
      "stateMutability": "view",
      "type": "function"
    },
    {
      "inputs": [],
      "name": "accountManager",
      "outputs": [
        {
          "internalType": "address",
          "name": "",
          "type": "address"
        }
      ],
      "stateMutability": "view",
      "type": "function"
    },
    {
      "inputs": [],
      "name": "admin",
      "outputs": [
        {
          "internalType": "address",
          "name": "",
          "type": "address"
        }
      ],
      "stateMutability": "view",
      "type": "function"
    },
    {
      "inputs": [
        {
          "internalType": "address",
          "name": "",
          "type": "address"
        },
        {
          "internalType": "address",
          "name": "",
          "type": "address"
        }
      ],
      "name": "allowance",
      "outputs": [
        {
          "internalType": "uint256",
          "name": "",
          "type": "uint256"
        }
      ],
      "stateMutability": "view",
      "type": "function"
    },
    {
      "inputs": [
        {
          "internalType": "address",
          "name": "spender",
          "type": "address"
        },
        {
          "internalType": "uint256",
          "name": "amount",
          "type": "uint256"
        }
      ],
      "name": "approve",
      "outputs": [
        {
          "internalType": "bool",
          "name": "",
          "type": "bool"
        }
      ],
      "stateMutability": "nonpayable",
      "type": "function"
    },
    {
      "inputs": [],
      "name": "asset",
      "outputs": [
        {
          "internalType": "contract ERC20",
          "name": "",
          "type": "address"
        }
      ],
      "stateMutability": "view",
      "type": "function"
    },
    {
      "inputs": [
        {
          "internalType": "address",
          "name": "",
          "type": "address"
        }
      ],
      "name": "balanceOf",
      "outputs": [
        {
          "internalType": "uint256",
          "name": "",
          "type": "uint256"
        }
      ],
      "stateMutability": "view",
      "type": "function"
    },
    {
      "inputs": [],
      "name": "borrows",
      "outputs": [
        {
          "internalType": "uint256",
          "name": "",
          "type": "uint256"
        }
      ],
      "stateMutability": "view",
      "type": "function"
    },
    {
      "inputs": [
        {
          "internalType": "address",
          "name": "",
          "type": "address"
        }
      ],
      "name": "borrowsOf",
      "outputs": [
        {
          "internalType": "uint256",
          "name": "",
          "type": "uint256"
        }
      ],
      "stateMutability": "view",
      "type": "function"
    },
    {
      "inputs": [
        {
          "internalType": "address",
          "name": "account",
          "type": "address"
        },
        {
          "internalType": "uint256",
          "name": "amt",
          "type": "uint256"
        }
      ],
      "name": "collectFrom",
      "outputs": [
        {
          "internalType": "bool",
          "name": "",
          "type": "bool"
        }
      ],
      "stateMutability": "nonpayable",
      "type": "function"
    },
    {
      "inputs": [
        {
          "internalType": "uint256",
          "name": "shares",
          "type": "uint256"
        }
      ],
      "name": "convertToAssets",
      "outputs": [
        {
          "internalType": "uint256",
          "name": "",
          "type": "uint256"
        }
      ],
      "stateMutability": "view",
      "type": "function"
    },
    {
      "inputs": [
        {
          "internalType": "uint256",
          "name": "assets",
          "type": "uint256"
        }
      ],
      "name": "convertToShares",
      "outputs": [
        {
          "internalType": "uint256",
          "name": "",
          "type": "uint256"
        }
      ],
      "stateMutability": "view",
      "type": "function"
    },
    {
      "inputs": [],
      "name": "decimals",
      "outputs": [
        {
          "internalType": "uint8",
          "name": "",
          "type": "uint8"
        }
      ],
      "stateMutability": "view",
      "type": "function"
    },
    {
      "inputs": [
        {
          "internalType": "uint256",
          "name": "assets",
          "type": "uint256"
        },
        {
          "internalType": "address",
          "name": "receiver",
          "type": "address"
        }
      ],
      "name": "deposit",
      "outputs": [
        {
          "internalType": "uint256",
          "name": "shares",
          "type": "uint256"
        }
      ],
      "stateMutability": "nonpayable",
      "type": "function"
    },
    {
      "inputs": [],
      "name": "depositEth",
      "outputs": [
        {
          "internalType": "uint256",
          "name": "shares",
          "type": "uint256"
        }
      ],
      "stateMutability": "payable",
      "type": "function"
    },
    {
      "inputs": [
        {
          "internalType": "address",
          "name": "account",
          "type": "address"
        }
      ],
      "name": "getBorrowBalance",
      "outputs": [
        {
          "internalType": "uint256",
          "name": "",
          "type": "uint256"
        }
      ],
      "stateMutability": "view",
      "type": "function"
    },
    {
      "inputs": [],
      "name": "getBorrows",
      "outputs": [
        {
          "internalType": "uint256",
          "name": "",
          "type": "uint256"
        }
      ],
      "stateMutability": "view",
      "type": "function"
    },
    {
      "inputs": [
        {
          "internalType": "contract ERC20",
          "name": "_asset",
          "type": "address"
        },
        {
          "internalType": "string",
          "name": "_name",
          "type": "string"
        },
        {
          "internalType": "string",
          "name": "_symbol",
          "type": "string"
        },
        {
          "internalType": "contract IRegistry",
          "name": "_registry",
          "type": "address"
        },
        {
          "internalType": "uint256",
          "name": "_originationFee",
          "type": "uint256"
        },
        {
          "internalType": "address",
          "name": "_treasury",
          "type": "address"
        },
        {
          "internalType": "uint256",
          "name": "_reserveShares",
          "type": "uint256"
        },
        {
          "internalType": "uint256",
          "name": "_maxSupply",
          "type": "uint256"
        }
      ],
      "name": "init",
      "outputs": [],
      "stateMutability": "nonpayable",
      "type": "function"
    },
    {
      "inputs": [
        {
          "internalType": "string",
          "name": "_rateModel",
          "type": "string"
        }
      ],
      "name": "initDep",
      "outputs": [],
      "stateMutability": "nonpayable",
      "type": "function"
    },
    {
      "inputs": [],
      "name": "lastUpdated",
      "outputs": [
        {
          "internalType": "uint256",
          "name": "",
          "type": "uint256"
        }
      ],
      "stateMutability": "view",
      "type": "function"
    },
    {
      "inputs": [
        {
          "internalType": "address",
          "name": "account",
          "type": "address"
        },
        {
          "internalType": "uint256",
          "name": "amt",
          "type": "uint256"
        }
      ],
      "name": "lendTo",
      "outputs": [
        {
          "internalType": "bool",
          "name": "isFirstBorrow",
          "type": "bool"
        }
      ],
      "stateMutability": "nonpayable",
      "type": "function"
    },
    {
      "inputs": [
        {
          "internalType": "address",
          "name": "",
          "type": "address"
        }
      ],
      "name": "maxDeposit",
      "outputs": [
        {
          "internalType": "uint256",
          "name": "",
          "type": "uint256"
        }
      ],
      "stateMutability": "view",
      "type": "function"
    },
    {
      "inputs": [
        {
          "internalType": "address",
          "name": "",
          "type": "address"
        }
      ],
      "name": "maxMint",
      "outputs": [
        {
          "internalType": "uint256",
          "name": "",
          "type": "uint256"
        }
      ],
      "stateMutability": "view",
      "type": "function"
    },
    {
      "inputs": [
        {
          "internalType": "address",
          "name": "owner",
          "type": "address"
        }
      ],
      "name": "maxRedeem",
      "outputs": [
        {
          "internalType": "uint256",
          "name": "",
          "type": "uint256"
        }
      ],
      "stateMutability": "view",
      "type": "function"
    },
    {
      "inputs": [],
      "name": "maxSupply",
      "outputs": [
        {
          "internalType": "uint256",
          "name": "",
          "type": "uint256"
        }
      ],
      "stateMutability": "view",
      "type": "function"
    },
    {
      "inputs": [
        {
          "internalType": "address",
          "name": "owner",
          "type": "address"
        }
      ],
      "name": "maxWithdraw",
      "outputs": [
        {
          "internalType": "uint256",
          "name": "",
          "type": "uint256"
        }
      ],
      "stateMutability": "view",
      "type": "function"
    },
    {
      "inputs": [
        {
          "internalType": "uint256",
          "name": "shares",
          "type": "uint256"
        },
        {
          "internalType": "address",
          "name": "receiver",
          "type": "address"
        }
      ],
      "name": "mint",
      "outputs": [
        {
          "internalType": "uint256",
          "name": "assets",
          "type": "uint256"
        }
      ],
      "stateMutability": "nonpayable",
      "type": "function"
    },
    {
      "inputs": [],
      "name": "name",
      "outputs": [
        {
          "internalType": "string",
          "name": "",
          "type": "string"
        }
      ],
      "stateMutability": "view",
      "type": "function"
    },
    {
      "inputs": [
        {
          "internalType": "address",
          "name": "",
          "type": "address"
        }
      ],
      "name": "nonces",
      "outputs": [
        {
          "internalType": "uint256",
          "name": "",
          "type": "uint256"
        }
      ],
      "stateMutability": "view",
      "type": "function"
    },
    {
      "inputs": [],
      "name": "originationFee",
      "outputs": [
        {
          "internalType": "uint256",
          "name": "",
          "type": "uint256"
        }
      ],
      "stateMutability": "view",
      "type": "function"
    },
    {
      "inputs": [],
      "name": "paused",
      "outputs": [
        {
          "internalType": "bool",
          "name": "",
          "type": "bool"
        }
      ],
      "stateMutability": "view",
      "type": "function"
    },
    {
      "inputs": [
        {
          "internalType": "address",
          "name": "owner",
          "type": "address"
        },
        {
          "internalType": "address",
          "name": "spender",
          "type": "address"
        },
        {
          "internalType": "uint256",
          "name": "value",
          "type": "uint256"
        },
        {
          "internalType": "uint256",
          "name": "deadline",
          "type": "uint256"
        },
        {
          "internalType": "uint8",
          "name": "v",
          "type": "uint8"
        },
        {
          "internalType": "bytes32",
          "name": "r",
          "type": "bytes32"
        },
        {
          "internalType": "bytes32",
          "name": "s",
          "type": "bytes32"
        }
      ],
      "name": "permit",
      "outputs": [],
      "stateMutability": "nonpayable",
      "type": "function"
    },
    {
      "inputs": [
        {
          "internalType": "uint256",
          "name": "assets",
          "type": "uint256"
        }
      ],
      "name": "previewDeposit",
      "outputs": [
        {
          "internalType": "uint256",
          "name": "",
          "type": "uint256"
        }
      ],
      "stateMutability": "view",
      "type": "function"
    },
    {
      "inputs": [
        {
          "internalType": "uint256",
          "name": "shares",
          "type": "uint256"
        }
      ],
      "name": "previewMint",
      "outputs": [
        {
          "internalType": "uint256",
          "name": "",
          "type": "uint256"
        }
      ],
      "stateMutability": "view",
      "type": "function"
    },
    {
      "inputs": [
        {
          "internalType": "uint256",
          "name": "shares",
          "type": "uint256"
        }
      ],
      "name": "previewRedeem",
      "outputs": [
        {
          "internalType": "uint256",
          "name": "",
          "type": "uint256"
        }
      ],
      "stateMutability": "view",
      "type": "function"
    },
    {
      "inputs": [
        {
          "internalType": "uint256",
          "name": "assets",
          "type": "uint256"
        }
      ],
      "name": "previewWithdraw",
      "outputs": [
        {
          "internalType": "uint256",
          "name": "",
          "type": "uint256"
        }
      ],
      "stateMutability": "view",
      "type": "function"
    },
    {
      "inputs": [],
      "name": "rateModel",
      "outputs": [
        {
          "internalType": "contract IRateModel",
          "name": "",
          "type": "address"
        }
      ],
      "stateMutability": "view",
      "type": "function"
    },
    {
      "inputs": [
        {
          "internalType": "uint256",
          "name": "shares",
          "type": "uint256"
        },
        {
          "internalType": "address",
          "name": "receiver",
          "type": "address"
        },
        {
          "internalType": "address",
          "name": "owner",
          "type": "address"
        }
      ],
      "name": "redeem",
      "outputs": [
        {
          "internalType": "uint256",
          "name": "assets",
          "type": "uint256"
        }
      ],
      "stateMutability": "nonpayable",
      "type": "function"
    },
    {
      "inputs": [
        {
          "internalType": "uint256",
          "name": "shares",
          "type": "uint256"
        }
      ],
      "name": "redeemEth",
      "outputs": [
        {
          "internalType": "uint256",
          "name": "assets",
          "type": "uint256"
        }
      ],
      "stateMutability": "nonpayable",
      "type": "function"
    },
    {
      "inputs": [],
      "name": "registry",
      "outputs": [
        {
          "internalType": "contract IRegistry",
          "name": "",
          "type": "address"
        }
      ],
      "stateMutability": "view",
      "type": "function"
    },
    {
      "inputs": [],
      "name": "symbol",
      "outputs": [
        {
          "internalType": "string",
          "name": "",
          "type": "string"
        }
      ],
      "stateMutability": "view",
      "type": "function"
    },
    {
      "inputs": [],
      "name": "togglePause",
      "outputs": [],
      "stateMutability": "nonpayable",
      "type": "function"
    },
    {
      "inputs": [],
      "name": "totalAssets",
      "outputs": [
        {
          "internalType": "uint256",
          "name": "",
          "type": "uint256"
        }
      ],
      "stateMutability": "view",
      "type": "function"
    },
    {
      "inputs": [],
      "name": "totalBorrowShares",
      "outputs": [
        {
          "internalType": "uint256",
          "name": "",
          "type": "uint256"
        }
      ],
      "stateMutability": "view",
      "type": "function"
    },
    {
      "inputs": [],
      "name": "totalSupply",
      "outputs": [
        {
          "internalType": "uint256",
          "name": "",
          "type": "uint256"
        }
      ],
      "stateMutability": "view",
      "type": "function"
    },
    {
      "inputs": [
        {
          "internalType": "address",
          "name": "to",
          "type": "address"
        },
        {
          "internalType": "uint256",
          "name": "amount",
          "type": "uint256"
        }
      ],
      "name": "transfer",
      "outputs": [
        {
          "internalType": "bool",
          "name": "",
          "type": "bool"
        }
      ],
      "stateMutability": "nonpayable",
      "type": "function"
    },
    {
      "inputs": [
        {
          "internalType": "address",
          "name": "from",
          "type": "address"
        },
        {
          "internalType": "address",
          "name": "to",
          "type": "address"
        },
        {
          "internalType": "uint256",
          "name": "amount",
          "type": "uint256"
        }
      ],
      "name": "transferFrom",
      "outputs": [
        {
          "internalType": "bool",
          "name": "",
          "type": "bool"
        }
      ],
      "stateMutability": "nonpayable",
      "type": "function"
    },
    {
      "inputs": [
        {
          "internalType": "address",
          "name": "newAdmin",
          "type": "address"
        }
      ],
      "name": "transferOwnership",
      "outputs": [],
      "stateMutability": "nonpayable",
      "type": "function"
    },
    {
      "inputs": [],
      "name": "treasury",
      "outputs": [
        {
          "internalType": "address",
          "name": "",
          "type": "address"
        }
      ],
      "stateMutability": "view",
      "type": "function"
    },
    {
      "inputs": [
        {
          "internalType": "uint256",
          "name": "_maxSupply",
          "type": "uint256"
        }
      ],
      "name": "updateMaxSupply",
      "outputs": [],
      "stateMutability": "nonpayable",
      "type": "function"
    },
    {
      "inputs": [
        {
          "internalType": "uint256",
          "name": "_originationFee",
          "type": "uint256"
        }
      ],
      "name": "updateOriginationFee",
      "outputs": [],
      "stateMutability": "nonpayable",
      "type": "function"
    },
    {
      "inputs": [],
      "name": "updateState",
      "outputs": [],
      "stateMutability": "nonpayable",
      "type": "function"
    },
    {
      "inputs": [
        {
          "internalType": "uint256",
          "name": "assets",
          "type": "uint256"
        },
        {
          "internalType": "address",
          "name": "receiver",
          "type": "address"
        },
        {
          "internalType": "address",
          "name": "owner",
          "type": "address"
        }
      ],
      "name": "withdraw",
      "outputs": [
        {
          "internalType": "uint256",
          "name": "shares",
          "type": "uint256"
        }
      ],
      "stateMutability": "nonpayable",
      "type": "function"
    },
    {
      "stateMutability": "payable",
      "type": "receive"
    }
  ],
  "bytecode": {
    "object": "0x608060405234801561001057600080fd5b50612b53806100206000396000f3fe60806040526004361061031e5760003560e01c806391c2c469116101ab578063c6e6f592116100f7578063dd62ed3e11610095578063f103b4331161006f578063f103b43314610964578063f2fde38b14610984578063f851a440146109a4578063ff3f60e7146109c457600080fd5b8063dd62ed3e146108f7578063eae93e7e1461092f578063ef8b30f71461094457600080fd5b8063d0b06f5d116100d1578063d0b06f5d14610875578063d505accf1461088b578063d5abeb01146108ab578063d905777e146108c157600080fd5b8063c6e6f59214610815578063cbcafed214610835578063ce96cb771461085557600080fd5b8063b460af9411610164578063bde4f4771161013e578063bde4f47714610793578063bf9836a6146107c0578063c4ae3168146107e0578063c63d75b6146107f557600080fd5b8063b460af941461073d578063b8bb5c421461075d578063ba0876521461077357600080fd5b806391c2c4691461068857806394bf804d146106a857806395d89b41146106c8578063a1088459146106dd578063a9059cbb146106fd578063b3d7f6b91461071d57600080fd5b8063439370b11161026a5780636b6d25861161022357806370a08231116101fd57806370a08231146105e95780637b103999146106165780637d6af0791461063b5780637ecebe001461065b57600080fd5b80636b6d2586146105895780636d47049a146105a95780636e553f65146105c957600080fd5b8063439370b1146104e05780634bc3f0ec146104e85780634cdad506146105085780635c975abb1461052857806361d027b3146105495780636ab22cf01461056957600080fd5b806318160ddd116102d7578063313ce567116102b1578063313ce567146104475780633644e5151461047357806338d52e0f14610488578063402d267d146104c057600080fd5b806318160ddd146103fa5780631d8557d71461041057806323b872dd1461042757600080fd5b806301e1d1141461032a57806306fdde031461035257806307a2d13a14610374578063095ea7b3146103945780630a28a477146103c4578063136cf1f7146103e457600080fd5b3661032557005b600080fd5b34801561033657600080fd5b5061033f6109da565b6040519081526020015b60405180910390f35b34801561035e57600080fd5b50610367610a5f565b60405161034991906123f0565b34801561038057600080fd5b5061033f61038f366004612423565b610aed565b3480156103a057600080fd5b506103b46103af366004612451565b610b1a565b6040519015158152602001610349565b3480156103d057600080fd5b5061033f6103df366004612423565b610b87565b3480156103f057600080fd5b5061033f60145481565b34801561040657600080fd5b5061033f60045481565b34801561041c57600080fd5b50610425610ba7565b005b34801561043357600080fd5b506103b461044236600461247d565b610bf6565b34801561045357600080fd5b506003546104619060ff1681565b60405160ff9091168152602001610349565b34801561047f57600080fd5b5061033f610c66565b34801561049457600080fd5b50600b546104a8906001600160a01b031681565b6040516001600160a01b039091168152602001610349565b3480156104cc57600080fd5b5061033f6104db3660046124be565b610c80565b61033f610c8f565b3480156104f457600080fd5b5061033f610503366004612423565b610d7c565b34801561051457600080fd5b5061033f610523366004612423565b610e6d565b34801561053457600080fd5b506000546103b490600160a01b900460ff1681565b34801561055557600080fd5b506010546104a8906001600160a01b031681565b34801561057557600080fd5b506103b4610584366004612451565b610e78565b34801561059557600080fd5b506104256105a4366004612524565b611011565b3480156105b557600080fd5b506104256105c4366004612423565b61117d565b3480156105d557600080fd5b5061033f6105e4366004612566565b6111ad565b3480156105f557600080fd5b5061033f6106043660046124be565b60066020526000908152604090205481565b34801561062257600080fd5b50600d546104a89061010090046001600160a01b031681565b34801561064757600080fd5b5061033f6106563660046124be565b6112e7565b34801561066757600080fd5b5061033f6106763660046124be565b600a6020526000908152604090205481565b34801561069457600080fd5b50600f546104a8906001600160a01b031681565b3480156106b457600080fd5b5061033f6106c3366004612566565b611309565b3480156106d457600080fd5b506103676113fd565b3480156106e957600080fd5b50600e546104a8906001600160a01b031681565b34801561070957600080fd5b506103b4610718366004612451565b61140a565b34801561072957600080fd5b5061033f610738366004612423565b611417565b34801561074957600080fd5b5061033f610758366004612596565b611436565b34801561076957600080fd5b5061033f60135481565b34801561077f57600080fd5b5061033f61078e366004612596565b611527565b34801561079f57600080fd5b5061033f6107ae3660046124be565b60156020526000908152604090205481565b3480156107cc57600080fd5b506103b46107db366004612451565b611656565b3480156107ec57600080fd5b50610425611758565b34801561080157600080fd5b5061033f6108103660046124be565b6117e9565b34801561082157600080fd5b5061033f610830366004612423565b61180e565b34801561084157600080fd5b506104256108503660046125d8565b61182e565b34801561086157600080fd5b5061033f6108703660046124be565b611972565b34801561088157600080fd5b5061033f60125481565b34801561089757600080fd5b506104256108a63660046126ad565b611994565b3480156108b757600080fd5b5061033f60055481565b3480156108cd57600080fd5b5061033f6108dc3660046124be565b6001600160a01b031660009081526006602052604090205490565b34801561090357600080fd5b5061033f61091236600461271e565b600760209081526000928352604080842090915290825290205481565b34801561093b57600080fd5b5061033f611bd8565b34801561095057600080fd5b5061033f61095f366004612423565b611bfb565b34801561097057600080fd5b5061042561097f366004612423565b611c06565b34801561099057600080fd5b5061042561099f3660046124be565b611c36565b3480156109b057600080fd5b506000546104a8906001600160a01b031681565b3480156109d057600080fd5b5061033f60115481565b60006109e4611bd8565b600b546040516370a0823160e01b81523060048201526001600160a01b03909116906370a0823190602401602060405180830381865afa158015610a2c573d6000803e3d6000fd5b505050506040513d601f19601f82011682018060405250810190610a50919061274c565b610a5a919061277b565b905090565b60018054610a6c9061278e565b80601f0160208091040260200160405190810160405280929190818152602001828054610a989061278e565b8015610ae55780601f10610aba57610100808354040283529160200191610ae5565b820191906000526020600020905b815481529060010190602001808311610ac857829003601f168201915b505050505081565b6004546000908015610b1157610b0c610b046109da565b849083611ce3565b610b13565b825b9392505050565b3360008181526007602090815260408083206001600160a01b038716808552925280832085905551919290917f8c5be1e5ebec7d5bd14f71427d1e84f3dd0314c0f7b2291e5b200ac8c7c3b92590610b759086815260200190565b60405180910390a35060015b92915050565b6004546000908015610b1157610b0c81610b9f6109da565b859190611d01565b4260125403610bb257565b6000610bbc611d27565b90506000610bd582601154611e4190919063ffffffff16565b90508060116000828254610be9919061277b565b9091555050426012555050565b6001600160a01b03831660009081526007602090815260408083203384529091528120546000198114610c5257610c2d83826127c8565b6001600160a01b03861660009081526007602090815260408083203384529091529020555b610c5d858585611e56565b95945050505050565b60006008544614610c7957610a5a611f14565b5060095490565b6000610b8161038f60006117e9565b600034610c9c8183611fae565b610ca581611bfb565b915081600003610cc857604051639811e0c760e01b815260040160405180910390fd5b600b60009054906101000a90046001600160a01b03166001600160a01b031663d0e30db0826040518263ffffffff1660e01b81526004016000604051808303818588803b158015610d1857600080fd5b505af1158015610d2c573d6000803e3d6000fd5b5050505050610d3b3383611fba565b6040805182815260208101849052339182917fdcbc1c05240f31ff3ad067ef1ee35ce4997762752e3a095284754544f4c709d7910160405180910390a35090565b6000610d8782610e6d565b905080600003610daa57604051630cb65c7760e21b815260040160405180910390fd5b610db48183611fae565b610dbe338361204b565b60408051828152602081018490523391829182917ffbde797d201c681b91056529119e0b02407c7bb96a4a2c75c01fc9667232c8db910160405180910390a4600b54604051632e1a7d4d60e01b8152600481018390526001600160a01b0390911690632e1a7d4d90602401600060405180830381600087803b158015610e4357600080fd5b505af1158015610e57573d6000803e3d6000fd5b50610e6892503391508390506120bf565b919050565b6000610b8182610aed565b60008054600160a01b900460ff1615610ea45760405163ab35696f60e01b815260040160405180910390fd5b600f546001600160a01b03163314610ecf5760405163fae067e560e01b815260040160405180910390fd5b610ed7610ba7565b506001600160a01b0382166000908152601560205260408120541590610efc83612152565b905080600003610f485760405162461bcd60e51b81526020600482015260126024820152715a45524f5f424f52524f575f53484152455360701b60448201526064015b60405180910390fd5b8060146000828254610f5a919061277b565b90915550506001600160a01b03841660009081526015602052604081208054839290610f8790849061277b565b925050819055508260116000828254610fa0919061277b565b9091555050601354600354600091610fc891610fc09060ff16600a6128bf565b869190611ce3565b601054600b54919250610fe8916001600160a01b0390811691168361216a565b61100985610ff683876127c8565b600b546001600160a01b0316919061216a565b505092915050565b6000546001600160a01b0316331461103c57604051633057182d60e21b815260040160405180910390fd5b600d5460405163bf40fac160e01b81526101009091046001600160a01b03169063bf40fac19061107290859085906004016128ce565b602060405180830381865afa15801561108f573d6000803e3d6000fd5b505050506040513d601f19601f820116820180604052508101906110b391906128fd565b600e80546001600160a01b0319166001600160a01b03928316179055600d5460405163bf40fac160e01b815260206004820152600f60248201526e20a1a1a7aaa72a2fa6a0a720a3a2a960891b60448201526101009091049091169063bf40fac190606401602060405180830381865afa158015611135573d6000803e3d6000fd5b505050506040513d601f19601f8201168201806040525081019061115991906128fd565b600f80546001600160a01b0319166001600160a01b03929092169190911790555050565b6000546001600160a01b031633146111a857604051633057182d60e21b815260040160405180910390fd5b601355565b60006111b98382611fae565b6111c283611bfb565b9050806000036112025760405162461bcd60e51b815260206004820152600b60248201526a5a45524f5f53484152455360a81b6044820152606401610f3f565b60045415801561121a5750600354600660ff90911610155b15611278576003546112319060029060ff1661291a565b61123c90600a6128bf565b811161125b5760405163a212f0b960e01b815260040160405180910390fd5b6112686000600c54611fba565b600c5461127590826127c8565b90505b600b54611290906001600160a01b03163330866121f1565b61129a8282611fba565b60408051848152602081018390526001600160a01b0384169133917fdcbc1c05240f31ff3ad067ef1ee35ce4997762752e3a095284754544f4c709d791015b60405180910390a392915050565b6001600160a01b038116600090815260156020526040812054610b819061228d565b60006113158184611fae565b61131e83611417565b9050600454600014801561133a5750600354600660ff90911610155b15611398576003546113519060029060ff1661291a565b61135c90600a6128bf565b831161137b5760405163a212f0b960e01b815260040160405180910390fd5b6113886000600c54611fba565b600c5461139590846127c8565b92505b600b546113b0906001600160a01b03163330846121f1565b6113ba8284611fba565b60408051828152602081018590526001600160a01b0384169133917fdcbc1c05240f31ff3ad067ef1ee35ce4997762752e3a095284754544f4c709d791016112d9565b60028054610a6c9061278e565b6000610b13338484611e56565b6004546000908015610b1157610b0c61142e6109da565b849083611d01565b600061144184610b87565b9050336001600160a01b038316146114b1576001600160a01b038216600090815260076020908152604080832033845290915290205460001981146114af5761148a82826127c8565b6001600160a01b03841660009081526007602090815260408083203384529091529020555b505b6114bb8482611fae565b6114c5828261204b565b60408051858152602081018390526001600160a01b03808516929086169133917ffbde797d201c681b91056529119e0b02407c7bb96a4a2c75c01fc9667232c8db910160405180910390a4600b54610b13906001600160a01b0316848661216a565b6000336001600160a01b03831614611597576001600160a01b038216600090815260076020908152604080832033845290915290205460001981146115955761157085826127c8565b6001600160a01b03841660009081526007602090815260408083203384529091529020555b505b6115a084610e6d565b9050806000036115e05760405162461bcd60e51b815260206004820152600b60248201526a5a45524f5f41535345545360a81b6044820152606401610f3f565b6115ea8185611fae565b6115f4828561204b565b60408051828152602081018690526001600160a01b03808516929086169133917ffbde797d201c681b91056529119e0b02407c7bb96a4a2c75c01fc9667232c8db910160405180910390a4600b54610b13906001600160a01b0316848361216a565b600f546000906001600160a01b031633146116845760405163fae067e560e01b815260040160405180910390fd5b600061168f83612152565b9050806000036116d65760405162461bcd60e51b81526020600482015260126024820152715a45524f5f424f52524f575f53484152455360701b6044820152606401610f3f565b6001600160a01b038416600090815260156020526040812080548392906116fe9084906127c8565b92505081905550806014600082825461171791906127c8565b92505081905550826011600082825461173091906127c8565b9091555050506001600160a01b03831660009081526015602052604090205415905092915050565b6000546001600160a01b0316331461178357604051633057182d60e21b815260040160405180910390fd5b6000805460ff600160a01b808304821615810260ff60a01b19909316929092179283905560405133937f79a5bc58b021076f821571d0fe8b0ae3d9e0a666563bb064fdbf0bf69281331c936117df939104161515815260200190565b60405180910390a2565b6000600554600454106117fe57506000919050565b600454600554610b8191906127c8565b6004546000908015610b1157610b0c816118266109da565b859190611ce3565b600d5460ff161561185257604051631ee1e30360e21b815260040160405180910390fd5b6001600160a01b038a16158061186f57506001600160a01b038516155b8061188157506001600160a01b038316155b1561189f5760405163d92e233d60e01b815260040160405180910390fd5b600d805460ff191660011790556118b5336122a4565b61192d8a8a8a8080601f01602080910402602001604051908101604052809392919081815260200183838082843760009201919091525050604080516020601f8e018190048102820181019092528c815292508c91508b90819084018382808284376000920191909152508892508791506122b09050565b5050600d8054610100600160a81b0319166101006001600160a01b0395861602179055601391909155601080546001600160a01b031916919092161790555050505050565b6001600160a01b038116600090815260066020526040812054610b8190610aed565b428410156119e45760405162461bcd60e51b815260206004820152601760248201527f5045524d49545f444541444c494e455f455850495245440000000000000000006044820152606401610f3f565b600060016119f0610c66565b6001600160a01b038a81166000818152600a602090815260409182902080546001810190915582517f6e71edae12b1b97f4d1f60370fef10105fa2faae0126114a169c64845d6126c98184015280840194909452938d166060840152608083018c905260a083019390935260c08083018b90528151808403909101815260e08301909152805192019190912061190160f01b6101008301526101028201929092526101228101919091526101420160408051601f198184030181528282528051602091820120600084529083018083525260ff871690820152606081018590526080810184905260a0016020604051602081039080840390855afa158015611afc573d6000803e3d6000fd5b5050604051601f1901519150506001600160a01b03811615801590611b325750876001600160a01b0316816001600160a01b0316145b611b6f5760405162461bcd60e51b815260206004820152600e60248201526d24a72b20a624a22fa9a4a3a722a960911b6044820152606401610f3f565b6001600160a01b0390811660009081526007602090815260408083208a8516808552908352928190208990555188815291928a16917f8c5be1e5ebec7d5bd14f71427d1e84f3dd0314c0f7b2291e5b200ac8c7c3b925910160405180910390a350505050505050565b6000611bee611be5611d27565b60115490611e41565b601154610a5a919061277b565b6000610b818261180e565b6000546001600160a01b03163314611c3157604051633057182d60e21b815260040160405180910390fd5b600555565b6000546001600160a01b03163314611c6157604051633057182d60e21b815260040160405180910390fd5b6001600160a01b038116611c885760405163d92e233d60e01b815260040160405180910390fd5b600080546040516001600160a01b03808516939216917f8be0079c531659141344cd1fd0a4f28419497f9722a3daafe3b4186f6b6457e091a3600080546001600160a01b0319166001600160a01b0392909216919091179055565b6000826000190484118302158202611cfa57600080fd5b5091020490565b6000826000190484118302158202611d1857600080fd5b50910281810615159190040190565b60006012544214611e3b57600e54600b546040516370a0823160e01b8152306004820152610a5a926001600160a01b0390811692635592f328929116906370a0823190602401602060405180830381865afa158015611d8a573d6000803e3d6000fd5b505050506040513d601f19601f82011682018060405250810190611dae919061274c565b6011546040516001600160e01b031960e085901b16815260048101929092526024820152604401602060405180830381865afa158015611df2573d6000803e3d6000fd5b505050506040513d601f19601f82011682018060405250810190611e16919061274c565b601254611e2390426127c8565b611e3590670de0b6b3a7640000612933565b90611e41565b50600090565b6000610b138383670de0b6b3a7640000611d01565b60006001600160a01b038316611e7f5760405163d92e233d60e01b815260040160405180910390fd5b6001600160a01b03841660009081526006602052604081208054849290611ea79084906127c8565b90915550506001600160a01b03808416600081815260066020526040908190208054860190555190918616907fddf252ad1be2c89b69c2b068fc378daa952ba7f163c4a11628f55a4df523b3ef90611f029086815260200190565b60405180910390a35060019392505050565b60007f8b73c3c69bb8fe3d512ecc4cf759cc79239f7b179b0ffacaa9a75d522b39400f6001604051611f46919061294a565b6040805191829003822060208301939093528101919091527fc89efdaa54c0f20c7adf612882df0950f5a951637e0307cdcb4c672f298b8bc660608201524660808201523060a082015260c00160405160208183030381529060405280519060200120905090565b611fb6610ba7565b5050565b8060046000828254611fcc919061277b565b90915550506005546004541115611ff657604051632cdb04a160e21b815260040160405180910390fd5b6001600160a01b0382166000818152600660209081526040808320805486019055518481527fddf252ad1be2c89b69c2b068fc378daa952ba7f163c4a11628f55a4df523b3ef91015b60405180910390a35050565b6001600160a01b038216600090815260066020526040812080548392906120739084906127c8565b90915550506004805482900390556040518181526000906001600160a01b038416907fddf252ad1be2c89b69c2b068fc378daa952ba7f163c4a11628f55a4df523b3ef9060200161203f565b604080516000808252602082019092526001600160a01b0384169083906040516120e991906129d6565b60006040518083038185875af1925050503d8060008114612126576040519150601f19603f3d011682016040523d82523d6000602084013e61212b565b606091505b505090508061214d5760405163af2349ad60e01b815260040160405180910390fd5b505050565b6014546000908015610b1157610b0c81610b9f611bd8565b600060405163a9059cbb60e01b81526001600160a01b0384166004820152826024820152602060006044836000895af13d15601f3d11600160005114161716915050806121eb5760405162461bcd60e51b815260206004820152600f60248201526e1514905394d1915497d19052531151608a1b6044820152606401610f3f565b50505050565b60006040516323b872dd60e01b81526001600160a01b03851660048201526001600160a01b03841660248201528260448201526020600060648360008a5af13d15601f3d11600160005114161716915050806122865760405162461bcd60e51b81526020600482015260146024820152731514905394d1915497d19493d357d1905253115160621b6044820152606401610f3f565b5050505050565b6014546000908015610b1157610b0c610b04611bd8565b6122ad81612340565b50565b600b80546001600160a01b0319166001600160a01b038716908117909155600c8390556040805163313ce56760e01b81529051612286928792879263313ce567916004808201926020929091908290030181865afa158015612316573d6000803e3d6000fd5b505050506040513d601f19601f8201168201806040525081019061233a91906129f2565b84612389565b6001600160a01b0381166123675760405163d92e233d60e01b815260040160405180910390fd5b600080546001600160a01b0319166001600160a01b0392909216919091179055565b60016123958582612a5d565b5060026123a28482612a5d565b506003805460ff191660ff84161790556005819055466008556123c3611f14565b60095550505050565b60005b838110156123e75781810151838201526020016123cf565b50506000910152565b602081526000825180602084015261240f8160408501602087016123cc565b601f01601f19169190910160400192915050565b60006020828403121561243557600080fd5b5035919050565b6001600160a01b03811681146122ad57600080fd5b6000806040838503121561246457600080fd5b823561246f8161243c565b946020939093013593505050565b60008060006060848603121561249257600080fd5b833561249d8161243c565b925060208401356124ad8161243c565b929592945050506040919091013590565b6000602082840312156124d057600080fd5b8135610b138161243c565b60008083601f8401126124ed57600080fd5b50813567ffffffffffffffff81111561250557600080fd5b60208301915083602082850101111561251d57600080fd5b9250929050565b6000806020838503121561253757600080fd5b823567ffffffffffffffff81111561254e57600080fd5b61255a858286016124db565b90969095509350505050565b6000806040838503121561257957600080fd5b82359150602083013561258b8161243c565b809150509250929050565b6000806000606084860312156125ab57600080fd5b8335925060208401356125bd8161243c565b915060408401356125cd8161243c565b809150509250925092565b6000806000806000806000806000806101008b8d0312156125f857600080fd5b8a356126038161243c565b995060208b013567ffffffffffffffff8082111561262057600080fd5b61262c8e838f016124db565b909b50995060408d013591508082111561264557600080fd5b506126528d828e016124db565b90985096505060608b01356126668161243c565b945060808b0135935060a08b013561267d8161243c565b8093505060c08b0135915060e08b013590509295989b9194979a5092959850565b60ff811681146122ad57600080fd5b600080600080600080600060e0888a0312156126c857600080fd5b87356126d38161243c565b965060208801356126e38161243c565b9550604088013594506060880135935060808801356127018161269e565b9699959850939692959460a0840135945060c09093013592915050565b6000806040838503121561273157600080fd5b823561273c8161243c565b9150602083013561258b8161243c565b60006020828403121561275e57600080fd5b5051919050565b634e487b7160e01b600052601160045260246000fd5b80820180821115610b8157610b81612765565b600181811c908216806127a257607f821691505b6020821081036127c257634e487b7160e01b600052602260045260246000fd5b50919050565b81810381811115610b8157610b81612765565b600181815b808511156128165781600019048211156127fc576127fc612765565b8085161561280957918102915b93841c93908002906127e0565b509250929050565b60008261282d57506001610b81565b8161283a57506000610b81565b8160018114612850576002811461285a57612876565b6001915050610b81565b60ff84111561286b5761286b612765565b50506001821b610b81565b5060208310610133831016604e8410600b8410161715612899575081810a610b81565b6128a383836127db565b80600019048211156128b7576128b7612765565b029392505050565b6000610b1360ff84168361281e565b60208152816020820152818360408301376000818301604090810191909152601f909201601f19160101919050565b60006020828403121561290f57600080fd5b8151610b138161243c565b60ff8281168282160390811115610b8157610b81612765565b8082028115828204841417610b8157610b81612765565b60008083546129588161278e565b600182811680156129705760018114612985576129b4565b60ff19841687528215158302870194506129b4565b8760005260208060002060005b858110156129ab5781548a820152908401908201612992565b50505082870194505b50929695505050505050565b634e487b7160e01b600052604160045260246000fd5b600082516129e88184602087016123cc565b9190910192915050565b600060208284031215612a0457600080fd5b8151610b138161269e565b601f82111561214d57600081815260208120601f850160051c81016020861015612a365750805b601f850160051c820191505b81811015612a5557828155600101612a42565b505050505050565b815167ffffffffffffffff811115612a7757612a776129c0565b612a8b81612a85845461278e565b84612a0f565b602080601f831160018114612ac05760008415612aa85750858301515b600019600386901b1c1916600185901b178555612a55565b600085815260208120601f198616915b82811015612aef57888601518255948401946001909101908401612ad0565b5085821015612b0d5787850151600019600388901b60f8161c191681555b5050505050600190811b0190555056fea2646970667358221220f4bf7daa382009931eff76c2a674175ac5a5e6f9496bd1a6c15b2377e8b5db6064736f6c63430008110033",
    "linkReferences": {}
  },
  "methodIdentifiers": {
    "DOMAIN_SEPARATOR()": "3644e515",
    "accountManager()": "91c2c469",
    "admin()": "f851a440",
    "allowance(address,address)": "dd62ed3e",
    "approve(address,uint256)": "095ea7b3",
    "asset()": "38d52e0f",
    "balanceOf(address)": "70a08231",
    "borrows()": "ff3f60e7",
    "borrowsOf(address)": "bde4f477",
    "collectFrom(address,uint256)": "bf9836a6",
    "convertToAssets(uint256)": "07a2d13a",
    "convertToShares(uint256)": "c6e6f592",
    "decimals()": "313ce567",
    "deposit(uint256,address)": "6e553f65",
    "depositEth()": "439370b1",
    "getBorrowBalance(address)": "7d6af079",
    "getBorrows()": "eae93e7e",
    "init(address,string,string,address,uint256,address,uint256,uint256)": "cbcafed2",
    "initDep(string)": "6b6d2586",
    "lastUpdated()": "d0b06f5d",
    "lendTo(address,uint256)": "6ab22cf0",
    "maxDeposit(address)": "402d267d",
    "maxMint(address)": "c63d75b6",
    "maxRedeem(address)": "d905777e",
    "maxSupply()": "d5abeb01",
    "maxWithdraw(address)": "ce96cb77",
    "mint(uint256,address)": "94bf804d",
    "name()": "06fdde03",
    "nonces(address)": "7ecebe00",
    "originationFee()": "b8bb5c42",
    "paused()": "5c975abb",
    "permit(address,address,uint256,uint256,uint8,bytes32,bytes32)": "d505accf",
    "previewDeposit(uint256)": "ef8b30f7",
    "previewMint(uint256)": "b3d7f6b9",
    "previewRedeem(uint256)": "4cdad506",
    "previewWithdraw(uint256)": "0a28a477",
    "rateModel()": "a1088459",
    "redeem(uint256,address,address)": "ba087652",
    "redeemEth(uint256)": "4bc3f0ec",
    "registry()": "7b103999",
    "symbol()": "95d89b41",
    "togglePause()": "c4ae3168",
    "totalAssets()": "01e1d114",
    "totalBorrowShares()": "136cf1f7",
    "totalSupply()": "18160ddd",
    "transfer(address,uint256)": "a9059cbb",
    "transferFrom(address,address,uint256)": "23b872dd",
    "transferOwnership(address)": "f2fde38b",
    "treasury()": "61d027b3",
    "updateMaxSupply(uint256)": "f103b433",
    "updateOriginationFee(uint256)": "6d47049a",
    "updateState()": "1d8557d7",
    "withdraw(uint256,address,address)": "b460af94"
  },
  "id": 68
}