{
  "abi": [
    {
      "inputs": [
        {
          "internalType": "uint256",
          "name": "_c1",
          "type": "uint256"
        },
        {
          "internalType": "uint256",
          "name": "_c2",
          "type": "uint256"
        },
        {
          "internalType": "uint256",
          "name": "_c3",
          "type": "uint256"
        },
        {
          "internalType": "uint256",
          "name": "_secsPerYear",
          "type": "uint256"
        }
      ],
      "stateMutability": "nonpayable",
      "type": "constructor"
    },
    {
      "inputs": [],
      "name": "IncorrectConstructorArgs",
      "type": "error"
    },
    {
      "inputs": [
        {
          "internalType": "uint256",
          "name": "liquidity",
          "type": "uint256"
        },
        {
          "internalType": "uint256",
          "name": "borrows",
          "type": "uint256"
        }
      ],
      "name": "getBorrowRatePerSecond",
      "outputs": [
        {
          "internalType": "uint256",
          "name": "",
          "type": "uint256"
        }
      ],
      "stateMutability": "view",
      "type": "function"
    }
  ],
  "bytecode": {
    "object": "0x61010060405234801561001157600080fd5b5060405161041638038061041683398101604081905261003091610082565b83158061003b575082155b80610044575081155b8061004d575080155b1561006b576040516337414dbf60e01b815260040160405180910390fd5b60809390935260a09190915260c05260e0526100b8565b6000806000806080858703121561009857600080fd5b505082516020840151604085015160609095015191969095509092509050565b60805160a05160c05160e0516103216100f5600039600061013f0152600061011d01526000606c01526000818160aa015260e301526103216000f3fe608060405234801561001057600080fd5b506004361061002b5760003560e01c80635592f32814610030575b600080fd5b61004361003e3660046102a8565b610055565b60405190815260200160405180910390f35b600080610062848461016d565b90506101636100a57f000000000000000000000000000000000000000000000000000000000000000061009f846040670de0b6b3a764000061019b565b90610259565b6100dd7f000000000000000000000000000000000000000000000000000000000000000061009f856020670de0b6b3a764000061019b565b610107847f0000000000000000000000000000000000000000000000000000000000000000610259565b61011191906102ca565b61011b91906102ca565b7f0000000000000000000000000000000000000000000000000000000000000000907f0000000000000000000000000000000000000000000000000000000000000000610275565b9150505b92915050565b60008061017a83856102ca565b905080156101915761018c8382610293565b610163565b5060009392505050565b600083801561023b576001841680156101b6578592506101ba565b8392505b508260011c8460011c94505b8415610235578560801c156101da57600080fd5b858602818101818110156101ed57600080fd5b859004965050600185161561022a57858302838782041461021357861561021357600080fd5b8181018181101561022357600080fd5b8590049350505b8460011c94506101c6565b50610251565b83801561024b576000925061024f565b8392505b505b509392505050565b600061026e8383670de0b6b3a7640000610275565b9392505050565b600082600019048411830215820261028c57600080fd5b5091020490565b600061026e83670de0b6b3a764000084610275565b600080604083850312156102bb57600080fd5b50508035926020909101359150565b8082018082111561016757634e487b7160e01b600052601160045260246000fdfea2646970667358221220ad0710ff17387569451f845af799194690d86b11d20247a2ca57a254d4e6e34664736f6c63430008110033",
    "linkReferences": {}
  },
  "methodIdentifiers": {
    "getBorrowRatePerSecond(uint256,uint256)": "5592f328"
  },
  "id": 49
}