{
  "abi": [
    {
      "inputs": [
        {
          "internalType": "contract IRegistry",
          "name": "_registry",
          "type": "address"
        }
      ],
      "stateMutability": "nonpayable",
      "type": "constructor"
    },
    {
      "inputs": [],
      "name": "AdminOnly",
      "type": "error"
    },
    {
      "inputs": [],
      "name": "ZeroAddress",
      "type": "error"
    },
    {
      "anonymous": false,
      "inputs": [
        {
          "indexed": true,
          "internalType": "address",
          "name": "previousAdmin",
          "type": "address"
        },
        {
          "indexed": true,
          "internalType": "address",
          "name": "newAdmin",
          "type": "address"
        }
      ],
      "name": "OwnershipTransferred",
      "type": "event"
    },
    {
      "inputs": [],
      "name": "accountManager",
      "outputs": [
        {
          "internalType": "contract IAccountManager",
          "name": "",
          "type": "address"
        }
      ],
      "stateMutability": "view",
      "type": "function"
    },
    {
      "inputs": [],
      "name": "admin",
      "outputs": [
        {
          "internalType": "address",
          "name": "",
          "type": "address"
        }
      ],
      "stateMutability": "view",
      "type": "function"
    },
    {
      "inputs": [],
      "name": "balanceToBorrowThreshold",
      "outputs": [
        {
          "internalType": "uint256",
          "name": "",
          "type": "uint256"
        }
      ],
      "stateMutability": "view",
      "type": "function"
    },
    {
      "inputs": [
        {
          "internalType": "address",
          "name": "account",
          "type": "address"
        }
      ],
      "name": "getBalance",
      "outputs": [
        {
          "internalType": "uint256",
          "name": "",
          "type": "uint256"
        }
      ],
      "stateMutability": "nonpayable",
      "type": "function"
    },
    {
      "inputs": [
        {
          "internalType": "address",
          "name": "account",
          "type": "address"
        }
      ],
      "name": "getBorrows",
      "outputs": [
        {
          "internalType": "uint256",
          "name": "",
          "type": "uint256"
        }
      ],
      "stateMutability": "nonpayable",
      "type": "function"
    },
    {
      "inputs": [],
      "name": "initDep",
      "outputs": [],
      "stateMutability": "nonpayable",
      "type": "function"
    },
    {
      "inputs": [
        {
          "internalType": "address",
          "name": "account",
          "type": "address"
        }
      ],
      "name": "isAccountHealthy",
      "outputs": [
        {
          "internalType": "bool",
          "name": "",
          "type": "bool"
        }
      ],
      "stateMutability": "nonpayable",
      "type": "function"
    },
    {
      "inputs": [
        {
          "internalType": "address",
          "name": "account",
          "type": "address"
        },
        {
          "internalType": "address",
          "name": "token",
          "type": "address"
        },
        {
          "internalType": "uint256",
          "name": "amt",
          "type": "uint256"
        }
      ],
      "name": "isBorrowAllowed",
      "outputs": [
        {
          "internalType": "bool",
          "name": "",
          "type": "bool"
        }
      ],
      "stateMutability": "nonpayable",
      "type": "function"
    },
    {
      "inputs": [
        {
          "internalType": "address",
          "name": "account",
          "type": "address"
        },
        {
          "internalType": "address",
          "name": "token",
          "type": "address"
        },
        {
          "internalType": "uint256",
          "name": "amt",
          "type": "uint256"
        }
      ],
      "name": "isWithdrawAllowed",
      "outputs": [
        {
          "internalType": "bool",
          "name": "",
          "type": "bool"
        }
      ],
      "stateMutability": "nonpayable",
      "type": "function"
    },
    {
      "inputs": [],
      "name": "oracle",
      "outputs": [
        {
          "internalType": "contract IOracle",
          "name": "",
          "type": "address"
        }
      ],
      "stateMutability": "view",
      "type": "function"
    },
    {
      "inputs": [],
      "name": "registry",
      "outputs": [
        {
          "internalType": "contract IRegistry",
          "name": "",
          "type": "address"
        }
      ],
      "stateMutability": "view",
      "type": "function"
    },
    {
      "inputs": [
        {
          "internalType": "address",
          "name": "newAdmin",
          "type": "address"
        }
      ],
      "name": "transferOwnership",
      "outputs": [],
      "stateMutability": "nonpayable",
      "type": "function"
    }
  ],
  "bytecode": {
    "object": "0x60a060405234801561001057600080fd5b50604051610e7b380380610e7b83398101604081905261002f91610092565b61003833610049565b6001600160a01b03166080526100c2565b6001600160a01b0381166100705760405163d92e233d60e01b815260040160405180910390fd5b600080546001600160a01b0319166001600160a01b0392909216919091179055565b6000602082840312156100a457600080fd5b81516001600160a01b03811681146100bb57600080fd5b9392505050565b608051610d896100f2600039600081816101030152818161033f0152818161040301526107950152610d896000f3fe608060405234801561001057600080fd5b50600436106100b45760003560e01c8063a9609fa611610071578063a9609fa614610176578063bf4c30b414610189578063cd81b80314610193578063f2fde38b146101a6578063f851a440146101b9578063f8b2cb4f146101cc57600080fd5b806336481862146100b95780635387081c146100e15780637b103999146100fe5780637dc0d1d01461013d57806391c2c469146101505780639de126c814610163575b600080fd5b6100cc6100c7366004610a31565b6101df565b60405190151581526020015b60405180910390f35b6100f06710a741a46278000081565b6040519081526020016100d8565b6101257f000000000000000000000000000000000000000000000000000000000000000081565b6040516001600160a01b0390911681526020016100d8565b600154610125906001600160a01b031681565b600254610125906001600160a01b031681565b6100cc610171366004610a4e565b610201565b6100cc610184366004610a4e565b6102a5565b6101916102e8565b005b6100f06101a1366004610a31565b610492565b6101916101b4366004610a31565b61049d565b600054610125906001600160a01b031681565b6100f06101da366004610a31565b61054a565b60006101fb6101ed83610551565b6101f6846106a7565b6108bf565b92915050565b6000836001600160a01b0316635205c9b66040518163ffffffff1660e01b8152600401602060405180830381865afa158015610241573d6000803e3d6000fd5b505050506040513d601f19601f820116820180604052508101906102659190610a8f565b156102725750600161029e565b61029b61027f84846108e9565b61028886610551565b6102929190610ac7565b6101f6866106a7565b90505b9392505050565b6000806102b284846108e9565b90506102df816102c187610551565b6102cb9190610ada565b826102d5886106a7565b6101f69190610ada565b95945050505050565b6000546001600160a01b0316331461031357604051633057182d60e21b815260040160405180910390fd5b60405163bf40fac160e01b81526020600482015260066024820152654f5241434c4560d01b60448201527f00000000000000000000000000000000000000000000000000000000000000006001600160a01b03169063bf40fac190606401602060405180830381865afa15801561038e573d6000803e3d6000fd5b505050506040513d601f19601f820116820180604052508101906103b29190610afd565b600180546001600160a01b0319166001600160a01b0392831617905560405163bf40fac160e01b815260206004820152600f60248201526e20a1a1a7aaa72a2fa6a0a720a3a2a960891b60448201527f00000000000000000000000000000000000000000000000000000000000000009091169063bf40fac190606401602060405180830381865afa15801561044c573d6000803e3d6000fd5b505050506040513d601f19601f820116820180604052508101906104709190610afd565b600280546001600160a01b0319166001600160a01b0392909216919091179055565b60006101fb826106a7565b6000546001600160a01b031633146104c857604051633057182d60e21b815260040160405180910390fd5b6001600160a01b0381166104ef5760405163d92e233d60e01b815260040160405180910390fd5b600080546040516001600160a01b03808516939216917f8be0079c531659141344cd1fd0a4f28419497f9722a3daafe3b4186f6b6457e091a3600080546001600160a01b0319166001600160a01b0392909216919091179055565b60006101fb825b600080826001600160a01b03166367e4ac2c6040518163ffffffff1660e01b8152600401600060405180830381865afa158015610592573d6000803e3d6000fd5b505050506040513d6000823e601f3d908101601f191682016040526105ba9190810190610b30565b80519091506000805b82811015610692576106768482815181106105e0576105e0610bf5565b60200260200101518583815181106105fa576105fa610bf5565b60209081029190910101516040516370a0823160e01b81526001600160a01b038a81166004830152909116906370a08231906024015b602060405180830381865afa15801561064d573d6000803e3d6000fd5b505050506040513d601f19601f820116820180604052508101906106719190610c0b565b6108e9565b6106809083610ada565b915061068b81610c24565b90506105c3565b506102df6001600160a01b0386163182610ada565b6000816001600160a01b0316635205c9b66040518163ffffffff1660e01b8152600401602060405180830381865afa1580156106e7573d6000803e3d6000fd5b505050506040513d601f19601f8201168201806040525081019061070b9190610a8f565b1561071857506000919050565b6000826001600160a01b031663eae93e7e6040518163ffffffff1660e01b8152600401600060405180830381865afa158015610758573d6000803e3d6000fd5b505050506040513d6000823e601f3d908101601f191682016040526107809190810190610b30565b80519091506000805b828110156108b65760007f00000000000000000000000000000000000000000000000000000000000000006001600160a01b031663a94ea6ed8684815181106107d4576107d4610bf5565b60200260200101516040518263ffffffff1660e01b815260040161080791906001600160a01b0391909116815260200190565b602060405180830381865afa158015610824573d6000803e3d6000fd5b505050506040513d601f19601f820116820180604052508101906108489190610afd565b905061089885838151811061085f5761085f610bf5565b6020908102919091010151604051637d6af07960e01b81526001600160a01b038a81166004830152841690637d6af07990602401610630565b6108a29084610ada565b925050806108af90610c24565b9050610789565b50949350505050565b600081156108e0576710a741a4627800006108da84846109ea565b1161029e565b60019392505050565b600061029e826001600160a01b0385161561096557846001600160a01b031663313ce5676040518163ffffffff1660e01b8152600401602060405180830381865afa15801561093c573d6000803e3d6000fd5b505050506040513d601f19601f820116820180604052508101906109609190610c3d565b610968565b60125b61097390600a610d44565b6001546040516341976e0960e01b81526001600160a01b038881166004830152909116906341976e09906024016020604051808303816000875af11580156109bf573d6000803e3d6000fd5b505050506040513d601f19601f820116820180604052508101906109e39190610c0b565b91906109fb565b600061029e83670de0b6b3a7640000845b6000826000190484118302158202610a1257600080fd5b5091020490565b6001600160a01b0381168114610a2e57600080fd5b50565b600060208284031215610a4357600080fd5b813561029e81610a19565b600080600060608486031215610a6357600080fd5b8335610a6e81610a19565b92506020840135610a7e81610a19565b929592945050506040919091013590565b600060208284031215610aa157600080fd5b8151801515811461029e57600080fd5b634e487b7160e01b600052601160045260246000fd5b818103818111156101fb576101fb610ab1565b808201808211156101fb576101fb610ab1565b8051610af881610a19565b919050565b600060208284031215610b0f57600080fd5b815161029e81610a19565b634e487b7160e01b600052604160045260246000fd5b60006020808385031215610b4357600080fd5b825167ffffffffffffffff80821115610b5b57600080fd5b818501915085601f830112610b6f57600080fd5b815181811115610b8157610b81610b1a565b8060051b604051601f19603f83011681018181108582111715610ba657610ba6610b1a565b604052918252848201925083810185019188831115610bc457600080fd5b938501935b82851015610be957610bda85610aed565b84529385019392850192610bc9565b98975050505050505050565b634e487b7160e01b600052603260045260246000fd5b600060208284031215610c1d57600080fd5b5051919050565b600060018201610c3657610c36610ab1565b5060010190565b600060208284031215610c4f57600080fd5b815160ff8116811461029e57600080fd5b600181815b80851115610c9b578160001904821115610c8157610c81610ab1565b80851615610c8e57918102915b93841c9390800290610c65565b509250929050565b600082610cb2575060016101fb565b81610cbf575060006101fb565b8160018114610cd55760028114610cdf57610cfb565b60019150506101fb565b60ff841115610cf057610cf0610ab1565b50506001821b6101fb565b5060208310610133831016604e8410600b8410161715610d1e575081810a6101fb565b610d288383610c60565b8060001904821115610d3c57610d3c610ab1565b029392505050565b600061029e60ff841683610ca356fea26469706673582212209de56aadffd50635423b8d245ac62af8477df6b2b559ac264e4fb591a5a72a8264736f6c63430008110033",
    "linkReferences": {}
  },
  "methodIdentifiers": {
    "accountManager()": "91c2c469",
    "admin()": "f851a440",
    "balanceToBorrowThreshold()": "5387081c",
    "getBalance(address)": "f8b2cb4f",
    "getBorrows(address)": "cd81b803",
    "initDep()": "bf4c30b4",
    "isAccountHealthy(address)": "36481862",
    "isBorrowAllowed(address,address,uint256)": "a9609fa6",
    "isWithdrawAllowed(address,address,uint256)": "9de126c8",
    "oracle()": "7dc0d1d0",
    "registry()": "7b103999",
    "transferOwnership(address)": "f2fde38b"
  },
  "id": 52
}