{
  "abi": [
    {
      "inputs": [],
      "name": "AccountManagerOnly",
      "type": "error"
    },
    {
      "inputs": [],
      "name": "AdminOnly",
      "type": "error"
    },
    {
      "inputs": [],
      "name": "ContractAlreadyInitialized",
      "type": "error"
    },
    {
      "inputs": [],
      "name": "ZeroAddress",
      "type": "error"
    },
    {
      "anonymous": false,
      "inputs": [
        {
          "indexed": true,
          "internalType": "address",
          "name": "account",
          "type": "address"
        },
        {
          "indexed": true,
          "internalType": "address",
          "name": "owner",
          "type": "address"
        }
      ],
      "name": "AccountCreated",
      "type": "event"
    },
    {
      "anonymous": false,
      "inputs": [
        {
          "indexed": true,
          "internalType": "address",
          "name": "previousAdmin",
          "type": "address"
        },
        {
          "indexed": true,
          "internalType": "address",
          "name": "newAdmin",
          "type": "address"
        }
      ],
      "name": "OwnershipTransferred",
      "type": "event"
    },
    {
      "inputs": [
        {
          "internalType": "address",
          "name": "",
          "type": "address"
        }
      ],
      "name": "VTokenFor",
      "outputs": [
        {
          "internalType": "address",
          "name": "",
          "type": "address"
        }
      ],
      "stateMutability": "view",
      "type": "function"
    },
    {
      "inputs": [
        {
          "internalType": "uint256",
          "name": "",
          "type": "uint256"
        }
      ],
      "name": "accounts",
      "outputs": [
        {
          "internalType": "address",
          "name": "",
          "type": "address"
        }
      ],
      "stateMutability": "view",
      "type": "function"
    },
    {
      "inputs": [
        {
          "internalType": "address",
          "name": "user",
          "type": "address"
        }
      ],
      "name": "accountsOwnedBy",
      "outputs": [
        {
          "internalType": "address[]",
          "name": "userAccounts",
          "type": "address[]"
        }
      ],
      "stateMutability": "view",
      "type": "function"
    },
    {
      "inputs": [
        {
          "internalType": "address",
          "name": "account",
          "type": "address"
        },
        {
          "internalType": "address",
          "name": "owner",
          "type": "address"
        }
      ],
      "name": "addAccount",
      "outputs": [],
      "stateMutability": "nonpayable",
      "type": "function"
    },
    {
      "inputs": [
        {
          "internalType": "string",
          "name": "",
          "type": "string"
        }
      ],
      "name": "addressFor",
      "outputs": [
        {
          "internalType": "address",
          "name": "",
          "type": "address"
        }
      ],
      "stateMutability": "view",
      "type": "function"
    },
    {
      "inputs": [],
      "name": "admin",
      "outputs": [
        {
          "internalType": "address",
          "name": "",
          "type": "address"
        }
      ],
      "stateMutability": "view",
      "type": "function"
    },
    {
      "inputs": [
        {
          "internalType": "address",
          "name": "account",
          "type": "address"
        }
      ],
      "name": "closeAccount",
      "outputs": [],
      "stateMutability": "nonpayable",
      "type": "function"
    },
    {
      "inputs": [
        {
          "internalType": "string",
          "name": "id",
          "type": "string"
        }
      ],
      "name": "getAddress",
      "outputs": [
        {
          "internalType": "address",
          "name": "value",
          "type": "address"
        }
      ],
      "stateMutability": "view",
      "type": "function"
    },
    {
      "inputs": [],
      "name": "getAllAccounts",
      "outputs": [
        {
          "internalType": "address[]",
          "name": "",
          "type": "address[]"
        }
      ],
      "stateMutability": "view",
      "type": "function"
    },
    {
      "inputs": [],
      "name": "getAllKeys",
      "outputs": [
        {
          "internalType": "string[]",
          "name": "",
          "type": "string[]"
        }
      ],
      "stateMutability": "view",
      "type": "function"
    },
    {
      "inputs": [],
      "name": "getAllVTokens",
      "outputs": [
        {
          "internalType": "address[]",
          "name": "",
          "type": "address[]"
        }
      ],
      "stateMutability": "view",
      "type": "function"
    },
    {
      "inputs": [],
      "name": "init",
      "outputs": [],
      "stateMutability": "nonpayable",
      "type": "function"
    },
    {
      "inputs": [
        {
          "internalType": "uint256",
          "name": "",
          "type": "uint256"
        }
      ],
      "name": "keys",
      "outputs": [
        {
          "internalType": "string",
          "name": "",
          "type": "string"
        }
      ],
      "stateMutability": "view",
      "type": "function"
    },
    {
      "inputs": [
        {
          "internalType": "address",
          "name": "",
          "type": "address"
        }
      ],
      "name": "ownerFor",
      "outputs": [
        {
          "internalType": "address",
          "name": "",
          "type": "address"
        }
      ],
      "stateMutability": "view",
      "type": "function"
    },
    {
      "inputs": [
        {
          "internalType": "string",
          "name": "id",
          "type": "string"
        },
        {
          "internalType": "address",
          "name": "_address",
          "type": "address"
        }
      ],
      "name": "setAddress",
      "outputs": [],
      "stateMutability": "nonpayable",
      "type": "function"
    },
    {
      "inputs": [
        {
          "internalType": "address",
          "name": "underlying",
          "type": "address"
        },
        {
          "internalType": "address",
          "name": "vToken",
          "type": "address"
        }
      ],
      "name": "setVToken",
      "outputs": [],
      "stateMutability": "nonpayable",
      "type": "function"
    },
    {
      "inputs": [
        {
          "internalType": "address",
          "name": "newAdmin",
          "type": "address"
        }
      ],
      "name": "transferOwnership",
      "outputs": [],
      "stateMutability": "nonpayable",
      "type": "function"
    },
    {
      "inputs": [
        {
          "internalType": "address",
          "name": "account",
          "type": "address"
        },
        {
          "internalType": "address",
          "name": "owner",
          "type": "address"
        }
      ],
      "name": "updateAccount",
      "outputs": [],
      "stateMutability": "nonpayable",
      "type": "function"
    },
    {
      "inputs": [
        {
          "internalType": "uint256",
          "name": "",
          "type": "uint256"
        }
      ],
      "name": "vTokens",
      "outputs": [
        {
          "internalType": "address",
          "name": "",
          "type": "address"
        }
      ],
      "stateMutability": "view",
      "type": "function"
    }
  ],
  "bytecode": {
    "object": "0x608060405234801561001057600080fd5b5061164f806100206000396000f3fe608060405234801561001057600080fd5b50600436106101215760003560e01c8063a94ea6ed116100ad578063e1c7392a11610071578063e1c7392a14610290578063f2a40db814610298578063f2fde38b146102ab578063f851a440146102be578063fff06706146102d157600080fd5b8063a94ea6ed146101f8578063bc87eed314610221578063bf40fac114610236578063c994a39014610249578063dd336b941461027d57600080fd5b806347bacf87116100f457806347bacf871461018c57806349b51b171461019457806382d6ea09146101a757806393cb090e146101ba5780639b2ea4bd146101e557600080fd5b806308e93d0a146101265780630cb6aaf114610144578063141ffce61461016457806333c8a9d714610179575b600080fd5b61012e6102fa565b60405161013b9190610fc8565b60405180910390f35b610157610152366004611015565b61035c565b60405161013b9190611074565b6101776101723660046110aa565b610408565b005b61012e6101873660046110dd565b610553565b61012e61067f565b6101776101a23660046110aa565b6106df565b6101776101b53660046110aa565b6107c9565b6101cd6101c8366004611015565b61084f565b6040516001600160a01b03909116815260200161013b565b6101776101f3366004611141565b610879565b6101cd6102063660046110dd565b6005602052600090815260409020546001600160a01b031681565b6102296109a7565b60405161013b9190611195565b6101cd6102443660046111f7565b610a80565b6101cd61025736600461124f565b80516020818301810180516006825292820191909301209152546001600160a01b031681565b61017761028b3660046110dd565b610ade565b610177610b5d565b6101cd6102a6366004611015565b610ba6565b6101776102b93660046110dd565b610bb6565b6000546101cd906001600160a01b031681565b6101cd6102df3660046110dd565b6004602052600090815260409020546001600160a01b031681565b6060600280548060200260200160405190810160405280929190818152602001828054801561035257602002820191906000526020600020905b81546001600160a01b03168152600190910190602001808311610334575b5050505050905090565b6001818154811061036c57600080fd5b90600052602060002001600091509050805461038790611300565b80601f01602080910402602001604051908101604052809291908181526020018280546103b390611300565b80156104005780601f106103d557610100808354040283529160200191610400565b820191906000526020600020905b8154815290600101906020018083116103e357829003601f168201915b505050505081565b6000546001600160a01b0316331461043357604051633057182d60e21b815260040160405180910390fd5b6001600160a01b03828116600090815260056020526040902054166104c9576001600160a01b0381166104795760405163d92e233d60e01b815260040160405180910390fd5b600380546001810182556000919091527fc2575a0e9e593c00f959f8c92f12db2869c3395a3b0502d05e2516446f71f85b0180546001600160a01b0319166001600160a01b038316179055610525565b6001600160a01b038116610500576001600160a01b038083166000908152600560205260409020546104fb9116610c63565b610525565b6001600160a01b03808316600090815260056020526040902054610525911682610d67565b6001600160a01b03918216600090815260056020526040902080546001600160a01b03191691909216179055565b60025460609067ffffffffffffffff81111561057157610571611239565b60405190808252806020026020018201604052801561059a578160200160208202803683370190505b5090506000805b60025481101561067757836001600160a01b031660046000600284815481106105cc576105cc61133a565b60009182526020808320909101546001600160a01b0390811684529083019390935260409091019020541603610665576002818154811061060f5761060f61133a565b9060005260206000200160009054906101000a90046001600160a01b031683838151811061063f5761063f61133a565b6001600160a01b03909216602092830291909101909101528161066181611366565b9250505b8061066f81611366565b9150506105a1565b508152919050565b60606003805480602002602001604051908101604052809291908181526020018280548015610352576020028201919060005260206000209081546001600160a01b03168152600190910190602001808311610334575050505050905090565b6040516e20a1a1a7aaa72a2fa6a0a720a3a2a960891b8152600690600f0190815260405190819003602001902054336001600160a01b03909116146107375760405163fae067e560e01b815260040160405180910390fd5b6001600160a01b0380831660008181526004602052604080822080549486166001600160a01b03199586168117909155600280546001810182559084527f405787fa12a823e0f2b7631cc41b3ba8828b3321ca811111fa75cd3aa3bb5ace0180549095168417909455517fac631f3001b55ea1509cf3d7e74898f85392a61a76e8149181ae1259622dabc89190a35050565b6040516e20a1a1a7aaa72a2fa6a0a720a3a2a960891b8152600690600f0190815260405190819003602001902054336001600160a01b03909116146108215760405163fae067e560e01b815260040160405180910390fd5b6001600160a01b03918216600090815260046020526040902080546001600160a01b03191691909216179055565b6003818154811061085f57600080fd5b6000918252602090912001546001600160a01b0316905081565b6000546001600160a01b031633146108a457604051633057182d60e21b815260040160405180910390fd5b60006001600160a01b0316600684846040516108c192919061137f565b908152604051908190036020019020546001600160a01b031603610948576001600160a01b0381166109065760405163d92e233d60e01b815260040160405180910390fd5b6001805480820182556000919091527fb10e2d527612073b26eecdfd717e6a320cf44b4afac2b0732d9fcbe2b7fa0cf6016109428385836113dd565b50610960565b6001600160a01b038116610960576109608383610e09565b806006848460405161097392919061137f565b90815260405190819003602001902080546001600160a01b03929092166001600160a01b0319909216919091179055505050565b60606001805480602002602001604051908101604052809291908181526020016000905b82821015610a775783829060005260206000200180546109ea90611300565b80601f0160208091040260200160405190810160405280929190818152602001828054610a1690611300565b8015610a635780601f10610a3857610100808354040283529160200191610a63565b820191906000526020600020905b815481529060010190602001808311610a4657829003601f168201915b5050505050815260200190600101906109cb565b50505050905090565b6000806001600160a01b031660068484604051610a9e92919061137f565b908152604051908190036020019020546001600160a01b031691508103610ad85760405163d92e233d60e01b815260040160405180910390fd5b92915050565b6040516e20a1a1a7aaa72a2fa6a0a720a3a2a960891b8152600690600f0190815260405190819003602001902054336001600160a01b0390911614610b365760405163fae067e560e01b815260040160405180910390fd5b6001600160a01b0316600090815260046020526040902080546001600160a01b0319169055565b600054600160a01b900460ff1615610b8857604051631ee1e30360e21b815260040160405180910390fd5b6000805460ff60a01b1916600160a01b179055610ba433610f29565b565b6002818154811061085f57600080fd5b6000546001600160a01b03163314610be157604051633057182d60e21b815260040160405180910390fd5b6001600160a01b038116610c085760405163d92e233d60e01b815260040160405180910390fd5b600080546040516001600160a01b03808516939216917f8be0079c531659141344cd1fd0a4f28419497f9722a3daafe3b4186f6b6457e091a3600080546001600160a01b0319166001600160a01b0392909216919091179055565b60035460005b81811015610d625760038181548110610c8457610c8461133a565b6000918252602090912001546001600160a01b0390811690841603610d52576003610cb060018461149d565b81548110610cc057610cc061133a565b600091825260209091200154600380546001600160a01b039092169183908110610cec57610cec61133a565b9060005260206000200160006101000a8154816001600160a01b0302191690836001600160a01b031602179055506003805480610d2b57610d2b6114b0565b600082815260209020810160001990810180546001600160a01b0319169055019055505050565b610d5b81611366565b9050610c69565b505050565b60035460005b81811015610e0357836001600160a01b031660038281548110610d9257610d9261133a565b6000918252602090912001546001600160a01b031603610df3578260038281548110610dc057610dc061133a565b9060005260206000200160006101000a8154816001600160a01b0302191690836001600160a01b03160217905550610e03565b610dfc81611366565b9050610d6d565b50505050565b600154604051600090610e22908590859060200161137f565b60405160208183030381529060405280519060200120905060005b82811015610f225760018181548110610e5857610e5861133a565b90600052602060002001604051602001610e7291906114c6565b604051602081830303815290604052805190602001208203610f12576001610e9a818561149d565b81548110610eaa57610eaa61133a565b9060005260206000200160018281548110610ec757610ec761133a565b906000526020600020019081610edd919061153c565b506001805480610eef57610eef6114b0565b600190038181906000526020600020016000610f0b9190610f72565b9055610f22565b610f1b81611366565b9050610e3d565b5050505050565b6001600160a01b038116610f505760405163d92e233d60e01b815260040160405180910390fd5b600080546001600160a01b0319166001600160a01b0392909216919091179055565b508054610f7e90611300565b6000825580601f10610f8e575050565b601f016020900490600052602060002090810190610fac9190610faf565b50565b5b80821115610fc45760008155600101610fb0565b5090565b6020808252825182820181905260009190848201906040850190845b818110156110095783516001600160a01b031683529284019291840191600101610fe4565b50909695505050505050565b60006020828403121561102757600080fd5b5035919050565b6000815180845260005b8181101561105457602081850181015186830182015201611038565b506000602082860101526020601f19601f83011685010191505092915050565b602081526000611087602083018461102e565b9392505050565b80356001600160a01b03811681146110a557600080fd5b919050565b600080604083850312156110bd57600080fd5b6110c68361108e565b91506110d46020840161108e565b90509250929050565b6000602082840312156110ef57600080fd5b6110878261108e565b60008083601f84011261110a57600080fd5b50813567ffffffffffffffff81111561112257600080fd5b60208301915083602082850101111561113a57600080fd5b9250929050565b60008060006040848603121561115657600080fd5b833567ffffffffffffffff81111561116d57600080fd5b611179868287016110f8565b909450925061118c90506020850161108e565b90509250925092565b6000602080830181845280855180835260408601915060408160051b870101925083870160005b828110156111ea57603f198886030184526111d885835161102e565b945092850192908501906001016111bc565b5092979650505050505050565b6000806020838503121561120a57600080fd5b823567ffffffffffffffff81111561122157600080fd5b61122d858286016110f8565b90969095509350505050565b634e487b7160e01b600052604160045260246000fd5b60006020828403121561126157600080fd5b813567ffffffffffffffff8082111561127957600080fd5b818401915084601f83011261128d57600080fd5b81358181111561129f5761129f611239565b604051601f8201601f19908116603f011681019083821181831017156112c7576112c7611239565b816040528281528760208487010111156112e057600080fd5b826020860160208301376000928101602001929092525095945050505050565b600181811c9082168061131457607f821691505b60208210810361133457634e487b7160e01b600052602260045260246000fd5b50919050565b634e487b7160e01b600052603260045260246000fd5b634e487b7160e01b600052601160045260246000fd5b60006001820161137857611378611350565b5060010190565b8183823760009101908152919050565b601f821115610d6257600081815260208120601f850160051c810160208610156113b65750805b601f850160051c820191505b818110156113d5578281556001016113c2565b505050505050565b67ffffffffffffffff8311156113f5576113f5611239565b611409836114038354611300565b8361138f565b6000601f84116001811461143d57600085156114255750838201355b600019600387901b1c1916600186901b178355610f22565b600083815260209020601f19861690835b8281101561146e578685013582556020948501946001909201910161144e565b508682101561148b5760001960f88860031b161c19848701351681555b505060018560011b0183555050505050565b81810381811115610ad857610ad8611350565b634e487b7160e01b600052603160045260246000fd5b60008083546114d481611300565b600182811680156114ec576001811461150157611530565b60ff1984168752821515830287019450611530565b8760005260208060002060005b858110156115275781548a82015290840190820161150e565b50505082870194505b50929695505050505050565b818103611547575050565b6115518254611300565b67ffffffffffffffff81111561156957611569611239565b61157d816115778454611300565b8461138f565b6000601f8211600181146115b157600083156115995750848201545b600019600385901b1c1916600184901b178455610f22565b600085815260209020601f19841690600086815260209020845b838110156115eb57828601548255600195860195909101906020016115cb565b50858310156116095781850154600019600388901b60f8161c191681555b5050505050600190811b0190555056fea26469706673582212208dae2d5f86a5acd55d954b7ad470d5c4e97aacc215db2b801bec387ce2346b9264736f6c63430008110033",
    "linkReferences": {}
  },
  "methodIdentifiers": {
    "VTokenFor(address)": "a94ea6ed",
    "accounts(uint256)": "f2a40db8",
    "accountsOwnedBy(address)": "33c8a9d7",
    "addAccount(address,address)": "49b51b17",
    "addressFor(string)": "c994a390",
    "admin()": "f851a440",
    "closeAccount(address)": "dd336b94",
    "getAddress(string)": "bf40fac1",
    "getAllAccounts()": "08e93d0a",
    "getAllKeys()": "bc87eed3",
    "getAllVTokens()": "47bacf87",
    "init()": "e1c7392a",
    "keys(uint256)": "0cb6aaf1",
    "ownerFor(address)": "fff06706",
    "setAddress(string,address)": "9b2ea4bd",
    "setVToken(address,address)": "141ffce6",
    "transferOwnership(address)": "f2fde38b",
    "updateAccount(address,address)": "82d6ea09",
    "vTokens(uint256)": "93cb090e"
  },
  "id": 51
}