{
  "abi": [
    {
      "inputs": [
        {
          "internalType": "address",
          "name": "_WETH",
          "type": "address"
        },
        {
          "internalType": "contract IUniV2Factory",
          "name": "_uniV2Factory",
          "type": "address"
        }
      ],
      "stateMutability": "nonpayable",
      "type": "constructor"
    },
    {
      "inputs": [],
      "name": "UNIV2_FACTORY",
      "outputs": [
        {
          "internalType": "contract IUniV2Factory",
          "name": "",
          "type": "address"
        }
      ],
      "stateMutability": "view",
      "type": "function"
    },
    {
      "inputs": [],
      "name": "WETH",
      "outputs": [
        {
          "internalType": "address",
          "name": "",
          "type": "address"
        }
      ],
      "stateMutability": "view",
      "type": "function"
    },
    {
      "inputs": [
        {
          "internalType": "address",
          "name": "",
          "type": "address"
        },
        {
          "internalType": "bool",
          "name": "",
          "type": "bool"
        },
        {
          "internalType": "bytes",
          "name": "data",
          "type": "bytes"
        }
      ],
      "name": "canCall",
      "outputs": [
        {
          "internalType": "bool",
          "name": "",
          "type": "bool"
        },
        {
          "internalType": "address[]",
          "name": "",
          "type": "address[]"
        },
        {
          "internalType": "address[]",
          "name": "",
          "type": "address[]"
        }
      ],
      "stateMutability": "view",
      "type": "function"
    }
  ],
  "bytecode": {
    "object": "0x60c060405234801561001057600080fd5b5060405161104338038061104383398101604081905261002f9161005e565b6001600160a01b039182166080521660a052610098565b6001600160a01b038116811461005b57600080fd5b50565b6000806040838503121561007157600080fd5b825161007c81610046565b602084015190925061008d81610046565b809150509250929050565b60805160a051610f5e6100e56000396000818160760152818161060501528181610796015281816109100152610a6101526000818160b5015281816108e50152610a360152610f5e6000f3fe608060405234801561001057600080fd5b50600436106100415760003560e01c80633414d09914610046578063459e042914610071578063ad5c4648146100b0575b600080fd5b610059610054366004610b31565b6100d7565b60405161006893929190610c0c565b60405180910390f35b6100987f000000000000000000000000000000000000000000000000000000000000000081565b6040516001600160a01b039091168152602001610068565b6100987f000000000000000000000000000000000000000000000000000000000000000081565b6000606080826100e78587610c43565b90506001600160e01b031981166338ed173960e01b148061011857506001600160e01b03198116634401edf760e11b145b1561013e5761013261012d866004818a610c73565b6102aa565b935093509350506102a0565b6001600160e01b03198116637ff36ab560e01b148061016d57506001600160e01b0319811663fb3bdb4160e01b145b1561018757610132610182866004818a610c73565b6103d7565b6001600160e01b03198116632512eca560e11b14806101b657506001600160e01b031981166318cbafe560e01b145b156101d0576101326101cb866004818a610c73565b61047f565b62171cc960e81b6001600160e01b03198216016101fc576101326101f7866004818a610c73565b61051d565b6322aeaa1160e11b6001600160e01b031982160161022957610132610224866004818a610c73565b6106ae565b630cfa28e760e01b6001600160e01b031982160161025657610132610251866004818a610c73565b61083f565b633f62b8c560e21b6001600160e01b03198216016102835761013261027e866004818a610c73565b610990565b505060408051600080825260208201818152828401909352935091505b9450945094915050565b6000606080826102bc85870187610d55565b5050925050506000600167ffffffffffffffff8111156102de576102de610c9d565b604051908082528060200260200182016040528015610307578160200160208202803683370190505b5090508160008151811061031d5761031d610dc0565b60200260200101518160008151811061033857610338610dc0565b6001600160a01b03929092166020928302919091019091015260408051600180825281830190925260009181602001602082028036833701905050905082600184516103849190610dd6565b8151811061039457610394610dc0565b6020026020010151816000815181106103af576103af610dc0565b6001600160a01b03909216602092830291909101909101526001955093509150509250925092565b6000606080826103e985870187610dfd565b5050604080516001808252818301909252919350600092506020808301908036833701905050905081600183516104209190610dd6565b8151811061043057610430610dc0565b60200260200101518160008151811061044b5761044b610dc0565b6001600160a01b03929092166020928302919091018201526040805160008152918201905260019891975095509350505050565b60006060808261049185870187610e5e565b6040805160018082528183019092529194506000935090915060208083019080368337019050509050816000815181106104cd576104cd610dc0565b6020026020010151816000815181106104e8576104e8610dc0565b6001600160a01b0392909216602092830291909101820152604080516000815291820190526001989097509095509350505050565b6000606080828061053086880188610eae565b60408051600280825260608201835293955091935060009290602083019080368337019050509050828160008151811061056c5761056c610dc0565b60200260200101906001600160a01b031690816001600160a01b03168152505081816001815181106105a0576105a0610dc0565b6001600160a01b0392909216602092830291909101909101526040805160018082528183019092526000918160200160208202803683370190505060405163e6a4390560e01b81526001600160a01b03868116600483015285811660248301529192507f00000000000000000000000000000000000000000000000000000000000000009091169063e6a4390590604401602060405180830381865afa15801561064e573d6000803e3d6000fd5b505050506040513d601f19601f820116820180604052508101906106729190610ee7565b8160008151811061068557610685610dc0565b6001600160a01b0390921660209283029190910190910152600196509450925050509250925092565b600060608082806106c186880188610eae565b6040805160028082526060820183529395509193506000929060208301908036833701905050905082816000815181106106fd576106fd610dc0565b60200260200101906001600160a01b031690816001600160a01b031681525050818160018151811061073157610731610dc0565b6001600160a01b0392909216602092830291909101909101526040805160018082528183019092526000918160200160208202803683370190505060405163e6a4390560e01b81526001600160a01b03868116600483015285811660248301529192507f00000000000000000000000000000000000000000000000000000000000000009091169063e6a4390590604401602060405180830381865afa1580156107df573d6000803e3d6000fd5b505050506040513d601f19601f820116820180604052508101906108039190610ee7565b8160008151811061081657610816610dc0565b6001600160a01b0392909216602092830291909101909101526001999198509650945050505050565b60006060808261085185870187610f0b565b6040805160018082528183019092529192506000919060208083019080368337019050509050818160008151811061088b5761088b610dc0565b6001600160a01b0392909216602092830291909101909101526040805160018082528183019092526000918160200160208202803683370190505060405163e6a4390560e01b81526001600160a01b0385811660048301527f0000000000000000000000000000000000000000000000000000000000000000811660248301529192507f00000000000000000000000000000000000000000000000000000000000000009091169063e6a4390590604401602060405180830381865afa158015610959573d6000803e3d6000fd5b505050506040513d601f19601f8201168201806040525081019061097d9190610ee7565b816000815181106103af576103af610dc0565b6000606080826109a285870187610f0b565b604080516001808252818301909252919250600091906020808301908036833701905050905081816000815181106109dc576109dc610dc0565b6001600160a01b0392909216602092830291909101909101526040805160018082528183019092526000918160200160208202803683370190505060405163e6a4390560e01b81526001600160a01b0385811660048301527f0000000000000000000000000000000000000000000000000000000000000000811660248301529192507f00000000000000000000000000000000000000000000000000000000000000009091169063e6a4390590604401602060405180830381865afa158015610aaa573d6000803e3d6000fd5b505050506040513d601f19601f82011682018060405250810190610ace9190610ee7565b81600081518110610ae157610ae1610dc0565b6001600160a01b03929092166020928302919091019091015260019891975095509350505050565b6001600160a01b0381168114610b1e57600080fd5b50565b8035610b2c81610b09565b919050565b60008060008060608587031215610b4757600080fd5b8435610b5281610b09565b935060208501358015158114610b6757600080fd5b9250604085013567ffffffffffffffff80821115610b8457600080fd5b818701915087601f830112610b9857600080fd5b813581811115610ba757600080fd5b886020828501011115610bb957600080fd5b95989497505060200194505050565b600081518084526020808501945080840160005b83811015610c015781516001600160a01b031687529582019590820190600101610bdc565b509495945050505050565b8315158152606060208201526000610c276060830185610bc8565b8281036040840152610c398185610bc8565b9695505050505050565b6001600160e01b03198135818116916004851015610c6b5780818660040360031b1b83161692505b505092915050565b60008085851115610c8357600080fd5b83861115610c9057600080fd5b5050820193919092039150565b634e487b7160e01b600052604160045260246000fd5b600082601f830112610cc457600080fd5b8135602067ffffffffffffffff80831115610ce157610ce1610c9d565b8260051b604051601f19603f83011681018181108482111715610d0657610d06610c9d565b604052938452858101830193838101925087851115610d2457600080fd5b83870191505b84821015610d4a57610d3b82610b21565b83529183019190830190610d2a565b979650505050505050565b600080600080600060a08688031215610d6d57600080fd5b8535945060208601359350604086013567ffffffffffffffff811115610d9257600080fd5b610d9e88828901610cb3565b9350506060860135610daf81610b09565b949793965091946080013592915050565b634e487b7160e01b600052603260045260246000fd5b81810381811115610df757634e487b7160e01b600052601160045260246000fd5b92915050565b60008060008060808587031215610e1357600080fd5b84359350602085013567ffffffffffffffff811115610e3157600080fd5b610e3d87828801610cb3565b9350506040850135610e4e81610b09565b9396929550929360600135925050565b600080600060608486031215610e7357600080fd5b8335925060208401359150604084013567ffffffffffffffff811115610e9857600080fd5b610ea486828701610cb3565b9150509250925092565b60008060408385031215610ec157600080fd5b8235610ecc81610b09565b91506020830135610edc81610b09565b809150509250929050565b600060208284031215610ef957600080fd5b8151610f0481610b09565b9392505050565b600060208284031215610f1d57600080fd5b8135610f0481610b0956fea2646970667358221220e71b8052b04aa82ad586ce51f1917d404ab7f0a61f15279240190c73c1d3b00064736f6c63430008110033",
    "linkReferences": {}
  },
  "methodIdentifiers": {
    "UNIV2_FACTORY()": "459e0429",
    "WETH()": "ad5c4648",
    "canCall(address,bool,bytes)": "3414d099"
  },
  "id": 6
}